:020000040800F2
:100000006804002069110008E10F0008E30F0008F0
:1000100000000000000000000000000000000000E0
:10002000000000000000000000000000E50F0008D4
:100030000000000000000000E70F0008E90F0008C2
:100040005306000800000000E3060008BB09000892
:10005000DF0F00081711000823110008891100089C
:10006000000000008B1100088D1100088F1100089E
:10007000911100089311000895110008000000007C
:10008000971100080000000000000000091000089F
:1000900000000000991100089B1100089D11000844
:1000A000000000009F11000800000000A1110008DE
:1000B000FEB5060019D0AD4C3078C00717D58027A3
:1000C000BF0260680C210140042909D060680C213E
:1000D0000140082941D160687908084088423CD134
:1000E0002068074003D07068002800D19BE1307879
:1000F00080071AD5F827FF4360680C21014007D01C
:1001000060680C21014008295AD16068C00357D4A7
:100110002068800703D5F068012800D083E12068BB
:1001200007403069C000384320603078000778D538
:100130000227F0690028606A64D0012101436162EE
:1001400000F044FA0500606A38406AD100F03EFAD7
:10015000401B0228F7D90320FEBD73687908012BE4
:1001600009D0B348B34A002B09D0052B07D120682A
:100170008A000243226020680143216005E0216873
:100180000A402260216808402060706800280BD077
:1001900000F01CFA050020683840A8D100F016FADB
:1001A000401B6528F7D3D6E700F010FA0500206859
:1001B00038409CD000F00AFA401B6528F7D3CAE704
:1001C000F068002820680ED001210143216000F072
:1001D000FDF9050020688007A1D400F0F7F9401B65
:1001E0000228F7D9B7E701218843206000F0EEF933
:1001F00005002068800798D500F0E8F9401B022828
:10020000F7D9A8E701218843606200F0DFF9050013
:10021000606A384005D000F0D9F9401B0228F7D9B0
:1002200099E704273068384062D000200190B80672
:10023000E169014008D1E1690143E161E1690840F8
:1002400000900098012001907B480068C00512D4FE
:1002500079480068A10D01437748016000F0B6F9C4
:10026000050075480068C00505D400F0AFF9401BD3
:100270006528F6D36FE7B068012808D0002801D1BF
:10028000206A09E00528206A06D138432062206AE6
:1002900001210143216205E0012188432062206A97
:1002A000B8432062A4480090B06800280CD000F049
:1002B0008DF90500206A800713D400F087F9401BF0
:1002C00000998842F6D346E700F080F90500206ADD
:1002D000800706D500F07AF9401B00998842F6D3D2
:1002E00039E70198002803D0E06994490140E161B1
:1002F0003078C0061DD57069F825ED43012837D147
:10030000606B07436763606B01210143616300F029
:100310005DF90700606B800705D400F057F9C01B3A
:100320000228F7D917E7606B0540B069C000284381
:100330006063306A002878D061680C220A40082A7D
:100340005CD08027BF048F490228206848D1014033
:10035000216000F03BF905002068384022D000F011
:1003600035F9401B0228F7D9F5E600BF001002401E
:100370000421C9438842606B02D101406163D2E726
:1003800007436763606B01218843606300F01EF9D7
:100390000500606B8007CCD500F018F9401B0228DF
:1003A000F7D9D8E6E06A0F218843F16A0143E16298
:1003B000606875490140B06A0843716A0143616031
:1003C000206879080143216000F000F905002068E9
:1003D00038402AD100F0FAF8401B0228F7D9BAE6D3
:1003E0000140216000F0F2F80500206838401CD080
:1003F00000F0ECF8401B0228F7D9ACE6012812D037
:100400006068E16A802252020240736A9A420AD10D
:100410000907090FF26A914205D1F02189030140D1
:10042000B06A814201D00120FEBD0020FEBD000067
:10043000FFFFFBFFFFFFFEFF00700040F8B5040068
:1004400060D0009151480068C107C90F00988142EF
:100450000CD24E48016801229143009A0A4302607F
:100460000068C107C90F009881424BD12168484DEF
:10047000022001420CD0490704D56968E022D2006D
:100480000A436A606968F0229143A2680A436A607D
:1004900001272168394025D06168012902D12868E7
:1004A000800303E0022903D12868800103D429E0F6
:1004B0002A68104026D0686803229043014369608F
:1004C00000F084F8060068680C2101406068800034
:1004D000814207D000F07AF8801B17498842F2D396
:1004E0000320F2BD2948009902683A4091420BD29C
:1004F0000168B943009A0A43026000680740009807
:10050000874201D00120F2BD2078400705D56868F8
:1005100020490140E0680843686000F011F81E4976
:100520006A681206120F895CC8401C4908600320E3
:1005300000F052F80020F2BD89130000FFFFFFEF2A
:10054000174B196817480C220A40042A00D170473B
:1005500030B5082A13D10F2214A48D0C1540645D08
:100560009B6AC90307D500BF14A11A40895C00F03B
:1005700055F8604330BD20000B49484330BD40086A
:1005800030BD0000FFFFFFFEFFFFC2FF0020024062
:1005900000100240FFF8FFFF581100080C00002077
:1005A000041002400024F40000093D000203040589
:1005B000060708090A0B0C0D0E0F101001020304A8
:1005C00005060708090A0B0C0D0E0F1001484068BC
:1005D000704700BF0000002038B505000D4CFA2020
:1005E0008000217800F01AF801000B48006800F044
:1005F00015F800F059F800280AD1042D08D200227D
:1006000029000020C04300F042F8A560002032BD60
:10061000012032BD000000200C000020094214D04F
:1006200088420FD30122030C01D1000412040023DD
:1006300000185B418B4200D35B1A5241F8D319007A
:100640001000704701000020704708B500F048F81E
:1006500008BDFEE710B5C20018231340FF249C40DC
:10066000E2438907090E9940030004D418489B0807
:100670009B00C01806E0174B0007000F08388008E1
:100680008000181803681A401143016010BD80B53E
:10069000FFF7E0FF01BD010005D40121C006C00E37
:1006A00081400D480160704710B5401E802149040B
:1006B000884201D3012010BD084C60600321002056
:1006C000C043FFF7C7FF0020A0600721216010BDD5
:1006D00000E400E01CED00E000E100E010E000E0DC
:1006E0007047FEE710B5040001D1012010BD3D2088
:1006F000205C002804D13C216054200000F03BF92C
:1007000019E010B502680121C943D3680B40D360DA
:100710000268136A174C1C4008D1126A164B13402A
:1007200004D10268126811400268116001213D2263
:100730008154002010BD02203D216054211D2068FD
:1007400000F0C5F80120462160543E2160543F214D
:10075000605440216054412160544221605443213F
:10076000605444216054452160543D216054002070
:1007700010BD00001111000044040000F8B5040091
:100780002068002502260169314015D0C16831403A
:1007900012D00221C94301610121217780698007BC
:1007A00003D0200000F006F905E0200000F003F976
:1007B000200000F001F925772068042701693940FD
:1007C00016D0C168394013D00421C943016126778E
:1007D0008069C0218900014003D0200000F0EAF8C0
:1007E00005E0200000F0E7F8200000F0E5F82577AC
:1007F000206808260169314014D0C168314011D009
:100800000821C94301612777C069800703D0200010
:1008100000F0D0F805E0200000F0CDF8200000F056
:10082000CBF825772068102102690A4016D0C268EB
:10083000114013D01021C94301612677C069C0213E
:100840008900014003D0200000F0B4F805E020004A
:1008500000F0B1F8200000F0AFF825772068012102
:1008600002690A4008D0C268114005D00121C9437D
:100870000161200000F0A2F82068802102690A408E
:1008800008D0C268114005D08021C9430161200011
:1008900000F085F92068402102690A4008D0C2684A
:1008A000114005D04021C9430161200000F078F9D2
:1008B0002068202102690A4008D0C268114005D092
:1008C0002021C9430161200000F06BF9F1BDF0B5B2
:1008D0000668184A184B194C194DA84201D0A0427D
:1008E00006D17027BE4337004E683E43A84208D069
:1008F000A04206D0134CA04203D0984201D09042AF
:1009000003D1114C3440CE6826438024A6434C6961
:10091000344304608C68C4620C688462A84203D0CB
:10092000984201D0904201D10969016301214161DE
:10093000F0BD0000004801400044014000040040B8
:10094000002C014000200040FFFCFFFF81B001208F
:1009500015490A6802430A600A681040009000982E
:10096000802040054A6802434A6049680840009078
:10097000009801B0704700680C49884200D0704769
:1009800080B5880D0A490A6802430A600968084070
:1009900000900098002200211320FFF778FE13201A
:1009A000FFF779FE01BD0000181002400020004052
:1009B0001C100240704770477047FEE77047F8B55B
:1009C00086B000F0EFF800F0B9F81422002101A879
:1009D00000F0F8F88020C00352490A6802430A6018
:1009E0000A68104000900098802080020A68024344
:1009F0000A6009680840009000989025ED050022E3
:100A00001821280000F0B8F98120019000260296F4
:100A10000127039701A9280000F0DEF818200190B3
:100A200002970396049601A9280000F0D5F83E4CE1
:100A30003E486060A660E6603D4820616661E66110
:100A4000201DFFF74FFE002801D000F0A6F8201D62
:100A5000FFF757FE00220821280000F08DF9002240
:100A60001021280000F088F9324800F097F916E0CC
:100A7000226D636D0020304900F0A4F90FD1A078F9
:100A8000012804D101220821280000F075F9A0787E
:100A9000022804D101221021280000F06DF98021E4
:100AA000280000F063F920700121280000F05EF9B1
:100AB00060702078002810D0607800280DD00022C7
:100AC0000821280000F058F900221021280000F029
:100AD00053F9E670A6702665666520786178014353
:100AE0000ED100220821280000F046F90022102132
:100AF000280000F041F9E670A6702665666502E000
:100B0000E0780028B4D160782178002904D1002849
:100B1000C5D0A770E770C2E70028C0D10220A0703E
:100B2000F8E70000141002401000002000200040F0
:100B3000FFFF0000102700000088B34038B590B0D8
:100B40003022002104A800F03DF810220021684660
:100B500000F038F802240494012007901020089037
:100B60000C9400250D95A02080030E900F9504A8ED
:100B7000FFF79EFA002801D000F00FF80720009040
:100B800001940295039501216846FFF757FC002860
:100B900001D000F002F811B030BD72B6FEE7704728
:100BA0007047704780B50648016810220A4302600A
:100BB0000320FFF711FDFFF7C9FE002002BD000072
:100BC0000020024010B504000800110002002000BF
:100BD00000F00AF9200010BDFFB500220F23029398
:100BE0002CE0052402E0674DA842FAD16D462D782D
:100BF000AC403443019D2C60634C2668DC432640A6
:100C00004D68ED0300D51E435F4D2E606E68264093
:100C10004F68BF0300D51E436E60AE6826404F6824
:100C2000FF0200D51E43AE60EE6834404E68B60247
:100C300002D526001C003443EC60521C0B681C00DB
:100C4000D44000D191E0012494402340F5D05500D8
:100C50000327AF40FE4301964E68B707BF0F012F31
:100C600003D0B607B60F022E0ED18768019E3E4014
:100C7000CF68AF40374387604668A6434C68E706B5
:100C8000FF0F97403743476094006E4674700C79AD
:100C9000A407A40F032C26D0C468019E26408C68AC
:100CA000AC403443C4600C79A407A40F022C1AD1C1
:100CB000D408A4000419266A03966E4677781C2689
:100CC0003E406F463E70039EB446029F6E463678A5
:100CD000B7406646BE43B4460F696E463678B740A5
:100CE00066463743276207680324019E3E404F68EB
:100CF0002740BC462F006546BD40354305604D6822
:100D000026042E4099D00125204E36682E431F4FD1
:100D10003E603E4636682E400196019E1C4E970866
:100D2000BF00F6190196019E366803966E467778E5
:100D30000C263E406F463E70039EB446029F6E46B0
:100D40003678B7406646BE439027FF05B84201D1CA
:100D500000244BE70F4FB84201D1012446E70E4D66
:100D6000A84200D03FE7022440E7FFBD00690840E9
:100D700000D00120C0B27047002A01D081617047C5
:100D800081627047000C00480004014018100240C6
:100D900008000140000400480008004838B505007C
:100DA000FFF714FC04000020C043854202D0044831
:100DB00000782D18FFF70AFC001BA842FAD331BDBA
:100DC0000000002090420ED1A4460C001C430128D4
:100DD000644107D0994205D14C006415641C6440FD
:100DE00000D30C03644670471206130A1A43130C0F
:100DF0001A4300BF094205D0830705D00270401C8A
:100E0000491EF9D1704700001300103906D330B4E1
:100E10001400150010393CC0FCD230BC490700D387
:100E20000CC000D504C0890002D30280801C0029B8
:100E300000D502707047F0B40125ED070F005F4048
:100E40004FD48B4200D1824205D9844610006246BD
:100E50008C4619006346DF184C18640D7F0D3AD09C
:100E6000661C760537D0E61B352E34DCDB022B43BF
:100E7000DB0A0C0DC9022943C912202E0DDB170015
:100E8000203E06D01F00F741F3405F400026012AB4
:100E90007741C01871410DD217E01700F741F240B9
:100EA0005740F3415A40B340F3405A40002680185F
:100EB00059410AD3A21C52050FD0C207012F72411B
:100EC00017004008CB0718434908641C2405420852
:100ED000AF4170416141F0BC7047641C21050020A6
:100EE000F9E76B400AE06B40ABE7F742F3D1E94327
:100EF000F1E72442EFD100200021ECE70C00871A33
:100F00009C4105D2C01BA141D219634169406B408D
:100F1000AE0ADF184C18F442E7D2640D7F0DE8D01A
:100F2000E61B362ED7DCDB022B43DB0AA4460C0D76
:100F3000C9022943C90A012E28DC04D1D607520868
:100F4000DF073A435B08EF0A76429041994114D09B
:100F500039423BD1B61940414941761C394204D14E
:100F6000761C001849413942FAD0B9436746B74266
:100F700008D9A41B24052143ADE70042EAD136423B
:100F8000E8D1A8E7E40AE1070020A4E7202E0BDD62
:100F9000203E1F00F340F7415F40012A00225741E5
:100FA0007E42984191410BE01700F741F2405740D3
:100FB000F3415A40B340F3405A407E429041994138
:100FC0000A0303D2641EB619404149410027641E3A
:100FD00024054208AE4178416141F0BC7047FEE70C
:100FE000FEE7FEE77047704710B50A480078012811
:100FF00007D1094C0CCC083C00200849FFF71BFF27
:1010000003C400F00FF810BD80B50548FFF7B6FB2C
:1010100001BD000013000020600000200000F03F30
:101020001400002002484168027889184160704726
:101030000000002070B40123002413E00168001DAB
:10104000194202D04D466918491E0C60091D121F35
:10105000042AFAD20D00960701D50C80AD1C1A4067
:1010600000D02C700268001D002AE7D170BC7047C8
:1010700030B401220EE00368C318446808301442FB
:1010800002D04D462C19641E1D6825601B1D241DB1
:10109000091FF9D10168001D0029ECD130BC70474F
:1010A00010B5074979441831064C7C44163404E0E5
:1010B000081D0A68891888470100A142F8D110BDAF
:1010C00008000000280000006DFFFFFF580000002E
:1010D000100000200000000099FFFFFF100000003A
:1010E00098000000000000200000000000F00DF853
:1010F000002801D0FFF7D4FF00BF00BF002000BFD1
:1011000000BFFFF75CFC00F002F80120704780B5DB
:1011100000F002F801BDFEE70746384600F002F88D
:10112000FBE7FEE780B500BF00BF024A11001820B0
:10113000ABBEFBE7260002000548014603B4684643
:1011400080F3098800BF00BF00BF00BFFFF7CEFFDC
:10115000A5EDF5FE70470000000000000000000053
:1011600001020304060708090148804701480047B7
:1011700055110008391100080100000000000000AE
:101180000400000000127A00FEE7FEE7FEE7FEE73B
:10119000FEE7FEE7FEE7FEE7FEE7FEE7FEE7FEE727
:0211A000FEE768
:0400000508001139A5
:00000001FF
