:020000040800F2
:10000000D8A80120F9CB0208D9C70208E7C702081F
:10001000EFC70208F7C70208FFC702080000000088
:10002000000000000000000000000000052402089D
:1000300007C8020800000000AD230208811E020864
:1000400049CD02084DCD020851CD020855CD020818
:1000500059CD02085DCD020861CD020865CD0208C8
:1000600069CD02086DCD020871CD020875CD020878
:1000700079CD02087DCD020881CD020885CD020828
:1000800089CD02088DCD020891CD020895CD0208D8
:1000900099CD02089DCD0208A1CD0208A5CD020888
:1000A000A9CD0208ADCD0208B1CD0208B5CD020838
:1000B000B9CD0208BDCD02080DC80208C1CD0208A5
:1000C000C5CD0208C9CD0208CDCD0208D1CD0208A8
:1000D000D5CD0208D9CD0208DDCD02083DC8020801
:1000E000E1CD0208E5CD0208E9CD0208EDCD020818
:1000F000F1CD0208F5CD0208F9CD0208FDCD0208C8
:1001000001CE020805CE020809CE02080DCE020873
:1001100011CE020815CE020819CE02081DCE020823
:1001200021CE020825CE020829CE02082DCE0208D3
:1001300031CE020843C8020835CE020839CE020883
:100140003DCE020841CE020845CE020849CE020843
:100150004DCE020851CE020855CE020859CE0208F3
:100160005DCE020861CE020865CE020869CE0208A3
:100170006DCE020871CE020875CE020800000000A4
:1001800079CE02087DCE02082F696D672F4C6F670C
:100190006F2E706E67000000485454502F312E307F
:1001A00020323030204F4B0D0A5365727665723A1B
:1001B000206C7749502F322E312E322028687474EB
:1001C000703A2F2F736176616E6E61682E6E6F6E5E
:1001D000676E752E6F72672F70726F6A65637473C6
:1001E0002F6C776970290D0A436F6E74656E742DDC
:1001F0004C656E6774683A2038393631300D0A43E1
:100200006F6E74656E742D547970653A20696D61F6
:1002100067652F706E670D0A0D0A89504E470D0AEB
:100220001A0A0000000D494844520000042700004B
:10023000038A0806000000A8103A1A0000000173A3
:1002400052474200AECE1CE90000000467414D4118
:100250000000B18F0BFC6105000000097048597364
:1002600000000EC300000EC301C76FA8640000FFAA
:10027000A549444154785EECDD075855D7B207F0E4
:1002800011100415154445440429F6AE512CB1450E
:100290006334A6586362EFBD5704956289B1F7DEF7
:1002A0002B1A5BD4688C24B1E51A63AF800511B1B9
:1002B000171414A43CD6CEF062120BE594B5F7F9EE
:1002C000FFBE2F9F7B26F7DDFB12E59CBD67AF9934
:1002D00021000000000000000000000000000000FD
:1002E000000000000000000000000000000000000E
:1002F00000000000000000000000000000000000FE
:1003000000000000000000000000000000000000ED
:1003100000000000000000000000000000000000DD
:1003200000000000000000000000000000000000CD
:1003300000000000000000000000000000000000BD
:1003400000000000000000000000000000000000AD
:10035000000000000000000000000000000000009D
:10036000000000000000000000000000000000008D
:10037000000000000000000000000000000000007D
:10038000000000000000000000000000000000006D
:10039000000000000000000000000000000000005D
:1003A000000000000000000000000000000000004D
:1003B000000000000000000000000000000000003D
:1003C000000000000000000000000000000000002D
:1003D000000000000000000000000000000000001D
:1003E000000000000000000000000000009571F611
:1003F0002CCD57000000005962C6BF020000006407
:100400004C85DA8DF80A000000204B509C0000005B
:1004100080CC2955BD1E5F010000000000000018BF
:1004200058764B2B5A7DE60947000000005982930D
:10043000130000009071F90A38524EDB3C94D7A1AA
:10044000106700000000320DC509000000C83851D7
:100450009C109C3D4A29BF0200000064018A1300E1
:100460000000907176859C945F8B7A96517E050092
:100470000000C802142700000020E3EC0AFE559C8F
:100480007074F3527E05000000C8021427000000BB
:1004900020E3EC0B16517E75F62CADFC0A00000033
:1004A0009005284E00000040C6E57772567EC5CC08
:1004B00009000000D001142700000020E31C8A146A
:1004C000537ECD63E740B9F2DA29D70000000099E6
:1004D00084E204000000649CA38B075F612826006F
:1004E000000064198A130000009031B9F2E4A3DC23
:1004F000F9FE3E2D51C4BD245F01000000640A8A4C
:10050000130000009031858AB9F3D55F9C509C00A0
:10051000000080AC41710200000032C6D9E39F1B8D
:100520003A8A626307000000640D8A13000000909D
:1005300031CEEEFF2C4638B9E1E404000000640936
:100540008A130000009031CE5EFF1C8069EFE84402
:1005500036B96D3902000000C830142700000020B1
:10056000639CBDFEDBC651C4BD145F010000006486
:10057000188A13000000907E396DF39283A33347ED
:100580007F2BE281E204000000641A8A130000005D
:10059000907ECE6F197E5904732700000020F3501F
:1005A0009C00000080F42BEA5596AFFEC9C91327C2
:1005B0002700000020D3509C00000080F47B5BFBF0
:1005C00086CBBF36780000000064008A130000006C
:1005D000907E2E25CAF1D53FD93B15252B6B1B8E5E
:1005E000000000003204C50900000048BFA21E6FD1
:1005F0003E216166968D9C8A97E0080000002043AA
:10060000509C00000080F4C9EB50886CEDF273F44C
:100610005F453DCBF0150000004086A0380100008A
:1006200000E9E3FC9E75A185DDBCF80A000000200E
:1006300043509C00000080F479DBBC89346F5B334D
:100640000A000000F01E284E00000040FA38BF6586
:10065000DE441AA7F79CAC00000000780B142700BA
:100660000000207D8A9628CB576F56A8881B5958C2
:100670005A7204000000906E284E00000040FA14E8
:1006800079CFC908730B737272C3C60E000000C81D
:10069000301427000000E0FD0A1429463639737330
:1006A000F47645DC4BF21500000040BAA138010099
:1006B0000000EF97DE6197284E0000004026A0382A
:1006C00001000000EF57D4EBDDF326D214C1C60EB3
:1006D000000000C8381427000000E0FD9C8BA76FC5
:1006E000134791E23839010000001986E204000046
:1006F00000BC5FD152E5F8EADD9CDC3CC9DCC2827B
:1007000023000000E3303337A73CF90B70042A8044
:10071000E204000000BC9BB8C14BEF160E738BECDB
:1007200054D0D98D23000000C3136BAD07CFD9443B
:10073000D3769F21AF4A35380B92437102000000F7
:10074000DECDB19807595A5971F47EEF5B390A0032
:1007500000A02F36B9F390EFCA7DE4DDA405E52BA8
:100760005088CAD76EC47F072487E204000000BC0B
:100770009B73068B0DD8D8010000C620DA3826AC52
:100780000FA13235EA2AF1CDD00BF4FD8249CA35EA
:10079000480FC509B568D4AE2765B74CFF5B2B0081
:1007A00000005D712991BE7913698AB8A1380100F2
:1007B000008655C8A538056D394A6E652A2A714AE2
:1007C0005232CD1DDE891213129418A487E2845A86
:1007D000D46CFE158D5FF733D9DA3B70060000C08C
:1007E0003032BA1EB48827DA3A0000C0705C4B552C
:1007F000A0C0E023E4E8529C33443B974EA7AB678C
:100800004F70042A80E2849A94A85293266F3B8EFC
:10081000E3B200006050CEEE192C4EA4737826008F
:1008200000405695AE5E97FC37FD4AF91C0A728669
:10083000E84E44386D9CE1CB11A8048A136A53D06A
:10084000B9184DDC7A8CCAD7FA8833000000FA2335
:10085000269E1776F5E4287DAC72E6A4FC4E453959
:10086000020000D08FEA4D5A90EFEA7D6493CB9658
:100870003344C9C929347744174A887FC9195009B4
:100880001427D428A76D1EF259B1971A7DDD8B333A
:10089000000000FA2156889A5B9873947E458AE39B
:1008A000941F0000E84FC3B6DD69D89CCD943DBBD2
:1008B0002567FEB26FDD02BA74FC1047A022284EF5
:1008C000A895B851EC19B8803A8D9DA1EC9F07000E
:1008D00000D0878C6EEA488316440000D0975603F8
:1008E000FCA8F7A4C594CDFC9FCFB3F76FDFA4B5E8
:1008F000534672042A83E2845A9C3B7C80AFFEE913
:10090000D3AE8368E4E2ED649D2B3767000000748A
:10091000A7A85759BECA9822992C6A000000BC8D1E
:100920007829DB6DFC1C6A3B780267FE69C1A8EE82
:10093000F432F63947A032284EA8C5D67941F4F3EF
:10094000E6E51CFD5395FACD2868CB11727072E173
:100950000C0000806E38677053471AA7E2188A09A6
:100960000000BA2366200D9EB5819A74ECC7997F6A
:100970000A095E49670EEDE7085408C509B54849FC
:1009800049A185637AD089903D9CF92717AFB2348D
:1009900079C771F2AAECCD19000080AC2B9AC9E29C
:1009A0004446377C000000BC8D4D6E5BF259BE871B
:1009B000BC9BB6E2CC3F3DBA1B4D2B020773042A09
:1009C00085E2849A242725D1CC016DE9FAA5339CD0
:1009D000F9A7BCF60568FCBA8354E7F3AF39030006
:1009E0000090799639ACA96011378E3226773E3B5C
:1009F000B2B577E00800002073C4778978C629571C
:100A0000B30167FE6B895F1F8A8D79C211A8148AB2
:100A1000136AF3E2F9339ADCBD393DBE778733FFC1
:100A2000646965450367ACA576C382285BB66C9C98
:100A3000050000C83831D4F2DFC3C632021B3B00C8
:100A400000202B0A38BBD2A4AD47A978D9CA9CF99B
:100A5000AF233F6CA2E3FBB773042A86E2841A3DFE
:100A600088BA49537B7F494989AF38F35F2DFA8EA5
:100A7000A121F382C9CADA86330000001953D4B326
:100A80000C5F650E866202004066B994284741C13A
:100A900047A8908B3B67FE2BE6D1035A3ABE3F47EF
:100AA000A072284EA8D59593C76889DF9B87C1A4FB
:100AB000F16ED28202371F26BB8285390300009077
:100AC0007E592D2E60282600006446A96A752830BC
:100AD000F850EA738C2367DE6CB9FF408A79789FFF
:100AE0002350391427D4ECA70D8B2964EB2A8EDE12
:100AF000CCAD4C459ABCFD0F722D5D9133000000CA
:100B0000E9E39CC59313991DA6090000A6EB83C6D3
:100B10005F90DFAA7D6493CB96336F76FCC04E3A2C
:100B2000B4633D47A001284EA8DD52BFBE14197A18
:100B300091A337B32F549882361DA2AA0D9B73063A
:100B40000000E0FD9CDDB37672C2D1CD8BAF00001A
:100B500000DEAF419BAE347CDE16CA9E230767DE03
:100B60002C36E6292DF1EDC31168048A136AF73299
:100B70002E96A6F56F4DAF5EBEE4CC9B59E5CC49F1
:100B800023176EA3665D0671060000E0ED2CAD72C2
:100B9000500127178E32C7C1D15959FF060000F006
:100BA0003E2DFAF9509FC94BD3358879D5C4A1F4AD
:100BB000E84E1447A011284E684164E805DA30C3B6
:100BC0008FA3B7133FE89D7D67508F80F964666EF1
:100BD000CE59000080FF2AECE695A54D1D69C47F23
:100BE0000F0000C0DB880D835DC6CDA276430339BC
:100BF000F36EA70FFD4407372FE7083404C509AD8E
:100C0000D8B56C3A5D3DF72747EFD6F89BDEE4B3E5
:100C10007C37DE660100C05BE96A9865912CB68678
:100C20000000807659585AD2E0D91BA869A7019CC8
:100C300079B7F8D8585AE4D39352525238031A82EB
:100C4000E28456242725D1DCE19D2831319133EF10
:100C500056A14E630ADC72841CB27864170000B49B
:100C6000A9887B49BECA1A5DFDF7000080B6E4C8BA
:100C7000998B462FFD816A366BC399F75B3B7534C0
:100C8000DD8BBCCE11680C8A135A72F3CA79FA7ED6
:100C90005E1047EFE7E25986266DFB1FB995A9C4A0
:100CA00019000080BF38E9A8A8A0ABFF1E0000D043
:100CB0000E5B7B071ABFFE2055A8FD1167DEEFD241
:100CC00089C3F4E39A791C8106A138A135DFCF9F4F
:100CD0004437432F70F47EF91C0A52E0C6DFA85255
:100CE000DD269C010000207272D34D5B47510FB48A
:100CF000750000C0DFC4C9EDC0CD87C9A35C55CE67
:100D0000BC5F427C3C2D18D98D92939339031A8491
:100D1000E284D6BC4A88A7F923BA504A52FA7F70B7
:100D2000C5268F514B7651C336DD38030000A64CE3
:100D30000C4DD6D520CB8245DC949E6200000097F6
:100D400012652928F80839B97972267D36CDF0A3C5
:100D5000A86B5738028D4271428BC2CE1CA75D2B07
:100D60006672943EE616E6D47BF2126A3D7802671C
:100D70000000C05489B75A9656561C658DD8F8A104
:100D8000AB53180000A05E25ABD6A2804D87C8DE0D
:100D9000D18933E92386FE8BE1FFA079284E68D5FF
:100DA000C6E9BE7427229CA3F46B33C08F7A4D5AD8
:100DB0008C55A3000026CC59C7AD184E58270A0001
:100DC00060D2AA366C4EBEABF6534EDB3C9C491F3C
:100DD00031EC7FDE88CE9494CEA1FFA06A284E68C5
:100DE00055FC8B385A30BA074719F351DBEE34748F
:100DF0006E30595AE5E00C000098125DB574A4718C
:100E0000F62CCD570000606AEAB7EE4223176E2336
:100E10002B6B6BCEA49F18F61F71F91C47A071288D
:100E20004E68D9F96321F4D386C51C654CF58FBF94
:100E300020DF35FBC92677C6AA9B0000A07ECE1E08
:100E4000BA2D263815475B07008029FAA2D748EA51
:100E50003B6599D2E2975162C8BF18F60F2603C5C9
:100E600009AD5B3D69383DB8738BA38C2955B53608
:100E7000056CFA8DF21570E40C00009882C2AE1970
:100E80001B54F63E45B0B10300C0A464CB968D3A26
:100E90008D9D41DF8C9CCC998C11C3FD453B8718FF
:100EA000F60F2603C509AD8B7B16438B7D7A7194B3
:100EB00071C54A965326EA3A1673E70C0000685D3E
:100EC000611D0FB0742CE6895946000026426C68FB
:100ED0001A307D0D7DDA751067326EE7D2E9147E27
:100EE000E60F8EC044A038610AFE3CB89B7EDBBE94
:100EF0008EA38C2B58D495266E3D46C5CB56E60C5A
:100F000000006855AE3CF9C8D6CE9E23DD109B3F4D
:100F10000A3ABB720400005A65656D43A397ECA4BE
:100F20003A9F7FCD998C1343FD37CEF4E3084C08EC
:100F30008A13A662B9FF408A79F480A38CB3B5CB3B
:100F40004FE3378450D99A0D380300005AA4AFF903
:100F50001045DCD1DA0100A065B6F60E34617D08DB
:100F600055A8D3983399337744174A78F9822330B8
:100F700021284E988A678F1FD212BFBE1C658E4DE6
:100F8000CEDCE4BB722F797FD28A330000A0358E8D
:100F90003A9E37910643310100B42B7F6167F2DF3F
:100FA000F81B7954A8C699CCD9BB663E5D3A7E88B9
:100FB000233031284E9892A3BB37D3F19F7670949B
:100FC00039E616D969C8EC8DF47187AC153A000082
:100FD000404E4E3A5E239A0643310100B449AC8B31
:100FE0009EB8E51839BB67AD087D3F3A92D64E19D9
:100FF000C911982014274CCD12DF3E141BF394A383
:10100000CC11AB80BA4F984BAD074FE00C00006895
:1010100045613D152770720200407BBC2A7B53E07E
:10102000A64364EFE8C499CC5B30B21BBD8C7DCE87
:1010300011982014274CCDA3BBB76965D0108EB290
:10104000A6CD003FEA19B41013D8010034C4D14D25
:101050003F6D1D45DC4BF21500006841E5FA4D6916
:10106000DC9A03942B6F3ECE645EC8D65574E6D0EE
:101070007E8EC044A138618A428257D0D923073876
:10108000CA9A46ED7AD2E0399B9495410000A06E51
:10109000666666E4E8E2C1916ED9E4B225BB4259C6
:1010A0007FB3060000C657AF65271AB968075959BC
:1010B0005B7326F31EDFBB432BFC33BF7614340374
:1010C000C50953949292420B46F7A0F8D858CE64C3
:1010D0008D779316E4BB721FD9E4CEC3190000507C
:1010E000A3FC4E2ECADA4F7DD1D73C0B0000309CBA
:1010F000E6DD8752BFA92BC8DC4237A7A717FBF64E
:10110000A6D898271C81094371C254DD8BBC4EEBD5
:10111000A6F9709475656AD425FF0DBF50DEFC05F5
:10112000390300006A53584F9B3AD2609D280080D3
:101130007A65CB968D3AFA4CA38E63BEE34CD61DEE
:101140001103FBF76FE7084C1C8A13A66CEFAA3952
:1011500074F9C4118EB2CEB574050ADC72840AB972
:1011600014E70C0000A889BE4F3660282600803A9C
:101170005964CF4EFDBE5B49CDBBE966769D10F349
:10118000E8012D1DD78F230014274C5A727232CDDF
:101190001FD58D12E2E33993758E2EC52930F808DC
:1011A000B996AAC0190000500B473D9F9C70C6C954
:1011B000090000D5B1B2B651E64BD4FDB203677455
:1011C0006345C0208A79789F230014274C5ED4D5CC
:1011D000CBB479D6788E74239F4341F2DFF42B95FC
:1011E000FEE043CE0000801AE8FB6443619C9C0053
:1011F000005095DCF9EC69DCDA9FA952BD269CD140
:101200008DE30776D16FDBD77104A0407102887639
:101210002EF98EAE9EFB9323DD1053D97D56ECA59F
:10122000AA0D9B7306000064E7E8AA9F4D1D69ECB8
:101230000A3A524EDBBC1C010080CCEC1D8B50C026
:10124000C6DFC8AB5275CEE8466CCC535AE2DB9B86
:101250002380FF87E20410252526D2BC115D2831AA
:10126000F5575D12AB85462EDCA6AC1A020000B91C
:101270008963BB0E858B72A43F983B010020BF227F
:10128000EE2569E2F7C7C8D953F7ED78AB270EA36F
:101290004777A23802F87F284EC05F222E9FA5EF25
:1012A000E70571A43BD9CCCD9455439FEA70780EE5
:1012B0000000E89E6331FD9E9A48236E780100404D
:1012C0005E9E15AB53C0A64394BF5011CEE8CED955
:1012D0002307E8E7CDCB3802F8071427E06F5BE778
:1012E0004FA49BA11738D2AD4E3ED3E8EBE1139546
:1012F00015440000201F7DAF114D53A438866202B3
:1013000000C8AA52DD26347EDD41B2B5B3E78CEECB
:10131000C4C7C6D282D13D282525853300FF80E28F
:1013200004FC2D312181E60EEF444989499CD1AD61
:101330002FFB8CA65E13179399B9396700004016EE
:10134000866AB7702CAEDF75A500009039621BC7A6
:10135000A8253B94D66C7D58F7DD18BA17799D23E4
:1013600080FF407102FEE9EAD913F4C3B2191CE907
:101370005EC3B6DD68F09C4D646169C919000090D8
:1013800081A39B614E4EB87894E62B000090C5A7D0
:101390005D0753FF69ABC8DC223B6774EBD289C39E
:1013A000B477F55C8E00DE08C509F8AF8D337C2973
:1013B000EA461847BAE7DDA485B2C9C33A576ECEEC
:1013C000000080B1157633CC898602458A91A555F7
:1013D0000E8E0000C09844CB75FB5153A8D3D8E9BA
:1013E0009CD1BD84F8785A30AA3B2527277306E0A4
:1013F0008D509C80FF4A887F490B46764DFD00D179
:101400005F3F5839EFFA347EFD41B2B577E00C000A
:10141000001853E1628639392106253B1A68BE055A
:101420000000BC9D68B5EE3B65397DDE730467F452
:1014300063F3CC711475F53247006F85E204BCD9B3
:10144000A5E38768DF9A791CE9877BD92A14B4F968
:1014500090B2431900008C47148A73DAE6E148FF22
:10146000B0B10300C0B8C4FAE8918B7750BD56FA0A
:101470005DF97FF5DC9FB473E9348E00DE09C509A0
:1014800078BBB55347D3DDC81B1CE98738463C6998
:10149000EBEFB85105003022430DC34C83CF7C00E5
:1014A00000E3C995271FF9ADFE89AAD46FCA19FDBB
:1014B000484C4CA47923BA5052EAAF00E980E204C8
:1014C000BCDDCBD8E7B4684C0F8EF4C7DED18902FF
:1014D00036FD461EE5AB710600000CC9D1C59DAFB7
:1014E0000CC3D0C5100000F88B38B11CB0F91095B2
:1014F000A8E2CD19FDF97E5E10455C3ECB11C07BA4
:10150000A13801EF76E6F04F7460E3528EF4C7D64F
:101510002E3F8D5BF73395ABD59033000060288E5E
:10152000C53CF8CA309C8AE3E4040080A139B9794B
:1015300051D0962354D453FF5B936E865EA0EFE7A1
:101540004FE208205D509C80F75B3D69383DBC73DD
:101550009B23FDB1CE998BC6AED843353E69C919E0
:1015600000003004436DEA4823FEF7C42036000033
:10157000300C71423930F83039142ECA19FD4949FE
:101580004AA679233AD3AB8478CE00A40B8A13F011
:101590007EB1314F68F1D85E1CE997D8AD3C74F646
:1015A000266AD8A61B67000040DF0A19B8ADC3D26F
:1015B000CA8A1C9C5C380200007DAA50A7318D5F4E
:1015C0001FA29C5436849D4BA753F8993F3802487C
:1015D000371427207D4EFCBC8B0EED58CF917E89B1
:1015E0003573BD272FD1FB5A230000F86BC7BD937D
:1015F00011567B3A7BE8FF58310080A9ABFD593B7F
:101600001AB36C17E5B0B1E18C7EDD8908A78D3384
:10161000FD3802C810142720FD964D1840318F1E4A
:1016200070A47FED474DA10EA3A62A37CE0000A0DF
:101630001F62385AF61C3938321C0CC50400D0AF72
:10164000665D06D1A099EB9493C986326F44574AE0
:1016500078F98223800C417102D2EFD9E387B4C4B8
:10166000B70F4786F159CF61D47BD212F42603001D
:10167000E889A18761A6C13A510000FD102FF6DA72
:101680000D0BA2CEBE333863187BD7CCA78BC77F98
:10169000E30820C3509C808C39BA27987EDFB79D21
:1016A00023C368D0A62B0D9DBB992C2C2D3903008C
:1016B00000BAE26884960E011B3B0000744FBCD058
:1016C000EB3D7929B5E83B863386713F3A92D67D6A
:1016D0003B8A23804C417102326E896F6F7AFEE43F
:1016E00031478651FDE32FC967F91ECA9133176749
:1016F000000040170A1BA9388193130000BA6565E2
:101700006D43C3176CA506ADBB70C670168CEC4656
:101710002F9E3FE3082053509C808C7B72FF0EADC0
:101720000C1AC291E194ABD980C6AFFDD960938603
:1017300001004C81A3AB71DA3A72DAE6A17C051C98
:1017400039020080ACB0C99D877C57EFA36A1F7D2A
:10175000C619C309D9BA8ACE1CDACF1140A6A1385E
:10176000019913B265259DFE6D1F4786E351A11AAD
:10177000F96FF85519E00600005957D84833270487
:101780009C9E0000C83ABB424E14B8E53095AC525E
:101790008B3386F3F8FE5D5AE13F8823802C41713C
:1017A00002326FC1981E14176BF8E35BCE9EA5281A
:1017B00068D361722C66D8BDFC00005A636E61412B
:1017C000058A16E7C8F09C509C0000C81271FA2DDB
:1017D00070F36172F12CC319C35A3CB617C5C63CED
:1017E000E108204B509C80CC7B107593D64D31CEB8
:1017F000E01B0767179AB8F518B996AAC019000038
:10180000C828072717B2B0B0E0C8F08AB8619D2891
:10181000004066152F5785266E394A059D8B71C687
:10182000B08EEE0EA6E3FB0D3B281F340DC509C894
:101830009A7D6B17D0F9FFFDCA916189D913FE9B80
:101840007EA552D5EA7006000032A2B09B175F1940
:1018500087934729BE0200808C285FEB239AB03E15
:10186000C468B3D8621E3DA425E3FA7204A013280D
:101870004E40D6A4A4A4D0C2D1DD29FEC50BCE18FB
:10188000964D2E5B1ABBF247AAD2A0196700002022
:10189000BD1C8D386F427072356E710400408D6AC8
:1018A000366B433E2B7693B511B7D8AD0818483147
:1018B0000FEF7304A013284E40D6455F0FA30DD33E
:1018C000C772647856D6D6347CE136AAF3C5379C05
:1018D000010080F4707431EEEC1E7B4727B2CE9588
:1018E0009B230000789FA69D06D0A0591BC8DC2230
:1018F0003B670CEFC4C11FE8B7EDEB3802D01914F9
:1019000027403776AF9845A1A7FFC791E1899EE9A7
:1019100081D3D7281FD80000903E4EEEC69FF960B5
:10192000ECD6120000B5683BC49FBA8C9B45666636
:10193000D9386378B1314F69914F2F8E00740AC541
:1019400009D08DE4A4249A3FB22BBD7A95C019E347
:10195000101FD86D068DE7080000DEA56051E36F0B
:101960003D2A521C1B3B0000DEC5CCDC9C7A4F5A42
:1019700042ADFAFB72C678564F1A4E8FEE44710490
:10198000A053284E80EE44865EA02DB30338329ECD
:10199000D603C751B7F173285B36E3559501006450
:1019A00097DDD24AD9D6616C38390100F076965667
:1019B0003968E8DC606AD8B61B678CE7EC919FE970
:1019C000E74D4B3902D039142740B7B62F9A42D78A
:1019D0002F9DE1C8789A74EC4703A6AF210B4B4BBF
:1019E000CE0000C0EB0A157337EAD1E03445DCB114
:1019F000B10300E04D6C72E721DF95FBA8FAC75FE9
:101A000070C678E2636369C1E8EECA307C003D418C
:101A10007102742BF1D52B9A3FA20B25252671C696
:101A200078EA7CFE350D5FF03D5959DB7006000009
:101A3000D2187B18669AC26E9E7C05000069F2156A
:101A400070A4804DBF51A9EA72ACCC5F37CD87EE50
:101A5000455EE708402F509C00DDBB76FEA47282F5
:101A6000420655EA3725DFD5FB94CA330000FC4D0A
:101A70009C9C9081939B27995B58700400008EA9D1
:101A80009FCF419B0F53B192E538635C974F1CA1E8
:101A9000BDABE67004A037284E807E6C991340B72A
:101AA000AF5DE1C8B84A56A945FE9B7EA53CF90B3F
:101AB000700600001C8B79F09571897578059C5D26
:101AC000390200306D6E652A51D0D6A354D0C58D31
:101AD00033C695101F4FF34775A3E4E464CE00E8C6
:101AE0000D8A13A01F09F12F69EEF0CEA91F6472B1
:101AF000F4A5B9962C4F415B8E528122C538030064
:101B000060DA0A49529C10B0B1030080A86CCD067F
:101B100034614308E5B173E08CF16D9E359EA2AE51
:101B20005EE60840AF509C00FDB972F218ED5935E1
:101B30009B23E37374294E819B0F5351AF329C0159
:101B400000305DE2D8B02CB0B103004C9DF727AD5A
:101B5000C877E55EB2C965CB19E3BB7AEE4FDAB957
:101B6000E43B8E00F40EC509D0AFF553C7D0DDC8F5
:101B70001B1C199FBDA3134D58FF0B7954F88033DC
:101B80000000A647AC11B52FE4CC91F11571C7C97F
:101B90000900305D1F77E84B43666F54DADC6491CF
:101BA000989848F34776A5A4D45F010C04C509D0E2
:101BB000AFF81771A91F6C5D389283AD9D3D8D5FA5
:101BC0007790CAD56AC8190000D322CB1AD13485C0
:101BD0005D717202004C53EBC113A8FB84B994CD24
:101BE0005CAEE7B2ADF327D28D4B673802300814F4
:101BF0002740FFCE1F0BA1031B977224871C36368C
:101C00003476C51EAAF1494BCE0000980E59D688ED
:101C1000A6C1C90900303566E6E6D4236001B519CE
:101C2000E0C71979DC0CBD40DBE64DE408C060502C
:101C30009C00C3583571283D8C8EE2480EE2E8DCEA
:101C4000D0D99BA8619B6E9C0100300DB2AC114DA8
:101C5000932B6F3E6C540200936161694983E76C7A
:101C6000A2C6DFF4E28C3C52929269FE882EF42ADE
:101C7000219E33000683E2041846DCB3185A34B6BA
:101C80002747F21047E87A4F5E429FF71CC11900C0
:101C900000ED2BECEAC957F270722BC1570000DA45
:101CA00065933B0FF9AEDC47DE4D5A70462E3B97ED
:101CB0004EA7B033C73902302873FE1540FFA2AFDC
:101CC00087297BF55D4A94E38C713CBE7787FEFCE7
:101CD000F9073AFCC346DAB36A0EED59399BAE5F99
:101CE0003845B1318F2925458ED5A70000FAF46912
:101CF000D7A154C059AED5CAA1A77EA76BE7FFE410
:101D00000800409B5C4A96A357092F29FCEC09BAAE
:101D10001B718D5EBE784E5639729295B50DFF27B8
:101D20008CE74E44384DEFDF8692125F7106C0A0FB
:101D3000E4198605A6C1D62E3FCDFAE992F2AB2171
:101D4000890FDB5FB7ADA5637B822932EC22670187
:101D5000004CD3A2639194BF50118EE4B06BD94C68
:101D60005A193898230000D352C8A5387956AA4189
:101D700095EB36A54AF53F31CA4A51DF361FD2C529
:101D8000E3BF71046070284E80E1D5FAB42D0D9E3A
:101D9000BD8123FD3A7F3484B62FFE964EFFB60FE9
:101DA000A72200005259E6B0A60D97E23892C7C9A3
:101DB00090BD14D4E5138E00004C9758F7FCC1C7B2
:101DC0005FD2C7EDFB50C92AB538AB5F7BD7CCA734
:101DD000A57E7D3902300A1427C038462ED949D550
:101DE0001A7ECA91EE45865EA495414394A20400F2
:101DF00000FCCDA544599ABEF72C47F2B81B798355
:101E0000FAD471E5080000843235EAD137232693ED
:101E100047856A9CD1BDFBD19134B851697AF1FCF8
:101E20001967008C020331C13896F8F6A6B8E7317D
:101E30001CE94E52621205CF09A061CD2AA03001E3
:101E400000F00685245B239AC6C1C9852CAD72704B
:101E50000400008258C93FFACBEAB4645C3F8A8F21
:101E60008DE5AC6E2D18D90D850990018A13601C83
:101E70008FEE44D1EA89C339D28DC7F7EF926FDB79
:101E80003AB471BA1F25BEC2201F00803791B53801
:101E90006166968D0ABB797104000069446BF28F0C
:101EA000ABE7D1F0E695E9F6B52B9CD58D90ADABBF
:101EB000E8CCA1FD1C0118158A13603C07362EA141
:101EC000F3C77EE1286B2242CFD3A82FAAD1953F3A
:101ED0008F72060000DE44C635A2699C8A639D2885
:101EE00000C0DB445DBB42233FFF4099A9A60BE243
:101EF000C5DE0AFF411C01181D8A13603CA20ABC02
:101F0000704C778A7FF182339973FDD2191ADFAE54
:101F10003E3D88BAC9190000781B594F4E08284E1B
:101F20000000BC5BDCB3A734B15B339D1428168F73
:101F3000ED45B1314F3802303A1427C0B8A26F8452
:101F4000D3A6197E1C659C38DA36FEAB7A14F3F002
:101F50003E670000E05D0AB94A5C9C704371020074
:101F6000E07DE25FC4D1945E5F5064D825CE64DC2E
:101F7000D1BD5BE8F8FEED1C014801C50930BE5D2E
:101F8000CB67D0D5737F72947E318F1ED2C4AECD15
:101F9000E8F9D3C79C01008077116B44F3172AC27C
:101FA000917C9C3C4AF2150000BC8B384131A95B06
:101FB000B34C0D987FF6F8112DF1EDC3118034501C
:101FC0009C00E34B4E4AA279233A5362622267D2C5
:101FD00067DE884ECAC90B0000481FC762F29E9A8E
:101FE000100A17F3A46CD9B0E61C00203DEEDEBC4D
:101FF00096A922C372FF0138750C32427102E410B7
:1020000071F91C6D5B3089A3F7DBBF7E119DF8F978
:10201000078E0000203D649E372158595B2B2B45CD
:102020000100207D7EDBBE8E8E1FD8C5D1FB9D3882
:10203000B85BF9BF0190108A13208FAD73832832EB
:10204000F422476FF7F4D17D5A337924470000908A
:102050005EB2172704AC130500C8989501832821A8
:102060003E9EA3B7132D208B7C7A7204201D14276B
:10207000401EAF12E269FEA8AE949C9CC299375BE9
:102080003FD547E9B3938999197E9600407E32AFD8
:10209000114D53C41D732700003242B477EC5FBF6B
:1020A00090A3B75B15348C1EDD89E208403A78A016
:1020B00002B9849EFA9DF6AC9ACDD17FDD8F8EA4B5
:1020C0005FB6AEE4481ED9CCCCA8ED107FF44A032D
:1020D00080D4D4707202EB44014056058BBAF1955E
:1020E0007CB62F9C42AF5EBEE4E8BFCE1E3D483FAB
:1020F0006F5ACA118094509C00F96CF8CE87EE4656
:10210000DEE0E89F7E583A9D125FBDE2481E498995
:1021100089E4EC518606CD5C4F1696969C0500909E
:102120008BCC6B44D314467102002454BC6C651AEA
:10213000387D2D47F2797C2F9A42BE5FC5D13FC5CD
:10214000C7C6D28251DD2825E5DDA793018C0CC5D9
:102150000990CFCBB8585A34A607477F7BF52A8120
:102160007EF97E3547F239F5EB5EAAD5BC2D8D5E42
:10217000FA03E5C8998BB3000072907D8D689A626E
:102180005EE5F80A00400EE56A35A4F11B42E8E17D
:102190003DB95B22F6AD5DC057FFB47EFA58BA1761
:1021A000799D230069A13801723A73F8270A09FE64
:1021B00067FBC69F07F7D0F3278F3892CFE943FB21
:1021C000945F2BD4FE8826A47E81D9DA3B28310087
:1021D000800C645F239A2657DE7C521F9D0600D335
:1021E000E2DDB4358D5DB1876C72E6A61B174F73C7
:1021F000564E372E9DA1B0D3C739FACBE5134769A8
:10220000CFCAB7B74C034804C50990D78AC0C1F4F8
:10221000F8FE5D8E88FEFC79275FC9E941D44DBA8E
:10222000197A41B9762F5B85266D3D4A059C5D95EF
:102230001800C0D8D4306F228D5B994A7C050060AD
:102240003C9F74EC4F43666D20738BEC4A2C7B7182
:102250004238B4E3EF35A16283C75FC3E693390325
:1022600020351427405EB1314F68A95F1F8E88CE9C
:102270001E39C057F23A73683F5FFDF52010147C99
:10228000845C4AE0883200189F9A8A13AEA52AF22D
:10229000150080718841E75DC7CFA66CE67F3F2FB0
:1022A0005D574171E2D8DE2DFFBFF92E78F6048A22
:1022B000BA7A59B90650011427406EBFFFF83D1D88
:1022C000DDBB951E4647D183DB919C95D7C95FF650
:1022D000F0D55FEC0A3A5260F0212AFDC1879C01DB
:1022E00000300E35AC114D2306CF0100188399B98B
:1022F00039F59EB4845AF5F7E5CC5F621E3D50C5B2
:102300001ACE47776FD3D5B37FD0D5737FD28EC522
:1023100053390BA00A284E80FC968DEB4717FFF827
:102320008D23B95DFEE330C5BF78C1D15F6C72D932
:10233000D2D855FBA8FAC75F720600C0F0D4D5D634
:1023400081E20400189E181C3C746E30356CDB8DE5
:10235000337F13F31CD4E28F9F772ADB39C43639DD
:102360000015417102E4F7E4FE1D5AEAD79723B93C
:1023700025C4BFA473C70E72F4374B2B2B1A96FAE1
:1023800065F7D157FFDD42020060086A58239AC6FC
:10239000D62E3FD9152CCC110080FED9E4CE43BEF9
:1023A000ABC5CBA42F38F34F6A98379166FBC2298F
:1023B000AA684101F8171427401D9E3F7DCC57F2B3
:1023C0003BFF86E284207A167B4D5C44AD078EE3AA
:1023D0000C008061A8658DE8EB8A7A95E52B0000FA
:1023E000FD12C550D1865BAA6A6DCEFCD7F54BEACB
:1023F00079D8C78909502914270074EDE2F177B71D
:10240000A0B419349EBAF9CF537A1A01000C412DA9
:102410006B445FE782E204001880A3AB07058A01E2
:10242000E6EFF9CC51D3C909009542710240D7AE0D
:102430005F384571B1CF387AB326EDFBD0E0399BD8
:10244000C8C2D292330000FAA3A67913695CBCB06B
:10245000E90800F4AB78B92A3471CB512AE85C8CD6
:10246000336F26567262EB0580DEA13801A06BC97E
:10247000494914FAE7518EDECEBB490BF25DB94FE4
:10248000E9710400D0273516278A9642710200F4BC
:10249000A77CAD8F68C2FA1065C6CDFB44869E4707
:1024A000AB0480FEA13801A00FE77FFF85AFDEAD52
:1024B0004C8DBAE4BFE117CAEB5088330000BAE78D
:1024C00054BC045FA947518F52646E61C1110080F2
:1024D000EED46CD6867C56EC26EB9CB938F36E684D
:1024E000E9003008142700F4E17D73275EE75ABA4B
:1024F000024D0C3EA2CA9E70005007C7A2EAFB7CA8
:1025000031B7C8AECA131F0020B7A69D06D0A05988
:102510001B94CF98F4C2E60B0083407102401FAEBB
:102520009E3B41F12F5E70F47E055DDC2868EB5127
:10253000722B5389330000BA5350A5C54F359EF80E
:1025400000003965CB968DBE1A12405DC6CD223390
:10255000B36C9C4D9F1B2ADAD401A062284E00E880
:10256000436242025D39758CA3F4C963E7401336B8
:10257000FE42E56A35E40C0040D6E5B0C949F6856F
:102580000A73A42ECE1EA5F80A0020F3C486B4DE7A
:10259000939650CBFE633993311197CFF21500E833
:1025A000118A1300FA72F98F437C957E363973D302
:1025B000D8157BC8BB696BCE0000648D9A5B239CE9
:1025C0005C71720200B2C63287350D9DB7851AB4B0
:1025D000E9CA998CB91B718DE29EC57004007A849A
:1025E000E20480BE5C4EC7C68E37113D9043666DD7
:1025F000A04F3AF6E70C0040E61552F13C9B229EB4
:1026000038390100992736A2F9AEDE47D51B7FCEB7
:10261000998CBB8E960E0043417102405FC4DC89E9
:10262000CCCA666E465DC7CF567A23458F240040DC
:1026300066B996ACC057EA53C40D2727002073EC47
:102640000A16A6C0E04354AA6A6DCE640E36750021
:10265000180C8A1300FAF2FCC9238A8EB8CA51E614
:1026600088DE48D123297A25010032C3BD6235BEF8
:10267000521FAB9C39C9AE9013470000E9E3E8EA6A
:102680004181C147C8C5AB2C67320F9B3A000C068D
:10269000C509007DBA9685D31369448FA4E895B423
:1026A000B2B6E10C0040FA889357EE65D55B9C10FA
:1026B0001CB14E140032A078B92A3471CB512AE8EB
:1026C0005C8C335923F3A60EF1198F1758A02128DB
:1026D0004E00E8D3D5B3592F4E08A25752F44C8A76
:1026E000DE490080F42AECEA49B9F2E4E5489DD4D9
:1026F0003C3303000CAB7CED4614B0FE17B2B5CBF7
:10270000CF99AC79F6F8113DB81DC9917CDAA2FDDC
:1027100017B405C509D006333339FF2C879D39CE50
:10272000575957B24A2D0ADC7218479C0120DD3CEC
:102730002A7CC057EA55D0D98DAF0000DEAED6A7AF
:102740006DC967F90F4A3B98AEC83C0CF38BDEA30A
:10275000A874F50F292931913300AA87E204A89BB8
:1027600038BA376EED4FD4E7DBE59C91CBF58BA7FC
:1027700028252999A3AC73F12C4313B71E252737BD
:102780002FCE0000BC5DB152EA1D8699C6D1CD9313
:10279000AF0000DEAC69E7813478F60665E3992E78
:1027A000C93A0CB36E8B8EF4CD884974E5E431CE12
:1027B0000068028A13A06EA5AAD5A172351B52BD6E
:1027C000D40FE9AA0D9B73561E2F9E3FA35B572F74
:1027D00073A41B0E858B5260F061F228AFEE3E723F
:1027E00000D03F9792E5F94ABD1C8BA2AD0300DEF5
:1027F0004CB434B41B16445DFC667246B7222E9D61
:10280000E12B797855AA41BD262D56AEC375784285
:10281000174002284E80BA859EFA9DAF887A4E5C9A
:10282000ACB31E435DBA7A5E3773275E27FE39C7A5
:10283000AF0FA18A1F7ECC190080FF52F31AD1344A
:10284000059C5DF90A00E06F621064EFC94BA94571
:10285000DF319CD13DD93675D83B16A1E10BB7517C
:10286000F6EC964A8C9313A031284E80BA5DBF7067
:102870008A12B9D72E9F4341EA1EB840B99689F80B
:10288000FF511F72D8D8D0E8A53BA9CE17DF70063C
:1028900000E06FE22636773E3B8ED42BA76D9ED4A8
:1028A000BFD43DD41300744B6C301BBE602B356815
:1028B000DD8533BA97101F4FB7C22F72647C62BE9A
:1028C0009A685D11F7BBC2C33BB7E9D19D28E51AF1
:1028D0004023509C00754B78F9E21F2B9EBC9BB4A3
:1028E000A45ACDBFE2480E91A117F84AF7446FE50C
:1028F000C0E96BE8D3AE83390300F097A29E65F878
:102900004AFD1C9C5CF80A004C9DD85C2636985504
:10291000FBE833CEE8C7CDD073520D9BFCA4D300A7
:1029200065387A9A2BA7706A023407C50950BFB080
:1029300053FFE3ABBF741B3F97EC0A16E6C8F822BF
:102940000D5075EF34763A75183515EBA400E0FF9D
:1029500039152FC157EA87E2040008626399D85CF1
:10296000F6FA43BABEE8EBE46B6638BA7A50BB615C
:102970001339FACB55CC9B00ED417102D42FF4F4FE
:10298000DF732704718CB9E7A4251C199F387217CF
:102990001BF39423FDF9ACE730EA3B7505995B58CE
:1029A0007006004C99968A13058A14E32B00305563
:1029B000855D3D69E2E623CAE63243B876FE245FD0
:1029C000199778F1D4F7DBE564656DCD99BFE0E444
:1029D0000468108A13A07E61A7FF797242A852EFA3
:1029E000136AD8B63B47C6278E061A82D85A326A6F
:1029F000F14EA51713004C5B610D1527F2E3E404BB
:102A00008049732F5F9582B61C210767C37D16C866
:102A1000B246B471FB3EFF392992949844D7CEFD5B
:102A2000C9118066A03801EA177D3D8C621E3DE425
:102A3000E86F1DC74E93E66D9B3EE74EFC5BA57AA3
:102A40004D68DCDA9F29773E7BCE0080292A5CCC5A
:102A500093AFD44F0CF70400D354BE7623F25F1724
:102A600062D08D6C2949C974438235A2625B51875B
:102A7000115338FADBCD2BE728FE451C47009A811D
:102A8000E20468C39BF63CDBE4CC4D7DBF5D21C511
:102A90001C865B61869DF6EC55A93A056C3A44F9B3
:102AA0000B3B7306004C89650E6BB22BE8C891FA9C
:102AB000D917447102C014D5FAB42DF92CFF81AC9A
:102AC00072E6E48C61DCBA7A5919BA6E4C4A3BC79B
:102AD00094E56FFC677F7D953E8086A03801DA1013
:102AE000FA96BEBB3235EA52D3CE0339329E9BA151
:102AF000E7F9CA709C3D4AD2C42DC7C8D9B3346720
:102B000000C054147476E52B6DB02FE8C4570060F4
:102B10002AC4FD9B589D29369319DAF58BC61F866A
:102B200029DA39C47DEC9B849DF96F4B338006A074
:102B30003801DA10FA86B91369C4746327372F8E07
:102B40008C23D2C02727D2D83B3A51E0A643E45584
:102B5000D99B3300600A1C343640D2CE519E0D4CB6
:102B600000A05FE2C440BB6141D4C56F26670CEF93
:102B7000DA05E30EC37C5B3B471A9C9C008D4271D7
:102B800002B441B4752427A770F44F62BA71BF69CB
:102B9000ABC8CCDC9C3386F7E4FE1D8A8F8DE5C87C
:102BA000B072E5CD47E3D61CA02A0D9A710600B499
:102BB0004E6BDB2DC49BD3BCF90B7204005A25EE7F
:102BC000D5FA4C59462DFA8EE18C71187318A62847
:102BD000CEF40C5AF4D65696E74F9FD0ED6B57388B
:102BE00002D0141427401B62639E50D43B3EA83D84
:102BF0002B7C405FF41EC591713CB87F9BAF0C4F9E
:102C00001468462DDA41F55B75E60C006859FEC282
:102C100045F94A3BF215D0CE0C0D00F82FB1696C86
:102C2000F8C26D52DCAB18738D688336DDA842EDB7
:102C30008F38FAAFF073C72925E5CD2FE400540E85
:102C4000C509D08EF0F71C716B35C08F5C4B55E019
:102C5000C8F01E4747F1957164333753F6647FD14E
:102C60006B24670040ABEC1CB4D70691D7A1105F72
:102C70000180D6E4B4CD4B7EABF753B5869F72C6C8
:102C800078EEDEBCAEBCF43286FC4E45956D73EF3B
:102C900012760AF32640B3509C00ED083DFDEEE2AB
:102CA00044F6EC96D4F7BB95646169C919C3BA13AD
:102CB00011CE57C6F5CDC8C9D4D96FA6726C100015
:102CC000B4294F01ED3DC8E7B12FC05700A02562E0
:102CD000557040F0212A51A526678CEBBA915A3ADB
:102CE000C47D59EF494B956D73EF827913A061282C
:102CF0004E807684BD6328661AD792E5A9F5807167
:102D00001C19D6ADAB97F8CAF89A751E480367AE82
:102D1000335AA10600F4CBAE204E4E0080FCC4C056
:102D2000F2A02D47C8C5B30C678CEFBA918661BE7F
:102D3000AF9D234D7AEE7701540AC509D08E882BBA
:102D4000E7E8655C1C476FF779CF91E459B13A47E2
:102D50008663CCE14A6F52BBF957347AD92ECA91B7
:102D600033176700402BB4383CD2369F035F018095
:102D7000167894AF4681C187C941B21939C6582324
:102D80006A57C8893A8C9ECAD1DB45DD08A3678F94
:102D90001F7204A039284E807624272551F8B93FA8
:102DA000387A3B730B73EAFFDD4AB2CC61CD19C3AD
:102DB000B87AEE04A524257324870AB51AD1840DA8
:102DC00021646B8F9B7E00AD1047836DEDF273A481
:102DD0001D790BE2E404805654A8D398C6AF4FBDCA
:102DE000FF90F0B3EAFA05C317277A4E5C4C396DB1
:102DF000F370F476574F1FE72B004D427102B42554
:102E00003C9D47DD0ABB79D1D7232671641871CF69
:102E100062E89A11AAF1EFE35EB60A056E39A2B92B
:102E2000D58300A62A679E7C7CA52D79F263E604F3
:102E30008016D4FEAC1D8D1127376D6C38238FC7DB
:102E4000F7EFD2A3BB86DDAE56AF6527AA52EF13CC
:102E50008EDEEDCAA9637C05A049284E80B6646465
:102E600048D0271D0750991AF538328C73C70EF2D7
:102E7000955C9C8A7950D096A3E452A21C670040CE
:102E8000AD72E7B5E32B6DC995479BFF5C00A6A427
:102E90005997413468E63A32B7C8CE19B9445C3222
:102EA0006C0BAE68E7E8EC3B93A3F70B3F839313FF
:102EB000A069284E80B664644890995936EA336513
:102EC00039D9E4B6E58CFE9D3CB89BAFE46357D09E
:102ED0009102830F51A96A753803006AA4D587F857
:102EE0009CB6DA3C1102600A44BB9938B1DAD97752
:102EF0000667E474EDBC618761A6B79D4378F5F27F
:102F0000A574F3CB00740CC509D0167114EFC19DE4
:102F10005B1CBD5F41E762D471CCBBF749EBD2A526
:102F20001387E9E9A3FB1CC9C726972DF9ADDA473A
:102F3000D53FFE923300A036D6062CB81A526E9CAE
:102F40009C005025337373EA3365197DD97B146770
:102F5000E465C8791375BEF826DDED1CC2B5D4FF53
:102F6000DF125FBDE2084093509C00ED09FD336322
:102F7000FD780DDB76A3CAF59B72A45F6268E7D18A
:102F80005D9B389253F61C3968D8DCE0D47F2FDD86
:102F90003903006A92C3469B1B7872E5CD4766668B
:102FA000B86F0150132B6B1B1ABE701BD56FD599D0
:102FB0003372BB6EA0B60EB11AB98BEF2C8ED2074E
:102FC000F326C004E04B1EB42733FD783D8316532F
:102FD000EE7CF61CE957C8F7ABF84A5ED9CCCDA811
:102FE000F7A4C5D46A801F6700402DB4BC1E58AB3F
:102FF000C33E01B428A76D5EF25BBD9FAA35FC9469
:1030000033728B8B7D46776E8473A45F3D8316A6E7
:10301000DE7766EC3458465A9701540AC509D09EAB
:10302000CC5496ED0B15A6AEE3E770A45F57CF9E88
:10303000A0F0732738925BDBC113A89BFF3CE548E7
:103040002600A843764B2BBED21EEB9CB9F90A0092
:103050006466EF588402820F51892A3539233F3143
:10306000CF2125258523FDA9F3F9D754EDA3CF382A
:103070004A3F1427C004A03801DA238619252626E2
:1030800072947EB59B7F45DE9FB4E248BFF6AC9854
:10309000CD57F26BD2BE0F0D9EB3912C2C2D390360
:1030A0000032D3F203FCAB8478BE02005939152FED
:1030B00041415B8E908B6719CEA8434636BE65961C
:1030C000D2CEE197F17BC0C7F7EED0FDA8088E0005
:1030D000340BC509D09E84972F28E2D2198E32A6D0
:1030E0007BC07CE58B43DF0EEFDA4077236F7024E3
:1030F0003FEF262DC977C58F64933B7D13A5010053
:10310000F4E1C5F318BE0200197954F88002371FA4
:103110002287C24539A31E87B6AFE32BFDE93A618A
:103120006E86DB3984B0333835012601C509D0A657
:10313000D04C1E7DB3B5CB4F3D272EE2487F921277
:1031400013E9FB79411CA94319EF7AE4BFE117CADF
:103150009BBF20670040469639ACF94A5B52929279
:10316000E9655C2C4700209B8A1F7E4C13D687287C
:10317000F7526AB36FED02BA91C9175BE9254EE7C2
:103180007A3769C151C618E254078004509C006D1B
:103190000ACDC244E36A0D9B53BD969D38D29F90E1
:1031A000AD2B2932FC3247EAE05ABA02056E3942A9
:1031B0008EC5DC390300B2D1EACC89589C9A0090C4
:1031C00096588B397AE94EB2B2565F71F4ECD183DE
:1031D000B43C601047FA616BEFA09CCECD2C142755
:1031E000C044A03801DA147E3AE31B3B5ED7D9779E
:1031F00026E577D2EF9144717A6255E0608ED4C3B0
:10320000D1A538056D3D4A6E652A71060040FF5E06
:10321000C43CE52B0090C9A75D07D3C0E96BC8DCAF
:10322000223B67D4E3E42F3FD2E46E9F5262420216
:1032300067F4431426327BA2449C1ABBAA9241EA4B
:10324000005984E20468D3EDEBA1F4ECF1238E3253
:103250002EA76D1EEA3D692965CB968D33FA71EA7A
:10326000D71FE9E8DEAD1CA9471E3B079AB02184B1
:10327000CAD66CC0190090457272325F694B5C1CF3
:103280004E4E00C844DC23B51F35853A8D9DCE19BE
:103290007539F2C3269AD2F3338A7F11C719FDF824
:1032A000AB9DA32547197733FC02BD8C7DCE1180E1
:1032B000A6A13801DA95D5954B156A7F440DDA74CD
:1032C000E3487F968DEB97A5428AB1D8E4B225DF1B
:1032D000957BC9BB696BCE00800C9E3EB8CB57DA9C
:1032E000F2F4E17DBE020063132BC6FB4E594E9FE4
:1032F000F71CC11975D9B56C06CD18F095DE4F4C89
:10330000E4CE674FDD02E671943968E9001382E28A
:10331000046857E8E9AC7F9877183D95EC0A397155
:10332000A41F4FEEDFA1257E7D385217718473C82C
:10333000AC0DF449C7FE9C0100637B78E7165F691A
:10334000CBF3A7EA2BE202689195B50D8D5CBC83A7
:10335000EAB5D2FF7C2E7DD8B6700AAD0C1C42298E
:1033600029299CD19FAEE3662BA74DB322AB2FDB5F
:10337000005404C509D02E5D7C988BF68EAC0C30C1
:103380004A2F71B470FF7AFD6F09D1876CE666D45D
:1033900075FC6C6A3BC49F3300604C8FEEDEE62BFD
:1033A0006D79FEF8215F0180B1E4CA938FFC56FF6E
:1033B0004455EA37E58CBA88C2C4DA29A338D2AFBB
:1033C0006A1F7D46B53F6BC751E6859ECCFC907762
:1033D0000095417102B44B579566B1BDA3D6A76D58
:1033E00039D29F15FE8328ECEC1F1CA94FABFEBE03
:1033F000D467F252E5A8270018CF63AD16279EE0E8
:10340000E4048031D93B16A180CD87A844156FCE46
:10341000A88B210B13396DF35237FFACBFDC8A8BBD
:103420007D465157D5B5D90D200B509C00ED8A8DA6
:1034300079A2B3559D5DC7CFD1FBDEEE84F89734FA
:10344000A5FB67F440C547B21BB4E94A43E76D21C9
:10345000CB1CEA5B2506A0154F1EDCA557AFF4DB9D
:10346000476D0CCF9EE0E40480B138152FA16CEAC3
:103470002AEA599A33EA62C8C284D079EC0CB22F96
:103480005498A3CC13DBE7B43AE418E00D509C0049
:103490006D0B3FA39BD313A230D1C56F1647FAF330
:1034A000F85E3405756A42318FD47B135EBDF1E757
:1034B000E4BB7A1FD9E4CEC3190030B44777B477A0
:1034C0007A42CCE70100C3F3A8F001056E3E440E3A
:1034D0008ECE9C5197BDABE61AB43051BE76239D7B
:1034E000CDE3C0BC093031284E80B6E972C2B1E8E4
:1034F0001BAC54EF138EF4E7E695F334B16B538AAB
:103500007BAEDEB579A5AAD6A6C02D87F53E4C14B4
:1035100000DE4C8BAD1DD8D6016078153FFC982697
:10352000AC0FD1FBE9517DD9B776212D9B3080239B
:10353000FDB3CE959B7A4F59CA51D6859EC2BC0920
:103540003029284E80B685E978FD528FC005942336
:10355000672E8EF44754CAFDDB37A2E74F1E734631
:103560007D5C3CCBD0C4CD47A8B0AB276700C05032
:103570001EDED5DEC68E4777A3F80A000CA1CE1753
:10358000DFD0E8A53BC9CA5A9DAD9AA23021B6A1A9
:1035900019622B479AAF474CD6E90993B033C7F964
:1035A0000AC024A03801DA7633F43CBD8C8BE328C2
:1035B000EB1C0A17A5B6830338D22F51A018DBBA2B
:1035C00016DDBF7D9333EAE3E0EC42415B8E90472A
:1035D000F96A9C0100437818ADBDE244CC239C9C61
:1035E0000030944FBB0EA681D3D7282BC3D5C81863
:1035F0008589D2D5EB5293F6BA5B0D7F37E21A3D3F
:103600007D708F23009380E204685B5262225DBB71
:10361000F02747BAD1ACD300722F5F9523FD8A0CF7
:10362000BB48A3BFA84E11A1E739A33EE228E8F8A2
:10363000F52154A14E63CE0080BE3D888AE02B6DFB
:10364000484CFD2CC74D3A80FE65CB968D3A8C9A3E
:103650004A9DC64EE78CFA18A33061656D437D26FE
:103660002FE14837706A024C108A13A07DBA9C3B48
:1036700021643337A3DE939692B9850567F44B0C2A
:10368000C91CDBB2165D3E719433EA93C3C686C68D
:103690002CDB45753EFF9A3300A04F7723AFF195A1
:1036A00036A03001A07FE2BEA6EFD415F459CF6159
:1036B0009C511F63142684AF8606512117778E74A0
:1036C00023F4B46EEF5F015400C509D03E7D4C3A3F
:1036D0002E56B21C35EF6EB82FEFB8674FC9BFC377
:1036E0004774F2971F39A33EE268E8C0196B95A3AF
:1036F000A200A05FF76EDDE02B6D78782792AF0017
:10370000401FC49BFF118B7750BD161D39A33EC6C9
:103710002A4C7856ACAE9CAAD5355DBF5C035001EF
:10372000142740FB424FEA67D2719B01E3C8B1986E
:103730006EABE4EF12FF228EA6F4FC8C0EEFDCC819
:103740001975124745DB8F9AA21C1D0500FDB87B39
:10375000535B27271E44A33801A02FB9F2DAD1B852
:103760003507A88A013692E98BB10A13D92DADA885
:10377000FF772B9553B5BAF4EA5502DDB8789A2352
:10378000009381E20468DFA3BBB7E961B4EEA7BC94
:1037900067CF91837A4D5C62D087ECC484049A35FC
:1037A000F86BDABB663E67D4E9F39E2394A3A38645
:1037B0006A8D013035A298F9E4A1765A211E44A9F8
:1037C00077303080CCEC1D8B50E0A643E455B90631
:1037D00067D4E7D08EF5B4745C5F831726845603F4
:1037E000FCA8B09B1747BA73FDC2297A9510CF1178
:1037F00080C94071024CC395D3FA393D51A6465D4C
:103800006AD8B63B4786919C9C4C4BFDFA52F01C03
:10381000C36C0DD1177174541C211547490140F731
:10382000EE455EE72BF57B74477BDB47008CAD886C
:103830007B499AF8FD3172F62CC519F5118589D9A5
:10384000433B28F7468656BC6C65FABCE7488E7445
:103850004B1F2DC9002A80E2049886F053FAFB9092
:10386000EFE0F31DD91572E2C870364EF7A3E5FEFE
:10387000833852277184541C25CD9DCF9E3300A0E0
:103880002B5A6AED50F34A650019893909019B0EDC
:1038900051FE424538A33EFF5F98484AE28CE1580A
:1038A00064CF4EBDA72C23730B73CEE816E64D8074
:1038B000894271024C833E271EDBE4CC4D3D8316CA
:1038C000716458BB57CCA239433B5252A2E1BF9816
:1038D00075451C25153748E2682900E8CE7D0D0D99
:1038E000C57C781B33270074A552DD26347EDD416C
:1038F000B2B553EF8B01631626842FFB8C21D79230
:10390000E539D23D9C9C001385E2049886ABE7FE26
:10391000D4EB037C95FA4D8DB626F397EF57D3B7CA
:10392000BDBEA0F8172F38A33ECE1E2569D2D6DF24
:10393000537F55EFD15200D9DCB97995AFD44F6B95
:10394000AB51018CA5EE971D68D412D15269CD19E7
:10395000F5317661A2A85719FAB2EF188E74EFE923
:10396000A3FB9A1B6A0C904E284E80694878F98216
:103970006E5CD2EFD4E3CEBE33C9D6DE8123C33A28
:10398000F1F32E0AEADC84E29EC770467DEC1D9DB1
:103990002870F361F2AAECCD1900C88A3B37C2F94E
:1039A0004ADDE2629F51CCA3071C0140667DDA6DBF
:1039B00008F59FB64A59EDAD56C62E4C98999B53C3
:1039C000BFA92B297B764BCEE81E4E4D8009437153
:1039D000024C47F899E37CA51FB676F9A9FB8479D8
:1039E0001C19DE85FFFD4A13BE69A8EA9BF85C79C5
:1039F000F32933282AD76FCA1900C8ACDBD743F99B
:103A00004ADDEEDED0CE09100063105BC53A8C9A19
:103A10004A9D7CA671469D8C5D98103EED3A4419F6
:103A200084A94F983701260CC509301D574EEA6707
:103A300063C7EBBC9BB6A29ACDDA706478E167FEEF
:103A4000A071EDEAE96575AAA188A3A62317EDA0E8
:103A5000FAAD3A73060032E3F1BD687A11FB9C239C
:103A6000F5424B0740E68995DD6275F7673D877142
:103A7000469D8EEEDD6AF4C284939B17B51DA2FFAE
:103A80004D69383901260CC509301D86FAB0EFEEB4
:103A90003F9FF23A14E2C8F06E5E394FE3DAD5A5E3
:103AA000E808F5BE6D14D3AFFB7EBB9CBEE8A59FB6
:103AB000155D00A622FA7A185FA9D7DD0814270041
:103AC0003243ACEA162BBBC5EA6E353B7E6017CDA0
:103AD0001AD4CEA88509333333EA3D6529595A599A
:103AE00071463F929353F47ED2174062284E80E98C
:103AF00088BE1146CF1E3FE2487F72E7B353D64BD4
:103B0000896394C6127D239CC67D55976E865EE0C0
:103B10008C3A7D337232751A3BC3A8FF2E01D42C28
:103B2000FA86FA5B3BEEDCD4C6EC0C0043CA95D7B0
:103B30004E6993142BBBD54C1426A6F56D49890903
:103B4000099C318E261DFB53C92AB538D29FA8F097
:103B50004B14F74CBDF3C300B208C509301D292929
:103B6000291466A06AB4B81968FC4D6F8E8CE361A5
:103B7000F42DA5C523ECEC1F9C51A74FBB0EA281D1
:103B800033D69285A5FE864F0168D5AD6B57F84AAE
:103B9000BDA234F0CF0060486235F75F03A66B70BA
:103BA000469D64294C147076A5AF870671A45FA169
:103BB000A7F4DF820C20311427C0B4849D36DC903A
:103BC000A14E63A6197D3566CCC3FBE4FFCD4774D7
:103BD000FE7FBF72469D6A7FD68E462FDB45396CCD
:103BE00072720600D2E3AE063676DC46710220DD44
:103BF000C47DC75FABB94B72469D64294C88939BCB
:103C00007D272F23AB9C86B9FF30D44B340049A1CC
:103C10003801A6C5901390B3E7C84183666DA0EC48
:103C200096FAED4F7C9FB8674F6962E74FE844C84A
:103C30001ECEA853855A8D68FC8610A3AD6B055027
:103C400023B53FD8C7C63C55067B02C0FB7955AAB1
:103C500041019B0E29ABB9D54C96C284D0A04D37FB
:103C60002AE35D8F23FDC3A60E3071284E80693193
:103C7000F490A16225CB51BB6186390AF82EF12F51
:103C8000E2686AAF2FE8C8EECD9C51278F725529A4
:103C900070CB112A50A4186700E05DD4BE4E14A763
:103CA0002600D2A752BD4F68DCDA9F95B9576A76D5
:103CB000F6C8CFD21426F21776A68E630DB77E35DE
:103CC0003E369622C3D43D2B0C208B509C00D3F261
:103CD000FCE9638ABA66D89BF5665D8750E9EA75A8
:103CE00039321EF1453F73603BFA79D332CEA89347
:103CF00053310F0A0C3E422E25CA720600DE2636CC
:103D0000E6093DBE7F9723F589BA7699AF00E06D4D
:103D1000EAB6E8482317EF505671ABD9F9A321341E
:103D2000B97B73290A1342F7C0856493333747FA86
:103D3000276684197323098004509C00D363C8B993
:103D40001382995936EA3F6D15D9E4CEC319E311B0
:103D50005F7A0B4677A71F56CCE28C3AD9172A4CCC
:103D600081C187A954B53A9C0180B7890ABBC8575D
:103D7000EA732BFC125F01C09B34EF3E94FA7FB7CD
:103D8000922C2C2C38A34EA23031B15B33E5A4A782
:103D90000C44C1C7D09B4E420D7C7F0A20211427C2
:103DA000C0F418A39FCFA17051EA366E0E47C62506
:103DB000B696ACF01F445BE61ABFDD242B6C72D9BB
:103DC00092DFAA7DF441E32F3803006F127955BDCD
:103DD0000FF837AF9CE32B00789D18D4D8D1671A21
:103DE000751CF31D67D44BB6C2445E8742D4C967C5
:103DF0003A47861376FA7F7C0560B2509C00D36305
:103E0000AC0FFF0F5BB4A7F2B51B71647C1BA68DD2
:103E1000A5B5534671A44E62E8E8F0795BA8619BB2
:103E20006E9C01807F137BF3D52A02C50980FFB009
:103E3000C89E9DFA7DB7929A771BC219F592AD3054
:103E400021740F586094D91D284E00A038012628EF
:103E5000E2F2D9D42FC1171C1956F780F96469957D
:103E60008323E3DBB6700A2DF6EDC3913A65333751
:103E7000A3DE939750AB017E9C0180D7DD0A576784
:103E80005B47DCF3187A107593230010ACAC6D68B7
:103E9000E4A21D54F7CB0E9C512F190B13E265477A
:103EA000F5C69F736438F76FDFC46622001427C01D
:103EB00014252526D2B50B7F7264588E2EC5E9CB0A
:103EC000BE633892C3BEB50B68D690F6949294CC7C
:103ED00019756A3B7802751B3F87CCCCCD3903003E
:103EE00042D455750E95BC79F93C5F0180903B9F9B
:103EF000BDB291A352BD269C51AFB0D3C76972CF5A
:103F0000CFA42A4C8855AC3D02E773645858210A67
:103F1000A04071024CD39593C7F8CAF03EEF35929A
:103F20000ABB7A722487DFB6ADA5EFFAB5A2A4C4A6
:103F3000579C51A7261DFBD1E0391BC9C2D2923331
:103F400000F0E8EE6D8A8D79CA917ADC0C454B075A
:103F5000401A7BC72214B0E950EA037475CEA897C3
:103F6000284CF87768442F9E3FE38CF1E5C95F80C9
:103F700086CDDF4AE616D939635868E90050A03883
:103F800001A629FCCC71BE32BCECD92DA9BD84039D
:103F9000AC7EFFF17B9AD4ADB9D15A5E74C5BB49F2
:103FA0004BF259B1578AED2800B250E3D68BEB178C
:103FB0004FF315806973F6284593B6FE9EFA6B4958
:103FC000CEA8575A6122EE993C05533333331A3049
:103FD0007D2DD91574E48CE1E1E4048002C509303B
:103FE0004DC63C3921546BF82995AC569B23799CDE
:103FF000FAF5470AEAF289D2EBAD66E5BCEBD38469
:10400000F52194377F41CE0098B628156EECB8762E
:10401000DE38ED77003211AD06E2C484BDA313672C
:10402000D44BC6C284F059CF1154A1F6471C195E77
:104030006262225D3F7F9223009386E20498A64746
:1040400077A2E861741447C6D161F4546515986C81
:104050002EFCFE0BF9B76F44318F1E72469DDCCAF1
:1040600054A4C02D47C8B1983B67004CD7CD5075BC
:10407000CD6F484A4CA29B97D1D601A6AD52BD4FF9
:10408000941913C6D81CA16BB216265C4B55A0AF71
:1040900086F873641C372E9DA684F8971C0198340B
:1040A0001427C0745D396DDC23749E153EA01A4D33
:1040B0005A722417D1FB38FEEB7AF4E4E13DCEA826
:1040C0009318402A0A14AEA52B7206C034A9ED41FC
:1040D000FFD6D58BB859079356AF65271AB978071D
:1040E00059595B7346BDC2CEFE21656122BBA51541
:1040F000F59FB1C6687326D2849DC2BC090086E2D2
:104100000498AE7009860FB51E3441E97594514488
:10411000EAC3CCD896358D7EC224ABF2DA1720FFE5
:104120008DBF50D99A0D3803607A2255B64EF4DA15
:1041300059B47480E9FAACC770EA37750559585814
:104140007046BD2242CFD3C42E4DA52B4C085FF63E
:10415000194D2E9E6538329E5023BF2C0390088A3D
:104160001360BA424F1977EE8420865BD5F8A41508
:1041700047F289BE114EA35B54A7E888AB9C512738
:104180009B5CB6E4BB722F794BFCEF1A409F442B2B
:104190009B9A36765CBF846198607A44AB67A7B11E
:1041A000D3A9C3E86F39A36EA23031BE5D7D8A7991
:1041B000789F33F228E25E92BEE8339A23E3C2A6E8
:1041C0000E80FF87E20498AE6BE74F2A7DCDC6F6DE
:1041D00045AF5152CE9E48F330FA168D6D554BB90E
:1041E000C95033716C73C8EC8DF47187BE9C01307B
:1041F0002D1157CEF295FC6E5EC1BC09302D6205C3
:1042000076FFA9ABE8D3AE8339A36E32172684EECE
:10421000FEF395ED69C626E67B455F0FE308C0E433
:10422000A13801A62BFE451CDDB8748623E3712D51
:104230005D81AA7EF41947727A72FF8E729321060D
:104240005AA959367333EA3E612EB535F2F02B0088
:1042500063B815A69ED60E35AE3E05C82C2B6B1B3B
:104260001AB968077DD8A23D67D44DF6C284384597
:1042700059A6465D8E8CCB98ABED012484E2049860
:10428000B6F033721CA5FBACFB70BE9297B8C91098
:1042900003AD2EFEFE1B67D4AB557F5FEA3D690977
:1042A00099999B730640FB6E5E51C7E927D17EF258
:1042B000F85E344700DA666B979FC6AF3F4895EAD1
:1042C0007ECC197593BD306199C39A3A8C9ACA9184
:1042D000F161DE04C03FA03801A62DF4941C5F0AF2
:1042E00025AA7853F17255389297186815D8A50900
:1042F0009D3EBC9F33EAD5B06D371A3A3758B95155
:104300000130056A59271A197A81AF00B42D7F61EF
:1043100067F2DF7448D9DEA505B2172684C6DFF43C
:10432000260767178E8C0FF32600FE01C509306D36
:10433000327D2934ED3C90AFE426DA612675FD9498
:104340007EDFB79D33EA55FDE32FC877F53EB2C94E
:104350009D873300DA1519A68E87FE5B2ADB2C02B7
:104360009019CE9EA569E29663E4EC5E8233EAA6DC
:1043700086C284F8AEFFB2F7188EE480E204C03F34
:10438000A03801A6EDF6F5507AFEE43147C655ABEC
:10439000591BCA9BBF2047724B4C48A0697D5BD21A
:1043A000A11DEB39A35EA5AAD6A6C0E0436457B011
:1043B000306700B4493C343CBE7F972379A9A58877
:1043C0000290595E95BD2970D321B27774E28CBA00
:1043D000A9A13021889740B676F61C195F64F8656C
:1043E0008A8D79C21100A44271024C5B4A4A0A8547
:1043F0009F95631891D826D1E8EB5E1CC92F392907
:1044000089660DFE86F6AD5DC819F572F12A4B136B
:10441000838F5261574FCE006853940A8662A2ADD3
:1044200003B4AC72FDA6346ECD01CA95371F67D4B4
:104430004D2D85891C3973D1271D0770240759E636
:104440009E014804C5090059E64E08F55B77213303
:1044500033F5FC5C8AE2CE12BF3EB47D91FA77B2AE
:104460008B1ED4A02D47C8BD7C55CE00684F449804
:10447000FC732722D1D6011A55AF6527652B879586
:10448000B536661DA9A5302134FEBAB754A7260457
:10449000B47400FC078A1300327D3938142E4A6543
:1044A000BD1B70A40EA240B166F248DA38DD8F332E
:1044B000EA25A6A6FBAF0BA10A751A7306405B6E30
:1044C0005E3EC75772129B3A1EDD89E208403B3EB2
:1044D000EB319CFA4D5D41E616DAD812A5A6C284EE
:1044E000B9850535E9D49F2379C8F4720C401228A8
:1044F0004E00844A56B96ED0A62B5FA94BF09C00A3
:104500005A11309823F5B2CA9993C62CDB45B53FB2
:104510006BC71900ED907DD8245A3A406BB265CB39
:10452000469DC64EA70EA3D57FC2308D9A0A13C2F0
:10453000078DBF240747678EE4F0322E8E6E5E91A2
:10454000BB580C6004284E003C7FF288A2AE8572F6
:10455000647CD51A7F41B9F2DA71A42E3F2C9F49B1
:104560000B46F7A094A464CEA89398FF3168E63A6E
:104570006AD665106700B4E1E615B9DB3AA2AE5E13
:10458000E22B00F5B3B0B4A4FE5357D1A75DD55FBD
:10459000B84FA3B6C284F0E1971DF84A1ED72EFC8F
:1045A000494989891C010043710240083F25CFE930
:1045B00089ECD92DC9FB93561CA9CF818D4B68F688
:1045C000B00EA95FBAAF38A35E9D7D6750FB515313
:1045D00094375F005A10F7EC29DD8F8EE4483E983F
:1045E00037015A61656DA3CC97F8B0457BCEA89F83
:1045F0001A0B1366E6E654AA5A6D8EE481960E8075
:104600003742710240083D23D79744CDA66DF84A42
:104610009D7EDBBE8EA6F66E49AF5E257046BD3E22
:10462000EF3982FA4E59AEDCE0006881CC1B3B6E5C
:10463000A9609B08C0FBD8DA3BD084F52154A9EED1
:10464000C79C513F35162604D7D215C926972D474A
:10465000F2083F23C7A63800C9A0380120C8363168
:10466000B954F5BA6457B03047EAF4C7819D14D401
:10467000A909C5BF78C119F5AAD7AA138D5CB25391
:10468000791306A0761197E4ED73C6C90950BBFCF7
:104690004E452968F321F2A8508D33EAA7D6C2848B
:1046A00050E683BA7C25972B278FF11500BC06C5F1
:1046B0000900E1C6A533523D449B9965A39ACDD428
:1046C0007D7A423877F4204DF8A601C53D8FE18C04
:1046D0007A55A9F709EFA657E73C108034B7AEC961
:1046E00039D7212EF6193D88BAC91180FA14F52A56
:1046F0004313838F5261372FCEA85FD8E9E334AEDE
:104700006D5D55162604F1B247360FA3A3B0950888
:10471000E0CD509C0010C450A2EB174E7224871AB3
:104720004DD43B77E275E2EDC0B8AFEA51CCA307B8
:104730009C512FAFCA352870D321B2772CC21900F3
:10474000F591B575022D1DA06625AAD4A400E5FB40
:10475000C18933EA270A13FE1D1AD1B3C70F39A343
:104760002EB2CE9BB8721AF32600DE02C509803441
:1047700057FE94EB889D47C5EA94D7A11047EA7687
:10478000EDFC491AD7AE9EF2B640ED9C3D4BD1A44C
:10479000ADBF93B34729CE00A88BACEB44519C002E
:1047A000B5AAD2A019F9ADFE8972E5C9CB19F54BAE
:1047B0002B4C8821BA6AE55AAA829CF326246B25E1
:1047C0000690088A130069C2CECAF565215A3BAA31
:1047D000366CCE91FA891586E3DAD5A5FB91119C4A
:1047E000512FF1664CBC21F3AA54833300EA11F730
:1047F0002C46CA8D1D3743E55E730AF026F55B75BE
:10480000A6518B769095B53567D44F0B8509C1B30A
:10481000A29CDFD1A1383901F036284E00A4917155
:10482000AD53B58F3EE72B6D88BE114E3E6D6AD1FC
:104830009D8870CEA857EE7C76346EEDCF54B97E4D
:1048400053CE00A8878C1B3B707202D4E68B5E238C
:10485000A9EFB7CB299BB976EEA7B55298104A5469
:10486000AEC957F2484A4CA26BE7FEE40800FE05C9
:10487000C50980340FA36FD1C33BB7399243D95ACE
:104880000DC83A576E8EB441FC7B1EDDC25B99FEAB
:10489000AD76E24D99D8635FAF6527CE00A843A4FB
:1048A0008485006CEA00B5C8962D1B751A3B83BE43
:1048B00019399933DA70F9C411CD1426042F094F30
:1048C0004E445C3E4BF12FE23802807F417102E0A2
:1048D00075574EC93577227B764B2AEBDD8023ED69
:1048E0001053BFFD5AD751DED0A89DB98539F59B2D
:1048F000BA823EEB319C3300F293AD85223E369670
:104900001EDE96AFD504E0DF2C2C2D69C0F435F403
:1049100069D7419CD186F34743345598C857C09115
:104920001C9C5D3892876CABEB012483E204C0EBE6
:10493000AE9E91EF61B952DD267CA52DCF9F3E56EC
:104940006E84CE1FFB8533EAD661F4B7CA9B34F17F
:10495000460D4076B2B550445EBB442929291C015E
:10496000C8C9CADA86462FD949753EFF9A33DA207C
:104970000A1313BB35D3D41B7D59674261DE04C0D3
:104980003BA13801F03AD94E4E08153EFC98AFB421
:1049900047BCA199D8B5299DFCE547CEA89B789343
:1049A00026DEA889376B0032936D634764E805BE45
:1049B000029093ADBD034D581F4215EA34E68C3684
:1049C0009C0CD9ABB9C28420369EC908272700DECB
:1049D00009C50980D78921456258914C1C0A17A541
:1049E00022EE2539D21E714334A5E767F4FB8FDB35
:1049F00038A36EE28D9A78B396C326276700E42326
:104A0000DBC60E14274066F99D8A52D0E643E45176
:104A1000A11A67B4E1F8815D34A5D7E79A9C81E0DB
:104A20005EA60A5FC9E3F9D32774FBDA158E00E0AE
:104A30000D509C00789DF882BE79E51C47F2D0DAD3
:104A40009B9A7F4B4C48A069FD5AD1A11DEB39A31D
:104A50006EE2F76BFC8610E54D1B80AC64DAD82162
:104A6000DB490E803445BDCAD0C4E0A354D8CD8BF9
:104A700033DA200A13D3FAB654BE7FB546B457BA18
:104A800095ABCC913CC2CF1D47FB1AC0BBA13801EE
:104A9000F06F32AE142D5B33E343315B0DF0239B9B
:104AA000DC7938925F725212CD1AFC0DED5BBB902F
:104AB00033EAE651AE2A056E3E4C0E4EF20DE4028C
:104AC0001064DAD881931320A312556A52C0A6430A
:104AD00064EFE8C4196D38BC73A32A0B1366E6E6CD
:104AE0007CF56E858AB9934D2E5B8EE471E524E6E4
:104AF0004D00BC078A1300FF167646BE7EC0521FCB
:104B00007C48E616161CBD9FF8026FD1CF87C6AE53
:104B1000FC5119E0A516E28DC212BF3EB47DF154DE
:104B2000CEA89B939B27056D394A2E25CA72064055
:104B30001EB26CEC109B3AEE474570042087AA0D1C
:104B40009B93DFEA9F28579EBC9CD106714271D689
:104B5000906F545598C8699B97DA8FFE965C4B55B9
:104B6000E0CCBBB996AAC857720997F0E5178064E4
:104B7000509C00F837194F4ED8E4CC4DEEE5AA72A0
:104B8000F47E1616D99535A45E95AAD3A8A5BB5474
:104B900035A0511428D64C1A411B678CE38CBAD926
:104BA000172A4C81C187A964B5DA9C0190832C1B1C
:104BB0003BB0A9036453BF75171AB9701B59595BF1
:104BC00073461B7EDDBE96660FEDA09C54548B7A17
:104BD0002D3BD1BC5FAE2A058AABE7FEE4ECBBB946
:104BE00095A9C45772099370231C8064509C00F8E7
:104BF0003731AC480C2D924D59EFF4B77624C4BF31
:104C0000A4F0732794EB72DEF569E8BCE0741F87AB
:104C10009445F06C7F5A35711847EA268E97FAAEA4
:104C2000DC471F34FE823300C627CB9C07B4748058
:104C30004CBEEC339AFA4E5946D9CCB5758F2C5AE6
:104C400026E70C514F6142CC6C1ABD7C37F59BBAFC
:104C50008292539268EDE491FC77DEAF7859F9E6E1
:104C60004D44DD08A3678F1F7204006F81E204C00A
:104C7000BF8937786268916C4A7E90B137EF1BA785
:104C8000F9F21551B586CD69C0B4D5CA902835D989
:104C9000B9641A2D1ADB9B52929239A35EE20DDCA5
:104CA000F0795BA8619B6E9C01302EB1B1E3E19D70
:104CB000DB1C194FD4D5CB7C05603CE2FBB1B3DFE4
:104CC0004CFA7AF844CE68C7CEA5D3959649B59CE0
:104CD0005012F3B2C6AD394055EA7DA2C42B03870A
:104CE000D0F3A78F95EBF4702B2D5F71E2EA699CEE
:104CF0009A004807142700DE44C6A145252BD6CCD0
:104D0000D0E98753BFFE4807362EE588A8F667ED41
:104D1000A8BBFF7C8ED463FFBA85347B58074D1443
:104D200028C49BB8DE939750ABFE7F178E008C296A
:104D3000EAAAF14F4FC8D25E02A64BB43E0E9CB910
:104D40008E9A751EC819EDF87EC1645A1534543513
:104D500085093127CB67F96E2A56B29C129F3DF226
:104D600033FDB66DAD729D1E059C5D2957DE7C1C22
:104D7000C9E3CAA9637C0500EF80E204C09BC83880
:104D8000B4C82A674E722D9DB1214FAB260EA5FBEC
:104D9000D1911C1135FEA6177D33723247EAF1DB43
:104DA000F67534A5D7179494F88A33EAD676883FF7
:104DB000751B3F4775AD36A03D372568A990653016
:104DC0002798A61C363969F4B25D54BBF9579CD1BB
:104DD0008EB5DF8EA675A97FA98528120D9BB745D4
:104DE000D9922224C4C7D312DF3ECA757AB965F0BE
:104DF0003EC950C24ECB376C1D4042284E00BC8984
:104E0000AC438B4A56A9C557E9238E6D2F18F9CFAD
:104E100036822F7A8D547A6AD5E68F033B29A873A0
:104E2000538A7FF18233EAD6A4633F1A3C6B83AA8C
:104E3000869582F618BBA542FC3CDFBF7583230034
:104E4000C312730DC66F08A10AB51A71463B56040A
:104E50000CA66D0BD4F3324214EBFB4F5D4595EA83
:104E600035E10CD1F7F327D2EDEBA11CA58F5B192F
:104E7000F95A3A5EBD7C491197CE700400EF80E28A
:104E800004C09B88A1456278916C4A56CDF8C687CC
:104E90003387F6D34F1B9770F417D153FB71FB8CFC
:104EA000BD8D90C199C33F5160A78F29EE790C67E2
:104EB000D4CDBB692BF259BE47E9AF053006631765
:104EC00027C4FF7E72B2FA5BB6407D1C9C5C2870E2
:104ED000F361F2C8C0262C35484E4EA1C5BE7DE810
:104EE00087E53339A30EE23461ADE66D394AFD6CD6
:104EF000B8164ADB174EE128FD641C8679EDC229FD
:104F00004A7CA58D939F007A86E204C0DB844B78AF
:104F1000042FB3EB28C530A9BB91FF7C3BD9DD7FC3
:104F20001E7DF8457B8ED4E3E2F1DFC8BF7D238A86
:104F300079F48033EA56AE66039AB03E84F2E42FE9
:104F4000C01900C311DB898C29F20A5A3AC0F05CFF
:104F50004A94A5A0E023E4E4E6C9196D10B399E6EC
:104F60000C6D4FFBD62EE08C3A7C3534901A7FD3F3
:104F70009BA3BF2C1EDB8B5E25C473947E329E9C4C
:104F8000C0BC098074437102E06D424FCAF765925C
:104F9000C7CE819C8A97E028FD5EC63EA7F923BB59
:104FA00070F4B7FE535752B5469F73A41EA2777391
:104FB000FCD7F5E9F1FDBB9C5137B732152968CB19
:104FC000512AE4529C330086F1F85EB4514F2245D9
:104FD0004A3090134C4BC9AAB52860D321B27774DC
:104FE000E28C3688994CD307B4556634A9C9A7DD3D
:104FF0008650CB7E3E1CFD2564EB2A3A7F2C84A391
:10500000F4CB5FD8996CEDF273240FCC9B0048373A
:10501000142700DE462B7327D2882FFABD6BFEB90A
:10502000AD436C8F18366F3395AFF51167D423E21B
:10503000F239F26D5D8B1E46477146DD1C5D8A5369
:10504000D0D6A3191E7A0A905551E1C66BEDC01A4D
:105050005130A4AA0D9B93EFAAFD94D3565BAD7477
:10506000AF5E25D0D4DE2DE9E89E60CEA843FD5684
:105070009DA993CF348EFEF2ECF1235A3D69384757
:105080001953AC6405BE924BE869F986AC03480A33
:10509000C50980B7B971F1B432C44836996DED10C5
:1050A000D64E19F99FF60E738BEC3472F10EF2AAFC
:1050B000ECCD19F588BE114E635AD6A0E888AB9C9A
:1050C00051B7BCF605C87FE32F54A6463DCE00E895
:1050D0005FD435E3150822C38CBF2D044C43FDD6A5
:1050E0005D68E4C26D64656DCD196D104365833AEA
:1050F00035518646ABC9078DBFA03E93FE5E779EB5
:1051000066F5E4E114F3F03E4719E35A4ABEE2C4FF
:10511000E37B77E841D44D8E00E03D509C00789BC6
:10512000A4C444BA7AFE4F8EE4E151A9065F659C9F
:1051300068EF9837BC933230EB75E2666DECCABD10
:10514000AA7C6BFFE07624F9B6AE4D111A59476878
:1051500093CB96FC56EF23EF4F5A710640BF8C3528
:105160007742AC09BC7BF31A4700FA233654F59D0D
:10517000B24C392DA825A225CBBFC34774EEE84118
:10518000CEA84359EFFA3474EEA6FFFC7E5C3A7168
:1051900098428257709471454B96E72B79849D41D4
:1051A0004B074006A03801F02EA1A7E43B8AE75444
:1051B000CC234B3D9517FEF72BED59359BA3BFFD37
:1051C000F550BC3F53332D8C4DF4CD8F6F579FC29C
:1051D000CEFEC1197513A75986CCDE481F77E8CBE0
:1051E0001900FD31566B8538B1919C94C41180EE45
:1051F00065CB968D3AFBCD543654698D180AEDFF78
:10520000CD4774F9C411CEA88347850F94D39AE291
:105210007BEE756266C6A2313D2925E59F2F4F3290
:1052200042C6931332DE4702480CC5098077917558
:10523000889167C5EA7C9539EBA78EA13B11E11CEB
:10524000FD4D143DC6AD3940059C5D39A31EE218E5
:10525000A81A6FD4DE46BC51EA3E612EB51E3C81D1
:105260003300FA61ACE2C4AD300CC304FDB1B0B49C
:10527000A44133D753B3CE0339A31D6218B4180A1F
:105280002DEB6CACB771F62C4D6396FD40D639739F
:1052900071E66FDB164CA1C82C7C2658E7CAADCC52
:1052A0006E920D8A13001982E204C0BBC8BAFEC90F
:1052B000AB52D6E643C4BF88A3B923BAFCA7BD430B
:1052C0001013CCFDD6FC4476050B73463DE29E3DA3
:1052D00025FF0E8DE8F4A19F38A37E6D06F851AF2F
:1052E000498BC9CCDC9C3300BA151D114E49898607
:1052F0003FC1806198A02F39521F7E472FFD816AE0
:10530000356FCB19ED1043A0C5306831145A4D0AE2
:10531000142946BE2BF7BDF1E467D48D30DA3A2F5D
:1053200088A3CC2926614B8758ED7AF5DC098E00DD
:10533000201D509C00789787D1B7E8D1DD688EE4B6
:10534000E159216B2727844BC70FD1EE15B338FAEB
:1053500027F1F661ECEAD49B087B07CEA88728BC2E
:105360004CEAD68C8EFFB48333EAF751DBEE34740B
:105370006E30595AE5E00C80EE242624D0BDA87F7B
:105380000ECA3584488DCC8901B988EFAD091B421E
:10539000A8426DF56DA17A1F31FC794C2B6F651811
:1053A000B49A88DF13BFB507DEBABE75894F2F4A9E
:1053B00088CFDA007219377588595862D61700A459
:1053C0001B8A1300EF132AE1E909F70A1F90B98538
:1053D000054799B77EEAE8B70EC373F12C4363968D
:1053E000FE4036B9D5B7724D3C6C4DEDDD4275FBD4
:1053F000DEDFA5FAC75F286F9DD4F8FB01F2CBCAA8
:1054000071EACC32C6FF26689B783B1FB8E508B925
:1054100097ADC219ED100FBAE3BEAAABBACD0FE239
:105420003B4B9CC67C5BCB45C8D6553A19E829E373
:10543000BC8930AC1005C828142700DE275CC29E4A
:10544000CE1C3636E452A21C479927DE54CC19D61E
:1054500049397AF8261E15AAD1C845DBC9CADA86A9
:1054600033EA2106EDCD1ED29EF6AD5DC819F52BAF
:1054700055BD0E05061F5265CB0DC8EDCEF550BECD
:10548000320C31FCEE4D736F0032CBA544D9D4CF32
:10549000C723CAD068ADB97EE1B432F4599CE65452
:1054A0001371EF3066F90FE4FA96960B31D4735509
:1054B000D0508EB2C6A5948C9B3AD43513044002CA
:1054C000284E00BC8FACC38CB23A14338DF8E7DBA6
:1054D000B9743A47FF55A6465D1A322F58192EA6C1
:1054E0003662EAF762DFDEB46DE114CEA89F8BD797
:1054F0005F37E08EAEDABB0107E3B975F5125F19CD
:10550000C6AD6B579475CD00BA50B25AEDD4CFC525
:10551000C3645F487B85DBD0D3FF23BFAFEA2A4358
:105520009FD544DC33887B8792556A71E6BF560667
:105530000EA1678F1F729479E224A98B47198EE41C
:10554000117A52CEB9650012437102E07DC4302356
:10555000630C8B7B9FAC0EC57CDDC619BE6F6DEFF7
:1055600010AAD4FB84064E5FABDAA18C6BA78CA289
:10557000F5DFF970A47E059D8BD1C42D47C9BD7C94
:1055800055CE0064CDBB7EFEF501C3304157AA3530
:10559000FAFCAF96B75CB69CD18EB3470E2827268F
:1055A000C4B06735313333A37E53572AF70E6F7378
:1055B000FAF07EFA75DB1A8EB2A6B09B1765CF2182
:1055C000D74CA6B8D867F89C03C838142700DEE784
:1055D000655C2CDD0C936F709B2E8B13A2BD63D684
:1055E00090F6EF2CC278376D45BD272D51F6C6AB2E
:1055F000D1D6791369E9B8FE1CA99F9878EEBF2E21
:1056000084CAD76EC41980CCBB156EE09313A11762
:10561000F80A20F31AB4E94A23E66F252B6B6BCE08
:1056200068C7D1BD5B29A84B5365C8B3DA74193F6D
:10563000876A37FF8AA3FF8A8F8DA585A37A709426
:105640007532CE9B083FFD3F4A4E7E73CB2C00BC8B
:10565000158A1300E91126616B47C1A2AE94D7A148
:10566000104759177EE60FDABEE8DDED0FF55B75E2
:10567000A6CEE3DEBCE1430DF6AE9EFBCE191B6A5F
:1056800063953327F92C17EBF2DE7E1308901EE2A8
:1056900068F5B3C78F38D2BF481427208B5AF4F36C
:1056A000A13E9397523673EDDDCBFEBC6919CDE870
:1056B000DF4619EEAC365F0D09A026EDFB70F466EF
:1056C000EBBE1B43F7A32238CABA6225E42B4E84F3
:1056D0009EFA1F5F014006A03801901EB2CE9D28A1
:1056E000515977A72784E0D9FE74F33D0F0D4D3B48
:1056F000F6A7AF860672A43EBF6C5D45D306B451D3
:1057000006F26981B945761A3C6B3D35EB32883338
:1057100000991365C0B91391E1D8D40199234EEFD4
:105720007519378BDAA9F87BE85D762CFA8E168C22
:10573000EEAE0C75569B4FBB0EA696FDC772F46677
:10574000974F1C555E14E852F1B295F94A1ED8D411
:10575000019029284E00A447D869392BE0BA6CED96
:10576000105E25C4D3DCE19DDE3B63A3653F1FFAD9
:10577000BCE7088ED4E7D89E2D34B9FB6714FFE24E
:105780000567D4AFB3EF0CFA7AC424D5B6DD80F147
:10579000451968EE84F87C89BE11C61140FA89214A
:1057A0008B83676FA0A69D0670465BC46CA4D593DF
:1057B000872BC39CD5A65ECB4ED469ECDB876B0BE5
:1057C000AF5E25D0FC515D75DEEE50AC7445BE92E7
:1057D00007367500640A8A1300E921861AC5C6C80F
:1057E0003790CAAB724DBED29DAB674FD0B6859392
:1057F000397ABBF6A3A650E36F7A73A43E277FD90C
:105800004B419D9B50DCF318CEA8DF97BD4751DF7D
:1058100029CB553BB8148C2BCA407327EEDE0C57AE
:10582000E5717530AE1C3973D1E8A53F50CD666D7A
:1058300038A31DA2D570914F2F6536921A89A1A465
:105840007D272FE3E8EDC4E94C5D0F892C58D48DFA
:1058500072E5C9CB911CEE465CA3A70FEE71040064
:105860001980E204407A88B7186167E53B3DE1564C
:10587000B612595AE97E4275F0EC0974FDD2198EC0
:10588000DEAEFBF8B954E7F3AF39529F0BFFFB953F
:10589000FCDB375276AD6B45BD569D68E4E21DCA10
:1058A0007E79808CB87D3D94AFF4EB1626D8430604
:1058B000D9DA3BD0840D2154A1F6479CD10ED16298
:1058C0003863503BDABF7E1167D4A5AC777D1A32BE
:1058D00077D37B677F887B8A1D8BBEE548778A9765
:1058E00091AFA523F40CE64D0064128A1300E9156C
:1058F00026E170A3ECD92DC9B54C258E7427F1D5BE
:105900002B9A37AC1325262672E6CDC4CD48BFA905
:10591000ABA86AC3E69C511FD1B233FEEBFAF4E8A0
:105920006E3467D4AF4AFDA6E4B7FA27CA95D78E7E
:105930003300EF77CB4033276E8561DE04A45F81AF
:1059400022C52870CB11722F5B8533DA215A0B45A3
:105950008BE1911F3671465D3CCA57A3118BB72B63
:10596000F722EF22EE25947B8AD47B0B5DD3C73DD3
:105970005056C938441D4025509C00482F59876215
:1059800096AC528BAF74EBFAC5D3F4FDBC208EDE1F
:10599000CEDCC29C86CCDDACBC3D51AB88CBE7C82D
:1059A000AF6D1DBA1FA9BBE9E1C656A28A37056EC5
:1059B0003A44F68E453803F06EF722AF1B64502C44
:1059C00076FF437AB994284781C147C8A9980767E9
:1059D000B443B414FA77F84869315423678F5234CA
:1059E00066F96EB2C9999B336FB77DC164E59E427B
:1059F0001FDC249C37112AE99C32001540710220DB
:105A0000BDA41D8AA9E38D1DAFDB3A2F285DED1DD6
:105A10009656564A2B8147850F38A33ED137C2C9C7
:105A2000A74D2D8AD2D0A03E67CF5234F1FB6354EC
:105A3000C4BD246700DE2E2931916E5F0FE7487FD9
:105A4000B0A903D2A354B53A14187C88EC0B15E620
:105A50008C763CBC739BC6B6AA45974F1CE18CBAAA
:105A60003838B990EFAAFD646B979F336F27368063
:105A70006D99ABBFCD2AEEE5AAF1951CC4D0CF1B22
:105A80007A2AC4009800142700D2EBD9E387523E4B
:105A9000B896A85C536F1B1AC411CC3943DA2B5F3C
:105AA000B6EF639D33178D59B69B5C4A94E58CFA2B
:105AB0003C8CBE45635BD6A4882BE738A37EF90BEC
:105AC00015A1C0CD87C9AB520DCE00BC9D21367645
:105AD000DC36D0561050AF0F1A7F417EABF6914D99
