:020000040800F2
:10000000A807002091010008731A0008371400089F
:10001000711A000813050008F91B00080000000011
:10002000000000000000000000000000771A000837
:100030001505000800000000751A0008791A00086C
:10004000AB010008AB010008AB010008AB010008E0
:10005000AB010008AB010008AB010008AB010008D0
:10006000AB010008AB010008AB010008AB010008C0
:10007000AB010008AB010008AB010008AB010008B0
:10008000AB010008AB010008AB010008AB010008A0
:10009000AB010008AB010008AB010008AB01000890
:1000A000AB010008AB010008AB010008AB01000880
:1000B000AB010008AB010008AB010008AB01000870
:1000C000AB010008AB010008AB010008AB01000860
:1000D000AB010008AB010008AB010008AB01000850
:1000E000AB010008AB010008AB01000800F002F80A
:1000F00000F03FF80AA090E8000C82448344AAF183
:100100000107DA4501D100F034F8AFF2090EBAE880
:100110000F0013F0010F18BFFB1A43F0010318473B
:10012000CC1F0000EC1F0000103A24BF78C878C133
:10013000FAD8520724BF30C830C144BF04680C60ED
:10014000704700000023002400250026103A28BF35
:1001500078C1FBD8520728BF30C148BF0B60704739
:10016000642900F08580002070471FB51FBD10B5C1
:1001700010BD00F094F91146FFF7F7FF01F04EFDB6
:1001800000F0B2F903B4FFF7F2FF03BC00F0BAF9D4
:100190000948804709480047FEE7FEE7FEE7FEE71B
:1001A000FEE7FEE7FEE7FEE7FEE7FEE70448054957
:1001B000054A064B70470000DB1A0008ED000008F6
:1001C000A8010020A8070020A8030020A803002001
:1001D0000FB47CB50C0009AA009001D02044401E49
:1001E000084B7B4469460190089800F038F90546B1
:1001F0001CB10020694600F045F928467CBC5DF83A
:1002000014FB0000A90200002DE9F0410E4604464F
:10021000002020622046E168884730B3252805D0B9
:10022000D4E901219047206A401CF2E7E1682046AA
:1002300000278847050018D0A5F14100192802D8E9
:1002400020354FF400673246294620462760FFF7E5
:1002500087FF40B1012804D0F61D26F007060836B6
:10026000D8E7361DD6E72846DAE7206ABDE8F081F0
:100270002DE9F0410646002410687529314616A57F
:1002800010D0AFF30080002802DA404213A507E047
:1002900031688A0701D512A502E0490704D511A5E6
:1002A000012401E0AFF3008000210A2206F12407B7
:1002B00009E0B0FBF2FCB0FBF2F302FB1C003030B3
:1002C00078541846491C0028F3D123462A46304664
:1002D000BDE8F04100F064B8000000002D0000000F
:1002E0002B0000002000000010B5203AC0F00B8069
:1002F000B1E81850203AA0E81850B1E81850A0E82A
:100300001850BFF4F5AF5FEA027C24BFB1E8185083
:10031000A0E8185044BF18C918C0BDE810405FEAF3
:10032000827C24BF51F8043B40F8043B08BF70476F
:10033000D20728BF31F8023B48BF11F8012B28BF74
:1003400020F8023B48BF00F8012B70474FF0000235
:1003500000B5134694469646203922BFA0E80C50BB
:10036000A0E80C50B1F12001BFF4F7AF090728BF96
:10037000A0E80C5048BF0CC05DF804EB890028BF12
:1003800040F8042B08BF704748BF20F8022B11F03B
:10039000804F18BF00F8012B7047704770477047B7
:1003A0002DE9F0470D4699469246044600F124088F
:1003B0000168880604D5E06921F01001216000E0A1
:1003C0000120A84201DD471B00E00027A1697A193E
:1003D00002EB0900081AA0612078C00602D420466A
:1003E000AFF30080002608E0D4E901211AF80600E6
:1003F0009047206A401C761C20624E45F4DB207832
:10040000C0060AD52046AFF3008006E0D4E90121FA
:1004100030209047206A401C2062381EA7F1010757
:10042000F4DC07E0D4E9012118F805009047206AC0
:10043000401C2062281EA5F10105F3DC2046AFF325
:1004400000802078000602D50220BDE8F087012058
:10045000FBE7000001694A1C02610878704700B59B
:100460008FB0CDE901310021059105497944CDE9ED
:10047000031011466846FFF7C7FE0FB000BD00002D
:10048000E5FFFFFF0A6802F8010B0A607047D1E937
:1004900000239A4202D2531C0B60107070477546BD
:1004A00000F02CF8AE4605006946534620F00700E0
:1004B000854618B020B5FFF779FEBDE820404FF023
:1004C00000064FF000074FF000084FF0000B21F03E
:1004D0000701AC46ACE8C009ACE8C009ACE8C0090B
:1004E000ACE8C0098D46704710B50446AFF30080F4
:1004F0002046BDE81040FFF745BE000000487047A9
:100500004801002001491820ABBEFEE7260002008A
:100510007047FEE77047000070B5044600F0FEF833
:100520000546601C02D004480078044400F0F6F848
:10053000401BA042FAD370BD280000202DE9F84FDF
:10054000DFF8B891002409F1040A0AF1040B2346EC
:100550000F270BF1040EC9E00125A5402A40AA424D
:100560007DD1674ED1F804C0ACEB0608B44532D05B
:1005700014DCBCF1030F3AD009DCBCF1000F2AD027
:10058000BCF1010F1CD0BCF1020F31D11DE0BCF158
:10059000110F17D0BCF1120F2AD119E0B8F5881F3E
:1005A00019D006DCB8F5803F15D0B8F5801F1FD1F3
:1005B00011E0B8F5001F0ED0B8F5041F18D10AE0FD
:1005C000CB6815E0CB681B1D12E0CB6808330FE049
:1005D000CB680C330CE08B682BB1012B4FF0080378
:1005E00003D0456104E0042302E0056100E000233C
:1005F000FF2A01D8064601E000F104064FEA84050F
:1006000001D9A5F12005D6F8008007FA05FC28EAF3
:100610000C0803FA05F548EA0508C6F800804D689D
:10062000ED0062D5374DAE6946F00106AE61AD69A9
:1006300024F0030605F001050095334D06EB050C8B
:10064000DCF80850A607360F07FA06F825EA080571
:10065000DFF8B880404503D14FF0000817E044E0D0
:10066000DFF8AC80404502D14FF001080FE0DFF821
:10067000A480404502D14FF0020808E0DFF89880DE
:10068000404502D14FF0030801E04FF0040808FA9A
:1006900006F848EA0508CCF808804D68D9F80060EB
:1006A000ED034D4601D5164300E096432E604D689C
:1006B000DAF80060AD03554601D5164300E09643D5
:1006C0002E604D68DBF80060ED025D4601D51643F3
:1006D00000E096432E604D68DEF80060AD0275467E
:1006E00001D5164300E096432E60641C0D682A462F
:1006F000E5407FF431AFBDE8F88F00000004014011
:1007000000001110001002400000014000080140EC
:10071000000C0140001001400014014001488068B5
:10072000704700002800002070B5040025D094F820
:100730003D00002520B984F83C50204600F070FAB6
:10074000242084F83D002068016821F00101016047
:100750002068016841F4004101602068016821F4CB
:100760000041016000F0AAFB4D4A6168914201D846
:100770004C4900E04C49884201D2012070BD4B49F0
:100780002368B0FBF1F15E6826F03F060E435E6021
:100790006368934206D94FF4967359434FF47A73C2
:1007A000B1FBF3F12368491C1E6A26F03F06314372
:1007B00019626168914210D84900401EB0FBF1F205
:1007C000521CC2F30B02042A01D2042022E0B0FB27
:1007D000F1F0401CC0F30B001CE0A268F2B301EB87
:1007E000C10303EB0116431EB3FBF6F35B1C43F49A
:1007F00080431B0549D092B301EBC10202EB01110A
:10080000401EB0FBF1F0401CC0F30B0040F48040F0
:1008100040F400402168CA694CF6FF739A431043C4
:10082000C861D4E9071001432068026822F0C002C1
:1008300011430160D4E9030101432068826848F252
:10084000FF339A4311438160D4E9050108432168CD
:10085000CA6822F0FF021043C86001E00EE016E013
:100860002068016841F0010101602564202084F8BE
:100870003D00256384F83E50002070BD01EB410629
:10088000431EB3FBF6F35B1CB3E70120C2E701EBA9
:100890004101401EB0FBF1F0401CC0F30B00B7E774
:1008A000A086010080841E0000093D0040420F0028
:1008B0002DE9F84F0025DDF82890984617468A461E
:1008C00004460095FFF72AFF064694F83D002028CD
:1008D0007AD11923012283492046009600F0C8FEF0
:1008E0000028F5D194F83C0001286DD0012084F84F
:1008F0003C0020680168C90703D1016841F001018B
:1009000001602068016821F400610160222084F800
:100910003D00102084F83E0025646762A4F82A8018
:10092000608D20857048E06233464A465146204635
:1009300000F09AFD00287DD1208DDFF8B0812027BE
:1009400068B1012814D00228206801681ED041F443
:10095000806101602068416980690090B5E020688D
:10096000416981690091016841F400710160ACE066
:100970002068016821F48061016072B620684169D5
:1009800081690091016841F400710AE041F400615D
:10099000016072B62068416981690091016821F4A3
:1009A0008061016062B690E0032868D801280CD00D
:1009B00002284B464FF000024146204600960FD0D9
:1009C00000F056FEB0BB10E08AE0324649462046B1
:1009D00000F0CDFE70BB20680069616A08706BE0B2
:1009E00000F046FE30BB72B634E02068016821F4A6
:1009F0008061016072B620680069616A0870606A8F
:100A0000401C6062208D401E2085608D401E6085E8
:100A1000374846F2A8110068B0FBF1F0C0EBC00007
:100A200000EB80000090401E009008D020684069D4
:100A3000C04300E029E040070CD50098F3E744F8F4
:100A4000305F6773A573206940F02000206162B6B3
:100A500025731AE02068016841F400710160206884
:100A60000069616A0870606A401C6062218D491EDD
:100A70002185618D491E618562B621681AE0324682
:100A80004946204600F073FE10B10120BDE8F88F02
:100A900020680069616A0870606A401C6062218D8C
:100AA000491E2185618D491E618521684A69D243AD
:100AB00052070AD409690170606A401C6062208D87
:100AC000401E2085608D401E6085208D00287FF4AB
:100AD0006BAF84F83D7084F83E5084F83C50D5E705
:100AE0000220D3E7020010000000FFFF0400010015
:100AF000340000202DE9F84F1F4690468A460446F0
:100B0000DDF82890FFF70AFE054694F83D002028FE
:100B10007FD11923012240492046009500F0A8FD0D
:100B2000002876D194F83C00012872D0012084F886
:100B30003C0020680168C90703D1016841F0010148
:100B400001602068016821F400610160212084F8BF
:100B50003D00102084F83E0000262664C4F824805E
:100B60006785608D20852D48E0622B464A465146B8
:100B7000204600F0EFFC90B9206841698069009040
:100B800036E02A464946204600F024FE50B1206C4B
:100B9000042804D12068016841F40071016001203B
:100BA000BDE8F88F606A216800780861606A401CBF
:100BB0006062618D491E6185218D491E89B2218542
:100BC00022685369DB435B070BD451B10078106195
:100BD000606A401C6062608D401E6085208D401EF2
:100BE00020852A464946204600F01CFD0028CED12B
:100BF000208D0028C5D154F83D0B016841F40071E7
:100C00000160202004F81E09E67766770020C7E718
:100C1000FFE70220C4E70000020010000000FFFF11
:100C200010B586B0002100910191029103910068F6
:100C30000F4988421AD10F4CA06940F00800A0610A
:100C4000A069694600F008000490C02000901220BE
:100C50000190032003900848FFF770FCE06940F41E
:100C60000010E061E06900F40010049006B010BDCF
:100C70000054004000100240000C0140024881680E
:100C8000027811448160704728000020074810B5A1
:100C9000016841F010010160032000F067F80F20A7
:100CA00000F006F800F024F8002010BD00200240FB
:100CB00070B50D4D04464FF47A712878B1FBF0F011
:100CC0000A490968B1FBF0F000F0DEFA48B9102CCF
:100CD00007D200222146501E00F028F800206C6048
:100CE00070BD012070BD00002800002034000020ED
:100CF0000C4808B5816941F001018161816901F009
:100D000001010091C16941F08051C161C06900F0E9
:100D1000805000900448416821F0E06141F000718A
:100D2000416008BD0010024000000140F0B40E4BCD
:100D30001B680C46C3F30223C3F10705042D00D939
:100D40000425191D072901D2002300E0DB1E01261E
:100D500006FA05F1491E214099409E40761E164034
:100D60003143F0BC00F049BF0CED00E0064900F053
:100D7000070208684FF6FF03184040EA0220034AC2
:100D800010430860704700000CED00E00000FA0519
:100D90002DE9F0470F46050061D0434E306800F062
:100DA0000700B84209D2306820F0070038433060AD
:100DB000306800F00700B84251D128683B4C8107E9
:100DC00012D5400703D5606840F4E0606060287881
:100DD000000703D5606840F4605060606068A968EF
:100DE00020F0F000084360602878C00728D06868C9
:100DF000012810D02168022810D0890700292EDA96
:100E0000616821F0030101436160FFF787FC8046C0
:100E100041F288390DE021688903EFE78901EDE7A8
:100E2000FFF77CFCA0EB0801494502D90320BDE88F
:100E3000F0876068696800F00C00B0EB810FEFD1BB
:100E4000306800F00700B8420BD9306820F0070086
:100E500038433060306800F00700B84201D001200C
:100E6000E5E72878400705D56068E96820F4E06088
:100E7000084360602878000706D56068296920F477
:100E8000605040EAC100606000F038F86168084ACC
:100E9000C1F30311515CC840064908600648006868
:100EA000FFF706FF0020C2E70020024000100240CA
:100EB000D2200008340000202C00002004480549FE
:100EC00000684968044AC1F30221515CC840704778
:100ED0003400002000100240E220000804480549C8
:100EE00000684968044AC1F3C221515CC840704798
:100EF0003400002000100240E220000812A185B05A
:100F00000FC98DE80F0014A0144A006804905168BE
:100F1000134801F00C03042B10D0082B0ED1C1F3A1
:100F20008343C9031DF803000AD5516804AAC1F31D
:100F30004041515C0A4A5043B0FBF1F005B07047A4
:100F400008494843FAE700000203040506070809B8
:100F50000A0B0C0D0E0F10100102000000100240D1
:100F600000127A0000093D002DE9F84F040070D00E
:100F70002078C04DC00749D06868C0F381000128BF
:100F800007D06868C0F38100022809D16868C003EF
:100F900006D52868800339D560680028E7D035E099
:100FA0006068B0F5803F0BD010B1B0F5A02F11D024
:100FB000286820F480302860286820F4802002E02F
:100FC000286840F480302860606890B1FFF7A6FB85
:100FD00006460AE0286840F480202860F0E700BF59
:100FE000FFF79CFB801B642873D828688003F7D523
:100FF0000CE0FFF793FB064605E000BFFFF78EFB12
:10100000801B6428F0D828688003F7D420789A4E93
:1010100080074FF001094FF0000839D5686810F0DB
:101020000C0F07D06868C0F38100022809D16868F6
:10103000C00306D42868800714D52069012808D188
:1010400010E02069B0B1C6F80090FFF767FB0746D3
:1010500005E00AE1FFF762FBC01B0228C4D828683C
:101060008007F7D52868616920F0F80040EAC100E0
:1010700028600DE0C6F80080FFF750FB074604E04B
:10108000FFF74CFBC01B022823D828688007F7D441
:10109000207800072CD57948A169D9B1C0F8009013
:1010A000FFF73CFB074604E0FFF738FBC01B0228B4
:1010B0000FD8686A8007F7D571484FF4FA51006875
:1010C000B0FBF1F0009000BF0098411E0091FAD2F1
:1010D0000EE080E0C0F80080FFF720FB074604E048
:1010E000FFF71CFBC01B022875D8686A8007F7D47D
:1010F0002078400760D5E8690027C00008D4E86977
:1011000040F08050E861E869012700F080500090CD
:101110005C480168C90513D40168834641F48071B5
:101120000160FFF7FBFA824606E000BFFFF7F6FA20
:10113000A0EB0A0064284ED8DBF80000C005F5D506
:10114000E06801280AD008B1052813D0286A20F0E9
:1011500001002862286A20F0040002E0286A40F0BA
:1011600001002862E06841F2883B98B1FFF7D6FAA7
:1011700082460BE0286A40F004002862EEE700BFD8
:10118000FFF7CCFAA0EB0A0159455AD8286A800724
:10119000F6D50CE0FFF7C2FA824605E0FFF7BEFA8B
:1011A000A0EB0A0159454CD8286A8007F6D41FB134
:1011B000E86920F08050E861E06988B36968C1F3AC
:1011C0008101022944D00228C6F8608004D0FFF7CC
:1011D000A5FA044638E034E0FFF7A0FA074604E039
:1011E000FFF79CFAC01B02282BD828688001F7D48F
:1011F000206AB0F5803F05D16868A16820F400300E
:1012000008436860D4E908010843696821F474114F
:1012100008436860C6F86090FFF780FA044606E06D
:1012200025E000BFFFF77AFA001B022809D82868DA
:101230008001F7D51BE000BFFFF770FA001B022802
:1012400002D90320BDE8F88F28688001F4D40EE0AD
:101250000128F7D06868226A00F48031914204D1F5
:10126000616A00F47010884201D00120EAE7002092
:10127000E8E70000001002400000424280044242C1
:10128000340000200070004010B5401EB0F1807F97
:1012900001D3012010BD4FF0E02460610F216017E1
:1012A00000F0ABFC0020A06107202061002010BDF1
:1012B00070B5040004D094F83D00002510B106E09C
:1012C000012070BD84F83C50204600F023F8242013
:1012D00084F83D002068C16821F40051C1602046B7
:1012E00000F0FCFB2068016921F490410161206855
:1012F000416921F02A0141612068C16841F400512F
:10130000C1602564202084F83D0084F83E00002060
:1013100070BD000030B585B00024009401940294A3
:10132000039400681449884224D11448816941F427
:1013300080418161816901F480410491816941F0BA
:101340000401816180690E4D00F0040004904FF4A7
:101350000070009002200190032003906946284607
:10136000FFF7ECF82815CDE90004694628460294F9
:10137000FFF7E4F805B030BD00380140001002402E
:10138000000801402DE9F843044690F83D001F464F
:1013900016460D4620284CD1C5B1BEB194F83C008C
:1013A000012846D0012084F83C004FF00008C4F822
:1013B0004080212084F83D00FFF7B0F9A6848146E3
:1013C000E684A068B0F5805F03D004E00120BDE8AA
:1013D000F883206928B12E465FF0000584F83C8030
:1013E0000EE00026FAE78021204600F0D3FBA0B9EA
:1013F000AEB116F8010B21684860E08C401EE08415
:10140000E08C4B464FF0000200970028EBD14FF0E4
:101410004001204600F0BEFB30B10320D7E735F88D
:10142000020BC0F30800E6E7202084F83D0000200E
:10143000CDE70220CBE7FEE701684A69D2435205B7
:101440000FD46FF480624A61002140F8301F2022DF
:1014500042738173026942F0040202610173012048
:1014600070470020704700002DE9F84F0446C06A1D
:101470001E4693460D4621680A6842F480620A605F
:10148000082807D0012805D010F5803F02D0206B36
:10149000112804D12068016841F4807101604FF087
:1014A00001195B46002249462046009600F0E0F80C
:1014B0004FF4007840B120680068C00501D5C4F839
:1014C00040800320BDE8F88F2069DFF884A0B0F5E4
:1014D000804F0FD00620216800EAD51747F0F000B2
:1014E000086133465A460AF10601204600F0F4F836
:1014F00058BB03E0E8B240F001001CE02168E8B20C
:10150000086133465A465146204600F0E5F8E0B9F6
:101510002068416981690091016841F4807101602E
:101520005B46002249462046009600F0A1F80028BC
:10153000C1D147F0F1002168086133465A4651464F
:10154000204600F0C9F80028BCD00120BAE700000E
:1015500002000100F8B50446C06A1E460D46174653
:10156000082807D0012805D010F5803F02D0206B55
:10157000122804D12068016841F48071016013468B
:1015800000224FF001112046009600F071F840B1A2
:1015900020680068C00502D54FF400702064032065
:1015A000F8BD2069B0F5804F0ED00620216800EA12
:1015B000D51040F0F000086133463A460B4920460A
:1015C00000F08AF878B902E005F0FE0000E0E8B229
:1015D00021680861054933463A46891F204600F0D4
:1015E0007BF80028DCD00120F8BD000008000100D5
:1015F0007CB515468DF804000A200E46D0240090D4
:10160000012301AA21460648FFF774FA64200090DE
:101610002B46324621460248FFF74AF97CBD0000BE
:10162000F400002070B516460D4604460DE0204635
:10163000FFF702FF08B1012070BD681C05D0FFF75D
:101640006DF8801BA84207D835B120684069C043B7
:101650004007ECD4002070BD002044F8300F20215A
:101660006173A073216941F0200121612073E2E7D9
:101670002DE9F0471E4690460D460446C1F3074744
:10168000DDF8209008E0701C06D0FFF747F8A0EBCB
:101690000900B0420FD876B12068012F18D08069B8
:1016A00025EA00000004000C14D000214145EAD0D6
:1016B0000020BDE8F087002044F8300F202161733E
:1016C000A073216941F02001216120730120F0E71E
:1016D0004069E5E70121E9E72DE9F0479A4691469F
:1016E0000E46044600254FF02008C1F3074725E0C9
:1016F00020684069C043400514D42068016841F463
:101700000071016021686FF480604861256384F88E
:101710003D8084F83E50206C40F00400206484F842
:101720003C501FE0B9F1FF3F08D0FEF7F7FFA0EBF8
:101730000A0149450CD8B9F1000F09D02068012FE2
:1017400013D0806926EA00000004000C0BD0CFE71C
:1017500044F8305F84F80D80A573206940F02000C4
:10176000206125730120BDE8F0874069EAE72DE993
:10177000F041002590460E460446202717E04069B8
:10178000C043C0060CD454F8301B6FF01000486101
:1017900044F810596777A577206A2062257717E00B
:1017A000FEF7BCFFA0EB0800B04208D83EB12068AD
:1017B0004169C9434906E2D40020BDE8F08144F8FC
:1017C000305F6773A573206940F0200020612573A6
:1017D0000120F2E770B516460D4604460DE020469E
:1017E000FFF72AFE08B1012070BD681C05D0FEF786
:1017F00095FF801BA84207D835B120684069C043D7
:101800000006ECD4002070BD002044F8300F2021E9
:101810006173A073216941F0200121612073E2E727
:101820001CB502238DF8040064208DF8051000908B
:10183000D02101AA0148FFF75DF91CBDF40000208A
:1018400070B5044680216B20FFF7EAFF6420FEF7A5
:1018500063FE20782179402200F0070002EA81111E
:1018600001436B20FFF7DCFF6420FEF755FEE078B4
:1018700000F007011A20FFF7D3FF6078182505EA6A
:10188000C0011B20FFF7CCFFA07805EAC0011C2097
:10189000FFF7C6FF042000F0E7F8A27810491148CE
:1018A00032B1012A06D0022A06D0032A06D10EE060
:1018B000C16003E00C4A00E00C4AC260627842B1A9
:1018C000012A08D0022A08D0032A08D106E0084AD3
:1018D000F3E7084902E0084900E00849016170BDEA
:1018E00000007A3D0C0000200000FA3D00007A3E26
:1018F0000000FA3E0000FA3B00007A3C0000FA3C8F
:101900003EB50446684600F059F8084D009829682D
:1019100000F06AFB20600198696800F065FB606078
:101920000298A96800F060FBA0603EBD0C0000209A
:1019300010B586B0044601223A200DF10101FFF7EF
:1019400057FE9DF80100002834D0062201A93B2053
:10195000FFF74EFE9DF805009DF80410062200EBEF
:10196000012020809DF807009DF8061000EB012063
:1019700060809DF809009DF8081000EB0120A08010
:1019800003A94320FFF734FE9DF80D009DF80C10CD
:1019900000EB0121084801809DF80F109DF80E20F2
:1019A00001EB022141809DF811109DF8102001EB00
:1019B0000221818006B010BD200000207CB50446C5
:1019C0006846FFF7B5FFBDF9000000F029FA0B49A2
:1019D000C9680D4600F03CFA2060BDF9020000F035
:1019E0001FFA294600F034FA6060BDF9040000F0E7
:1019F00017FA294600F02CFAA0607CBD0C000020EC
:101A000003490A8802804A88428089888180704719
:101A1000200000207CB504466846FFF7F1FFBDF9C1
:101A2000000000F0FDF90B4909690D4600F010FABD
:101A30002060BDF9020000F0F3F9294600F008FA31
:101A40006060BDF9040000F0EBF9294600F000FAEF
:101A5000A0607CBD0C000020014654220148FEF726
:101A600043BC0000F400002001461920FFF7D8BE57
:101A7000FEE7FEE770477047FFF700B930B58FB05B
:101A800028216846FEF762FC14210AA8FEF75EFCD6
:101A900001210804CDE900100024029402250491DC
:101AA000CDE907504FF4E01009906846FFF75CFA63
:101AB00008B172B6FEE70F20CDE90A054FF4806049
:101AC000CDE90C4002210AA80E94FFF761F9002825
:101AD00001D072B6FEE70FB030BD704770B5044656
:101AE00000680169E26821F44051114301612169F4
:101AF000A0680843616908432168CA6841F20C6321
:101B00009A430243CA6020684169A26921F4407186
:101B1000114341611E492068884202D1FFF7DEF976
:101B200001E0FFF7CBF900EBC00101EB00126068A8
:101B300064218000B2FBF0F3B3FBF1F36FF0180601
:101B40007343B2FBF0F5B2FBF0F605EB83053223ED
:101B500003EB0515B5FBF1F5B6FBF1F605F0F00565
:101B600005EB0615B2FBF0F6B2FBF0F0B0FBF1F0BE
:101B70006FF01802504306EB800003EB0010B0FB3F
:101B8000F1F0216800F00F002844886070BD00006B
:101B9000003801402DE9F041984617460E460446AC
:101BA000069D1DE0681C1BD02DB1FEF7B7FDA0EB14
:101BB0000800A84214D92068C16821F4D071C1601E
:101BC0002068416921F001014161202084F83D0035
:101BD00084F83E00002084F83C000320BDE8F0813A
:101BE0002068006836EA000004D00020B842D9D04E
:101BF0000020F3E70120F9E7FEE70907090E0028B6
:101C000004DB00F1E02080F80014704700F00F00C2
:101C100000F1E02080F8141D704700008AB0FFF743
:101C200035F8FFF72BFF4648816941F020018161BB
:101C3000816901F020010091816941F00401816115
:101C4000816901F004010091816941F0080181611D
:101C500080693C4900F0080000903B480024016086
:101C60003A49C0E901144FF48041C0E9034144619D
:101C70008461C4610462FEF757FD08B172B6FEE7E5
:101C800031483349543001604FF41651C0E9011412
:101C90000C21C460C0E904418461C461FFF708FB02
:101CA00008B172B6FEE72848FFF7D6FE01208DF88E
:101CB0000E008DF80C4006218DF80F108DF80D00E8
:101CC0008DF8104003A8FFF7BBFD002425462746EA
:101CD000264643F2C8281C489830FFF76FFE1A4882
:101CE000A430FFF797FE1B48FFF78AFE1948801FB4
:101CF000FFF71EFE1448B030FFF702FE0A2C06DA8A
:101D00001448801F641CB0F904000544E3E795FB08
:101D1000F4F0404500DD761C022E0ED17F1C3B46C0
:101D20000DA20A2107A8FEF753FA0748F31E0A225C
:101D300007A95430FFF726FB002600252C46CAE7EA
:101D4000001002400054004038000020A08601002E
:101D5000003801400600002025640A0090EA010FC7
:101D600048BF81F0004100F14681421A3CBF801A11
:101D700089184FEAD0524FF07F4C1CEA410FA2EB7A
:101D8000D15318BF9CEA026F00F03B804FF0004C2B
:101D90004CEA00204CEA012121FA03FC10EB0C0C68
:101DA0001ED202F1FF325FEA1C2040EBC25038BF66
:101DB00070471CF07F0F4FEA400C18BFBCF17F4FFB
:101DC00038BF7047C3F12003994008BF20F00100DD
:101DD000BCF17F4F38BF7047A0F1C04000F0FFB8A2
:101DE0004FEA3C00000A40EBC25028BF1CF0FF0F36
:101DF0004FEA400CE6D018BFBCF17F4F38BF7047A8
:101E0000EAE79CEA026F05D010EA5C0F08BF00F019
:101E10000040704710B500F09CF800BF64FBBE3E68
:101E200010F0004148BF4042B0FA80F310FA03F2CC
:101E3000C3F19D030BD051EAC35101EB12205306AD
:101E400038BF704700F1010008BF20F00100704763
:101E50004FF47F0C1CEAD0121EBF1CEAD11392EA89
:101E60000C0F93EA0C0F00F0478090EA010F48BF77
:101E700042F480724FF0004C4CEA00204CEA012101
:101E800002EB0302A0FB0113A2F50002002918BF18
:101E900043F001035B0028BF4FEA330342EB2242C9
:101EA0005FEA132C4CEBC2502EBFBCEB436FB2F574
:101EB0007C0F70474FEA036CBCF1004F08BF20F065
:101EC0000100B2F57C0F38BF70470BD582F0FF02DE
:101ED00012F5803FC8BF704700F1C040D8BF00F086
:101EE0000040704700F5000C5FEA4C0C48BF70479B
:101EF000B0F1C04000F073B890EA010F0CEAD113C2
:101F000048BF42F48072624538BF634504D280EA1C
:101F1000010000F00040704710B500F01AF800BF53
:101F20008900013E00F007B800F009B85FEA410CF3
:101F30005FEA1C6C08D080EA010000F050B85FEA4C
:101F4000400C5FEA1C6CF6D14FF00040A0F5800019
:101F500070470EF1020E2EF0030E5EF8044B244281
:101F600004D44FEA4102B2F17F4F11D84FEA400347
:101F7000B3F17F4F0CD80ED14FEAD07CB2F17F4F36
:101F80000CEB4C0C0CF1020C08BF4CEBD17C04E0C8
:101F90004FF0080C01E04FEAD17C0CEB4C0324FA23
:101FA00003F404F00704B4F1040C06D20EEB840C25
:101FB000BDE810404CF0010C6047DFE80CF007086A
:101FC00002024FF00040A0F5800010BD084642001C
:101FD00018BFD2F1807288BF00F0004010BDFF2111
:101FE00041EAD050C005704790EA010F48BF81F028
:101FF00000413FF5BAAE421A04D882F00042A0EB8D
:10200000020011444FEAD0524FF07F4C1CEA410FBE
:10201000A2EBD15318BF9CEA026F4AD04FF0004C9C
:102020004CEA00204CEA012121FA03FCB0EB0C0C35
:102030000FD412F0FE0F36D05FEA4C001DD500120F
:1020400040EBC25038BF70471CF03F0F18BF7047BD
:102050000BE0A2F101025FEA1C2040EBC25038BF46
:1020600070471CF07F0F18BF7047C3F120039940E1
:1020700014BF401E20F00100704780084FEA122371
:1020800008BF7047B0FA80FCA2EB0C02CCF1280C20
:1020900060FA0CF093EA122F04BF00EBC2507047B5
:1020A0004FEAC3707047130A5FEADC1008BF70473D
:1020B000F6E79CEA026F04D010EA5C0F08BF00202C
:1020C000704710B5FFF745FF40DFF63E81F0004056
:1020D0007047000000000000000001020304060732
:1020E0000809000000000102030400000C210008A0
:1020F00000000020380000002801000844210008EA
:1021000038000020700700004401000800000000B3
:1021100000000000000000000000000000000000BF
:1021200000000000000000000000000000000000AF
:10213000000000000100000010000000000000008E
:042140000024F40083
:04000005080000ED02
:00000001FF
