:020000040800F2
:1000000070140020F1270008CD260008CF26000834
:10001000D1260008D3260008D526000800000000DD
:10002000000000000000000000000000D7260008CB
:10003000D926000800000000DB260008DD260008A5
:1000400025280008292800082D2800083128000844
:1000500035280008392800083D28000841280008F4
:1000600045280008492800084D28000851280008A4
:1000700055280008592800085D2800086128000854
:10008000E126000865280008692800086D28000896
:100090007128000875280008792800087D280008C4
:1000A0008128000885280008892800088D28000874
:1000B000E7260008912800089528000899280008DC
:1000C0009D280008A1280008A5280008A9280008E4
:1000D000AD280008B1280008B5280008B928000894
:1000E000BD280008C1280008C5280008C928000844
:1000F000CD280008D1280008D5280008D9280008F4
:10010000DD280008E1280008E5280008E9280008A3
:10011000ED280008F1280008F5280008F928000853
:10012000FD28000801290008052900080929000800
:100130000D290008112900081529000819290008AF
:100140001D2900082129000825290008292900085F
:100150002D2900083129000835290008392900080F
:100160003D290008412900084529000849290008BF
:100170004D290008512900085529000800000000F9
:10018000592900085D29000861290008652900082F
:10019000692900086D2900087129000875290008DF
:1001A000792900087D29000881290008852900088F
:1001B000892900088D29000891290008952900083F
:1001C000992900089D2900082DE9FC4104460025D5
:1001D000002C15D02078C00714D500F039FA01F0B2
:1001E0000C01042907D000F095F941D1DFF8D404BF
:1001F000006840023CD500F027FA03D5606800286B
:1002000000F08381207880071CD500F021FA11F0DE
:100210000C0F07D000F07EF964D1DFF8A804006865
:1002200040025FD4DFF894040168890703D5E168D0
:10023000012940F06A81016821F0F801226941EA50
:10024000C20101602078000777D560690028DFF8D7
:10025000786430686CD000F067F907463068800732
:1002600072D400F045FAC01B0328F7D303204FE1F6
:100270006068B0F5803F02D1DFF840040DE018B9A6
:10028000DFF8380401680CE0B0F5A02FDFF82C048B
:10029000016806D141F480210160016841F4803198
:1002A00005E021F480310160016821F480210160C2
:1002B000606858B100F01CFA064600F0C5F9A1D4F8
:1002C00000F016FA801B6528F7D3CFE700F010FA8C
:1002D000064600F0B9F995D500F00AFA801B6528AA
:1002E000F7D3C3E7E0680028DFF8D063306813D0A5
:1002F00000F01AF907463068800705D400F0F8F9D5
:10030000C01B0328F7D3B1E7306820F0F80021695B
:1003100040EAC100306095E700F001F90746306817
:1003200080078FD500F0E4F9C01B0328F7D39DE7C1
:1003300000F0F5F807463068800705D500F0D8F9D9
:10034000C01B0328F7D391E72078400765D5DFF875
:1003500080633068C00009D4306840F0805030605D
:10036000306800F08050009000980125DFF8647339
:100370003868C00510D4386840F48070386000F0E8
:10038000B7F980463868C00506D400F0B1F9A0EB93
:1003900008006528F6D369E7A068012802D1DFF8D4
:1003A00038030CE018B9DFF8300301680BE00528CA
:1003B000DFF82403016806D141F0040101600168FF
:1003C00041F0010105E0490849000160016821F0A0
:1003D00004010160A06868B100F08AF90746DFF8FF
:1003E000F8020068800713D400F082F900F039F9B0
:1003F000F5D33BE700F07CF90746DFF8DC02006844
:10040000800705D500F074F900F02BF9F5D32DE73E
:100410001DB1306820F080503060A069002876D08F
:10042000DFF89C0200F076F849D0A069022834D1A8
:10043000DFF88852286820F08070286000F058F9B2
:1004400006462868800105D500F052F9801B032874
:10045000F7D30BE7E069216A0843616A40EA81103B
:10046000A16A4908491E40EA0140E16A40EA016088
:1004700040F00050DFF84C120860286840F08070AF
:10048000286000F035F90446286880013FD400F068
:100490002FF9001B0328F7D3E8E6DFF82042206895
:1004A00020F08070206000F023F90546206880016C
:1004B0002DD500F01DF9401B0328F7D3D6E6DFF851
:1004C00004020068A16901291FD000F48001E269DB
:1004D000914202BF00F03F01226A914201BF47F6FC
:1004E000C0710140626AB1EB821F0ED100F440314D
:1004F00001F58031A26A5208B1EB024F02BF00F051
:100500007060E16AB0EB016F01D0012000E00020D3
:10051000BDE8F681006800F00C000828704740082C
:100520004000306000F0E4B840F00100306000F0BE
:10053000DFB82DE9F0410400884656D0DFF89C5121
:10054000286800F00F00404502D200F073F84CD14B
:100550002078800716D52078400704D500F078F879
:1005600041F4E05101602078000704D500F070F8F4
:1005700041F46041016052490A6822F0F002A0682B
:1005800002430A602078C00727D56068012802D19D
:1005900000F05AF804E002284848006802D18001BF
:1005A00002D422E0800720D5454F39688908606869
:1005B00040EA8101396000F09BF80646386800F097
:1005C0000C006168B0EB810F07D000F091F8801B40
:1005D00000F048F8F2D303202AE0286800F00F006A
:1005E000804504D200F026F801D0012020E02078D8
:1005F000400706D532490A6822F4E052E068024317
:100600000A602078000707D500F022F821F4604145
:10061000226941EAC201016000F028F83049284A05
:100620001268C2F30312895CC84000F014F800207D
:10063000BDE8F0812868000948EA001028602868B1
:1006400000F00F00404570471C4800688003704769
:100650001B4801687047234908602348006800F080
:100660004DB8C01B41F289318842704710B514481B
:10067000006800F00C00042802D0082802D01AE01C
:100680001A4810BD0F4C226802F03F022068400259
:100690002068C0F388104CBF14490C49A1FB00012D
:1006A000002300F04FF82168C1F30141491C4900C3
:1006B000B0FBF1F010BD054810BD0000003802404D
:1006C0000838024004380240743802400024F40024
:1006D000403802400070004070380240003C024048
:1006E000E0270008040000200000002040787D0181
:1006F00001480068704700BF6C10002010B5044628
:100700004FF47A700C490978B0FBF1F00B49096895
:10071000B1FBF0F000F01EF958B9102C09D20022FC
:1007200021464FF0FF3000F005F905480460002035
:1007300010BD012010BD00BF0800002004000020F3
:1007400000000020D3BBD9B1B2F5803F5BD2022AB2
:100750001ED98C46B1FBF2F102FB11C31B0443EA24
:100760001043B3FBF2FC02FB1C3380B240EA0343AC
:10077000B3FBF2F002FB103240EA0C40002370475A
:10078000022A05D98446B0FBF2F002FB10C2704782
:100790004AB105D100F0010249085FEA3000704714
:1007A00000220023704700F033B90B000200002143
:1007B00000207047F7D3002200237047904271EB6E
:1007C000030CF2D370B5B1FA81F4B3FA83F52C1BA4
:1007D000A340C4F1200532FA05F63343A2405FF08E
:1007E0000046E64002E05B085FEA3202841A71EBE1
:1007F000030524BF204629467641F4D302000B00AE
:100800003000002170BD70B5B1FA81F4B2FA82F502
:10081000C4F120046419B4F12006DAD3B2405FF0C9
:100820000044F440002502E052085FEA3303C61A90
:1008300071EB020E24BF3046714664416D41F3D323
:1008400002000B002000290070BD0EE00268436822
:10085000024408305FEAC37C44BF4B445B1E52F83D
:1008600004CB43F804CB091FF9D150F8041B00292D
:10087000ECD17047594A13684FF6FF010B40000254
:1008800000F4E0601843564908431060704753482D
:100890000068C0F302207047010007D4012200F075
:1008A0001F018A404F49400941F82020704702004B
:1008B00003D409014C4A1154704709014B4A00F016
:1008C0000F00104400F8041C704710B500F007003A
:1008D000C0F10703052B2FBF0F23012404FA03F3F4
:1008E0005B1E041D072C34BF0020C01E1940814030
:1008F000012303FA00F0401E1040084310BD10B55C
:100900000446601EB0F1807F0CD2394908600F2187
:100910004FF0FF30FFF7CBFF00203649086007207B
:1009200035490860641EB4F1807F8041C043C00F28
:1009300010BD9FE770B504460D461646FFF7A7FFAA
:1009400032462946FFF7C1FF01462046BDE8704008
:10095000ADE7A1E7D3E7BFF35F8F2848016821F433
:1009600080310160002026490860704740F0010096
:10097000234908602148016841F480310160BFF3D8
:100980004F8FBFF36F8F704741781E4A1160017817
:10099000F1B141681C4A1160017BC27A120642EA39
:1009A0000172817A42EAC142417B42EA8142817B03
:1009B00042EA4142C17B42EA0142417A42EA0122D3
:1009C000017A42EA4102007802431048026070470F
:1009D00000200D4908600D49086070470CED00E0EB
:1009E0000000FA0500E100E000E400E018ED00E09E
:1009F00014E000E018E000E010E000E024ED00E08A
:100A000094ED00E098ED00E09CED00E0A0ED00E04A
:100A10007047000010B5040001D1012010BD94F80A
:100A20003D0018B900F070F800F0B5FA39E090F820
:100A30003D10012901D001207047022180F83D10AE
:100A40000168DFF8A420914218BFB1F1804F17D0A0
:100A5000DFF8982091421CBFDFF8942091420FD01C
:100A6000DFF8902091421CBFDFF88C20914207D024
:100A7000DFF8882091421CBFDFF88420914209D121
:100A80008A68DFF880100A40062A18BFB2F5803F56
:100A900005D00168096841F001010068016000208B
:100AA0007047022084F83D00211D206800F065F9A0
:100AB000012084F8480084F83E0084F83F0084F860
:100AC000400084F8410084F8420084F8430084F830
:100AD000440084F8450084F8460084F8470084F810
:100AE0003D00002010BD0000000001400004004057
:100AF00000080040000C004000040140004001409C
:100B0000001800400700010084F83C0020467047B0
:100B100010B5044620680069800718D52068C068B1
:100B2000800714D56FF0020021680861012020774A
:100B30002068806910F0030F204602D000F056FABA
:100B400003E000F054FA00F0A6F8002020772068B7
:100B50000069400718D52068C068400714D56FF0B9
:100B6000040021680861022020772068806910F461
:100B7000407F204602D000F039FA03E000F037FA57
:100B800000F089F80020207720680069000718D558
:100B90002068C068000714D56FF00800216808615C
:100BA000042020772068C06910F0030F204602D08F
:100BB00000F01CFA03E000F01AFA00F06CF80020D4
:100BC000207720680069C00618D52068C068C00674
:100BD00014D56FF010002168086108202077206884
:100BE000C06910F4407F204602D000F0FFF903E016
:100BF00000F0FDF900F04FF8002020772068006930
:100C0000C00709D52068C068C00705D56FF001008E
:100C100000F03DF800F0ECF920680069000609D505
:100C20002068C068000605D56FF0800000F02FF83E
:100C300000F0DFF920680069C00509D52068C068A8
:100C4000000605D56FF4807000F021F800F0D2F9AD
:100C500020680069400609D52068C068400605D5AF
:100C60006FF0400000F013F800F0C5F9206800694B
:100C700080060BD52068C068800607D56FF020007D
:100C800000F005F8BDE8104000F0B6B910BD2168CD
:100C9000086120467047204600F0AFB938B500F033
:100CA0005BF801D1022032BD00F05CF82068826858
:100CB000DFF888010240206882600868002818BFB9
:100CC000102831D0202818BF30282DD0402827D018
:100CD00050281AD060281CD0702806D0B0F5805F4C
:100CE00028D0B0F5005F07D023E000F02FF820688F
:100CF000806840F0770005E000F028F82068806800
:100D000040F480402168886014E000F01BF8502116
:100D10000BE0CA684968206800F0BCF8602104E074
:100D200000F010F8402100E00146206800F0C4F80F
:100D300000E0012500F01DF8002084F83C00284662
:100D400032BD0000CA68496820688FE0CB684A68F5
:100D50008968206800F0B8B80446002594F83C0083
:100D600001287047012084F83C00022084F83D00EF
:100D70007047012084F83D00704710B50468DFF823
:100D8000C030984218BFB0F1804F0FD0DFF8B420C8
:100D900090421CBFDFF8B020904207D0DFF8AC20B3
:100DA00090421CBFDFF8A820904213D124F07004B9
:100DB0004A681443984218BFB0F1804F24D0DFF83E
:100DC000842090421FBFDFF880209042DFF87C2013
:100DD000904219D000F02EF81CBFDFF87820904226
:100DE00012D0DFF8742090421CBFDFF870209042D0
:100DF0000AD0DFF86C2090421FBFDFF868209042D5
:100E0000DFF86420904203D124F44074CA6814438C
:100E100024F080044A69144304608A68C2620A6844
:100E20008262984219BF0A4A90420969016301210E
:100E3000416110BD064A9042704700008800FEFFE5
:100E4000000001400004004000080040000C004089
:100E500000040140004001400044014000480140BE
:100E600000180040001C00400020004010B5036A3C
:100E700000F00AF824F0F00444EA0214846123F03C
:100E80000A031943016210BD046A64086400046225
:100E90008469704710B5036A23F010030362836905
:100EA000046A23F4704343EA0233836124F0A0040C
:100EB00044EA0114046210BD826822F070021143FA
:100EC00041F007018160704710B5846824F47F44C5
:100ED0002143114341EA0321816010BD81B03C48A8
:100EE000016841F080510160006800F0805000907E
:100EF00000983848016841F480410160006800F4BE
:100F000080400090009801B0704738B586B0044624
:100F10001422002101A800F071F820682E498842AF
:100F200037D12B48016841F000510160006800F0A2
:100F3000005000900098294800F040F810200190DF
:100F4000032002900020039001A9254800F060F8DA
:100F5000244D254828604FF0606068604020A860FC
:100F60000020E8604FF4806028614FF48050686191
:100F70004FF48040A8614FF48070E861002028623F
:100F80006862284600F036F908B100F069FCA560F7
:100F9000AC6307B030BD0068B0F1804F00D070473F
:100FA00080B50B4800F00AF8002200211C20FFF752
:100FB000C1FC1C20BDE80240FFF7CBBC016841F03A
:100FC00001010160006800F0010000900098704786
:100FD000403802404438024000740040303802403B
:100FE00000000240AC0F002088600240704770474C
:100FF00070477047704770477047704710B5044698
:1010000010460A460146204600F02CFC204610BD42
:10101000F8B50023012404FA03F50A682A40AA421D
:1010200040F0BF800D7905F00305012D1EBF0D793D
:1010300005F00305022D12D1856803265F00BE402E
:10104000B543CE68BE403543856045689C4025EA7F
:1010500004044D68C5F300159D402C4344600C7991
:1010600004F00304032C21D0C46803255E00B540BE
:10107000AC438D68B5402C43C4600C7904F0030484
:10108000022C13D1DC0800EB8404246ADD0800EB99
:1010900085050F269F0007F01C07BE40B4430E696C
:1010A0009F0007F01C07BE4034432C6204680325F0
:1010B0005E00B540AC430D7905F00305B5402C4307
:1010C00004604C6814F4403F6BD03A4C256845F4FA
:1010D00080452560246804F480440094009C364CCC
:1010E0009D0854F825600F279D0005F00C0507FAB0
:1010F00005F526EA0505314EB04208BF00262CD082
:101100002F4EB04208BF012627D02E4EB04208BF56
:10111000022622D02C4EB04208BF03261DD02B4EF3
:10112000B04208BF042618D0294EB04208BF052699
:1011300013D0284EB04208BF06260ED0264EB0422D
:1011400008BF072609D0254EB04208BF082604D0A4
:10115000234EB0420CBF09260A269F0007F00C0759
:10116000BE4035439E0844F826501E4D00F01EF840
:10117000F60248BF14432C601B4D00F017F8B6026E
:1011800048BF14432C60194D00F010F8B60348BF57
:1011900014432C60164D00F009F8F60348BF1443C1
:1011A0002C605B1C102BFFF435AFF1BD2C68944311
:1011B0004E68704744380240083801400000024041
:1011C0000004024000080240000C024000100240EF
:1011D0000014024000180240001C0240002002409F
:1011E00000240240083C01400C3C0140043C01400A
:1011F000003C014038B50446FFF77AFA05460CB9C1
:10120000012032BD022000F09FF800F095F8206820
:101210000068C00708D5FFF76BFA401B0628F6D315
:1012200020206065032030E020680168DFF8340387
:10123000014060680143A0680143E0680143206900
:10124000014360690143A0690143E0690143206AE9
:101250000143606A042803D1E06A0143206B014323
:101260002068016020684569ED08606A40EAC505AC
:1012700004280DD1A06A0543E06A48B1204600F079
:1012800077F928B140206065012084F8350032BD2F
:1012900020684561204600F050F900F006F86065CE
:1012A000012084F83500002032BD3F22E16D8A40E4
:1012B00082600020704770B504460025A66D94F842
:1012C0003400012801D1022070BD00F027F819D1A7
:1012D00000F02BF83F2100F0F6F840F016002168EE
:1012E00008602068406940F0800021684861206CF7
:1012F00028B12068006840F008002168086000F00C
:1013000006F802E084F834500225284670BD2068B3
:10131000006840F00100216808607047012084F8EF
:10132000340094F8350001287047022084F8350015
:10133000002060652046EBE020680068400840001F
:10134000216808607047012084F83500002084F887
:1013500034007047F8B504460020009082480068C9
:101360004FF41651B0FBF1F5A66D3768082100F077
:10137000B5F80ED02068006840070AD520680068DC
:1013800020F004002268106000F0A3F840F0010093
:101390006065E06D27FA00F1C80709D5206840694B
:1013A000000605D5012100F094F840F002006065C8
:1013B000042100F093F808D020680068800704D565
:1013C00000F087F840F004006065102100F086F816
:1013D0001AD020680068000716D500F074F84003A2
:1013E0002068006807D5000309D5A06C60B12046CD
:1013F000A16C884708E0C00501D400F081F8206C9A
:1014000010B12046216C8847202100F067F83DD0BC
:1014100020680068C00639D5E06D8140B16094F85D
:10142000350005282068006815D100F05CF804BF7D
:10143000A06C002801D000F063F83F21E06D8140EE
:10144000B160FFF780FF206D00283BD02046216D62
:10145000BDE8F440084740032068006807D5000352
:101460000FD4606C90B12046616C88470EE0C005D7
:1014700007D42068006820F0100021680860FFF79A
:1014800062FFE06B10B12046E16B8847606DC8B128
:10149000606DC0070FD5052084F83500FFF74CFFBD
:1014A0000098401C0090854203D320680068C00764
:1014B000F6D4FFF748FFE06C20B12046E16CBDE8B0
:1014C000F4400847F1BDE06D8140B16020680068DC
:1014D0007047E06D8140B160606D7047E06D01FA6A
:1014E00000F00742704720F016002168086020686D
:1014F000406920F0800021684861206C0028704716
:101500002068006820F0080021680860704700002B
:1015100030B50468246824F4802405682C600468CD
:1015200063608368402B036803D19A600068C160E0
:1015300030BD99600068C26030BD0146087810383F
:101540001822B0FBF2F0094A125CCA650428086848
:1015500003D3800A8002001D01E0800A80028865B2
:10156000704700003F8010F0040000201C28000895
:1015700002460020936A916929B9002B18BF022BFB
:1015800013D016D208E0B1F5005F0AD1032B10D8B2
:10159000DFE803F00E0B0E02D16AB1F1C07F08D173
:1015A00006E0022B04D9DB1E03D1D16AC90100D5A4
:1015B0000120704710B50024600000F087F9864ACA
:1015C000864B00F095F90022854B00F067FA41EC5C
:1015D000100B00F08AFB53EC102B0020814900F027
:1015E0008BFB0022804B00F083F9804A804B00F097
:1015F0007FF900227F4B00F07FFB00F0A5FC7E49C5
:1016000041F82400641CB4F57A7FD5DB10BD80B5A9
:1016100000F000F900F0AAFC00F017F800F0C6F89E
:1016200000F0AFF800F05BF800F073F87348FFF7D4
:10163000FEF9FFF7BFFF002000904FF47A736E4A67
:1016400000216F4800F0AEFCFEE780B592B030227A
:10165000002106A8FFF7D2FC1422002101A8FFF701
:10166000CDFC6848016841F080510160006800F0DD
:1016700080500090009864480121026861F38F3225
:101680000260006800F4404000900098022006903C
:10169000099110200A9002200C9000200D90082043
:1016A0000E905A200F9002201090119006A8FEF77D
:1016B0008BFD08B100F0D4F80F20019002200290B9
:1016C000002003904FF4805004900590022101A85F
:1016D000FEF72FFF08B100F0C3F813B000BD1CB532
:1016E000082200F04AF8464C48482060204600F0A6
:1016F00049FC08B100F0B4F82420009000200190CB
:1017000000226946204600F0D3FC08B100F0A8F89A
:1017100013BD18B587B01022002103A8FFF76EFC97
:101720000C2200F02AF8354C4FF080402060222037
:1017300060600020A0600420E06000202061A061C3
:101740002046FFF767F908B100F08AF84FF480509F
:10175000039003A92046FFF7A1FA08B100F080F832
:1017600020200090002002906946204600F0E8FC0E
:1017700008B100F075F808B010BD00216846FFF709
:101780003DBC80B52248016841F400110160006849
:1017900000F4001000900098002200211020FFF7B4
:1017A000C9F81020BDE80240FFF7D3B881B018484F
:1017B000016841F080010160016801F08001009141
:1017C0000099016841F001010160006800F001002A
:1017D0000090009801B070474AD8124DFB21094093
:1017E00000408F400000F03F00FC9F40CDCCCCCCAF
:1017F000CCCCEC3F000059400C0000200C10002025
:101800005810002040380240007000400074004032
:1018100030380240F8B51022FFF7AFFFFFF79BF812
:1018200001208DF8000000208DF8010001901F209C
:101830008DF8080087208DF809000020ADF80A0017
:1018400001208DF80C008DF80D000020ADF80E0081
:101850006846FFF799F80420FFF788F805B000BD47
:1018600072B6FEE762F30F2262F31F42401810F0D7
:10187000030308D0C91A1FD3DB0748BF00F8012DA6
:1018800028BF20F8022D130030B414461546103935
:1018900028BF20E93C00FAD8490728BF20E90C00FE
:1018A00048BF40F8042D890028BF20F8022D48BF0A
:1018B00000F8012D30BC7047C91818BF00F8012D81
:1018C000CB0728BF00F8012D7047000010F0004141
:1018D00060B148BF4042B0FA80F29040D21CC2F5DD
:1018E000846241EA025202EBD021400570470000B9
:1018F00030B540F2FF7C1CEA11541DBF1CEA1355A1
:10190000644565453FE0641981EA030C6FF35F535A
:101910000CF0004C43F48013C90241F0004141EA4D
:10192000505EC5021100A5FB020200284FF0000026
:10193000EEFB01204FF00001E3FB052118BF42F050
:101940000102401800214941E3FB0E01A4F5806427
:101950000D0302D292184041494154F1010470DD57
:10196000450872F1004250F1000051EB0451A1F51D
:10197000801102D441EA0C0130BD40F2FF7E4CEAF6
:101980000E51002030BD0CEA1355644518BF654563
:1019900081EA030C0CF0004C41D050EA410E1CBF10
:1019A00052EA430E02E06146002030BD24422C443E
:1019B0001BD15FEA050EF6D0090302BF01460020E5
:1019C000AEF1140EB1FA81F5AEEB050401FA05FE95
:1019D0000C35C5F1200100FA05F5C8404EEA000EAD
:1019E0006FF35F5343F480139CE733F00043B3FA83
:1019F00083F504BFB2FA82FE75440B3D641BB5F15A
:101A0000200E2FBF02FA0EF3AB40C5F1200E22FAD2
:101A10000EFE38BF43EA0E03AA40641C7CE750EA7E
:101A2000410E14BF52EA430E6FF000014FF400154F
:101A300015EB430F8EBF194615EB410F9DE7B4D848
:101A400030BDD4F10104B4F120050FDAC4F1200552
:101A5000520828BF42F0010210FA05FE01FA05F50E
:101A60007244E2BFE0402843E1400FE0352C9ADCAD
:101A7000C5F1200452EA400220FA05F218BF42F0F4
:101A8000010231FA05F0A1400A43002172F100423F
:101A900050F1000051EB0C0130BD0000F0B540F2F8
:101AA000FF7581EA030C0CF0004C15EA11541DBFC0
:101AB00015EA1357AC42AF42E5E0BC41C1F3130154
:101AC000C3F31303801A994143F4801304D2641EB4
:101AD0000018494180185941C90241EA5051B1FBEF
:101AE000F3F603FB1611A2FB0675D7EBC020A94144
:101AF00002D2761E80185941C90241EA5051B1FB09
:101B0000F3FE03FB1E11A2FB0E75D7EBC020A9410B
:101B100003D2AEF1010E80185941890241EA905179
:101B2000760546EA8E2EB1FBF3F603FB1611A2FBF7
:101B30000675D7EB8020A94102D2761E8018594144
:101B4000C90241EA50514EEA060EB1FBF3F603FB1F
:101B50001611A2FB0675D7EBC020A94102D2761E52
:101B600080185941C90241EA5051B1FBF3F703FB18
:101B70001711A2FB0735D3EBC020A94167F100077D
:101B80000CBF004247F0010766F3D5274FEA1E312C
:101B9000B80814F5806412DDBD0775F1004250EB02
:101BA0000E5051EB045111F5801F5CBF41EA0C014E
:101BB000F0BD4CF07F6141F0E0410020F0BDBD0779
:101BC0006D0840EA0E5041F48011D4F10104B4F1E3
:101BD00020060ADAC4F120060200E04001FA06F30A
:101BE000E1401843B24015430EE0342C13DCC6F13B
:101BF000200445EA40056D0820FA06F2154321FA53
:101C000006F0A1400D43002175F1004250F10000A3
:101C100051EB0C01F0BD00205FEA0C01F0BDCFB923
:101C200092185B41B3FA83F704BFB2FA82F6BF1988
:101C30000B3FB7F120062FBF02FA06F3BB40C7F1F6
:101C4000200622FA06F638BF3343BA401CB1E41925
:101C5000641E33E77F4231F00041B1FA81F404BFE2
:101C6000B0FA80F6A4190B3CB4F120062FBF00FA9D
:101C700006F1A140C4F1200620FA06F638BF314330
:101C8000A0403C1B1AE7AC421ABF05EA1357AF420B
:101C900012E050EA41061CBF52EA4306BFE750EA91
:101CA0004107304661461CBF41EA0551F0BD52EA8A
:101CB000430C08BFC143F0BD00204FF4001616EBE3
:101CC000410F98BF16EB430F08BF16EB410F24BF1F
:101CD000C14305E016EB430F0CBF61464CEA0551CA
:101CE000F0BD000041EC100B01BD80B551EC100BB4
:101CF00000F07CFCF6E7000070B491EA030F4FF0AF
:101D0000004540F1B7806B40841A71EB030604D2A2
:101D10006E40001BB141121973414FF4001C1CEBC3
:101D2000410F34BF7CEB430683E00C0DA4EB13564C
:101D3000362E00F37C80012E45EAC32341DC43EAC2
:101D4000525312BFD20292025B08240545EAC12118
:101D500041EA5051D2EBC020994125D407D1B0FAC5
:101D600080F610FA06F162D00020203608E0B1FAC1
:101D700081F6B140C6F1200220FA02F21143B040D0
:101D80004FEAF474B4EB465434F001064FEA74049D
:101D90000AD8D6F50016760D04F00044F04061FA3A
:101DA00006F25040F1404840C00A40EA415021F05C
:101DB000004128BF5FEA500550F1000044EBD121FB
:101DC00035E0DB0A45EAC121C90AB6F120050EDD7E
:101DD00042EA0242120CC5F1200603FA06F6EB4075
:101DE00042EA06056D42984161F100010DE062FA98
:101DF00006F5F240554063FA06FC82EA0C02F34015
:101E00005A406D42904161EB030111F4801F05D1EE
:101E1000641E620502D06D004041494121F48011E9
:101E2000430875F1004350F1000041EB045170BCD0
:101E300070471CEB410F15D223F0004352EA4306D2
:101E40000BD04FEA4C0CBCEB410F04D80C0D661EB6
:101E5000342EB7DDEBE7801A994150EA410608BFFE
:101E60000021E4E708BF1CEB430F28BF6FF000011F
:101E7000DDE70000841A71EB030603D2001BB141B9
:101E8000121973414FF4001C1CEB410F34BF7CEB63
:101E9000430442E00C0DA4EB1356352E4FDC45EA0B
:101EA000C323DB0A45EAC121C912B6F120050DDDC5
:101EB00063FA05F6EB4086EA0305124218BF45F0C7
:101EC0000105C01851F100010CD213E062FA06F5C9
:101ED000F2405540F3415A40B340F3405A40801815
:101EE000594107D349085FEA30005FEA350528BF4A
:101EF00045F0010501F58011420875F1004250F1ED
:101F0000000041EB04514E0016F5001F70BC38BFB5
:101F100070470020090D090570471CEB410F10D2D6
:101F200052EA43060BD0BCEB410F05D80C0DAB4376
:101F3000661E342EB6DD02E0AB438018594170BCFA
:101F4000704770BC70470000400D40F21E4C40EAE4
:101F5000C120BCEB115C40F0004003D48CF30701BE
:101F6000C84070476FEAE1707047000080B50320F9
:101F7000FEF7DFFC0F20FEF7C1FBFEF7AFFF0020EE
:101F800002BD000010B5040001D1012010BD207970
:101F900018B960712046FEF7B8FF022020710020BA
:101FA000206181E0F8B505460C46114600226879AB
:101FB000012801D10220F2BD0120687102202871A0
:101FC00006981CBB0FF24916AF68FE630FF24D1660
:101FD000AF683E640FF24D16AF68FE642E68366837
:101FE00046F480562F683E6020B1042806D00828A9
:101FF00008D043E0286800F1080241E0286800F1B9
:102000000C023DE0286800F1100239E0234EEF6831
:10201000FE63234EEF683E64224EEF68FE642E6836
:10202000366846F080562F683E6020B104281DD0E7
:1020300008281FD022E0286800F1140228680068F0
:1020400040F000502E683060E868FFF734F9002156
:10205000697101001CD129680968012204F010048B
:1020600002FA04F40C4329680C60F2BD286800F100
:102070001802E3E7286800F11C02DFE7002CDDD13D
:102080002868006840F400502E683060A868DCE7DB
:10209000296941F004012961F2BD00009B26000876
:1020A000A7260008AD26000801202071002010BDE1
:1020B00030B54379012B01D1022030BD012343719A
:1020C0000223037103681C6840F6FE7502F01003DA
:1020D0009D40AC430B6849680B4302F010018B40F4
:1020E0001C4301680C6001680968C02302F01002FB
:1020F00003FA02F221EA020201680A6000F001F824
:1021000030BD0121017100214171002070470000A4
:1021100010B5846B204600F06BFA0DE0806B00F088
:1021200068BA000010B5846B206940F0040020619B
:10213000204600F05FFA00BF0120207110BD0000B2
:1021400070B590F83C20012A01D1022070BD012217
:1021500080F83C20022280F83D2002685468936891
:102160001E4DAA421EBF02681D4EB24203D124F486
:1021700070044A68144324F070040A681443026827
:1021800054600268AA4218BFB2F1804F11D0124CBD
:10219000A2421CBF134CA2420BD00E4CA2421CBF49
:1021A0000F4CA24205D00A4CA2421CBF0E4CA242C8
:1021B00005D123F0800389680B4311468B60012110
:1021C00080F83D10002180F83C10002070BD000018
:1021D00000400140000C00400004004000000140AD
:1021E000000401400008004000180040F8B52DED43
:1021F000068B41EC180B174653EC182BDFF85C03E9
:10220000DFF85C13FFF774FB41EC190B0C4624F06C
:102210000041D44AD44B00F0EFF95DD29FEDCD0BD5
:1022200051EC100B04F000440C4353EC102B2346EC
:1022300051EC190BFFF760FD00F0F8F9060047D0EC
:10224000FFF744FB0022CA4BFFF752FB41EC190B8E
:1022500053EC192B4FF0A040C649FFF749FB53EC54
:10226000182BFFF749FD04460D4653EC192B4FF090
:10227000C040C149FFF73CFB22462B46FFF73CFD1F
:1022800004460D4653EC192B4FF00050BB49FFF7A5
:102290002FFB22462B46FFF72FFD04460D4653EC3D
:1022A000192B0020B649FFF723FB22462B46FFF7E8
:1022B00023FD04460D4653EC192B4FF00050AB495B
:1022C000FFF716FB22462B46FFF716FD41EC180BD5
:1022D00006F00306F719A8E051EC180B0846410078
:1022E000491511F1010F09D1000340F02D81BDEC1A
:1022F000068B4FF0FF306FF00041F4BD51EC180B2E
:1023000031F0004108BF002805D1002F00F01C81EA
:102310009FED9C8B18E19FED8F0B51EC100B04F09F
:1023200000440C4353EC102B234651EC190BFFF7E0
:10233000E3FC4B0043EAD073420041EC190B002B45
:1023400008BF002A19D040F23344A4EB5352352A77
:1023500004DB00F0000001F000410CE0202A03DD66
:10236000203AD140914000E001D1002003E0002A52
:10237000C4BFD040904041EC190B51EC190B20F038
:10238000000231F0004308BF002A47D053EC192B5C
:1023900000207749FFF7ACFA41EC1A0B53EC1A2BEB
:1023A0004FF0A0407349FFF7A3FA53EC182BFFF747
:1023B000A3FC04460D4653EC1A2B4FF0C0406E4967
:1023C000FFF796FA22462B46FFF796FC04460D4689
:1023D00053EC1A2B4FF000506849FFF789FA224658
:1023E0002B46FFF789FC04460D4653EC1A2B0020C0
:1023F0006349FFF77DFA22462B46FFF77DFC044632
:102400000D4653EC1A2B4FF000505849FFF770FA65
:1024100022462B46FFF770FC41EC180B51EC190BD0
:1024200000F004F900F00300C71951EC180B21F07B
:10243000004100224FF0795300F0DEF804D2F80793
:102440007AD59FED508B77E053EC182B51EC180B9D
:10245000FFF74EFA41EC190BF80731D553EC192B65
:102460004A484B49FFF744FA4A4A4B4BFFF744FCB2
:1024700053EC192BFFF73CFA484A494BFFF73CFC59
:1024800053EC192BFFF734FA464A474BFFF734FC5D
:1024900053EC192BFFF72CFA444A454BFFF72CFC61
:1024A00053EC192BFFF724FA6FF05102414BFFF761
:1024B00023FC53EC192BFFF71BFA00223E4B37E0AD
:1024C00053EC182B51EC190BFFF712FA04460D468A
:1024D00053EC192B39483A49FFF70AFA394A3A4B73
:1024E000FFF70AFC53EC192BFFF702FA374A384B77
:1024F000FFF702FC53EC192BFFF7FAF9354A364B7C
:10250000FFF7FAFB53EC192BFFF7F2F9334A344B80
:10251000FFF7F2FB53EC192BFFF7EAF9314A324B84
:10252000FFF7EAFB22462B46FFF7E2F953EC182BA4
:10253000FFF7E2FB41EC180BB80705D551EC180B7F
:1025400081F0004141EC180B51EC180BBDEC068BEF
:10255000F4BD00BF000000000000E03F83C8C96D6B
:10256000305FE43F0000A0FFFFFFDF419A833BBBE9
:102570000000303EFB21B9C1B41011C026A651BEE7
:102580005C14D3BC000000000000F03F09260A10D4
:1025900039BA213E3BA861C6F97D92BE63AC30904A
:1025A0009F01FA3EF6FB51166CC156BFB10255555C
:1025B0005555A53FFFFFDFBF0000F03FB08F2FC391
:1025C00010D8E53D8F0C73A1E1E55ABE4DADE44F47
:1025D000E31DC73E3EE3B519A0012ABFFAF0101172
:1025E0001111813F425555555555C5BF0022FDE596
:1025F000704770477047000041EA030C50EA4C0CEA
:1026000052EA0C0C4FF4001C09D307D01CEB410F0D
:102610009CBF1CEB430F8B4208BF824270471CEBF0
:10262000430FFBD8994208BF90427047C1F30A5349
:1026300040F21E42D31A0CDDCA0283F3070342EABA
:10264000505242F00042DA4002EBE17282EAE1705D
:1026500070476FEAE17203F2E13008B182F00040A6
:10266000704730B4002512E050F8042BD30744BF64
:102670004A44521E091F042942F8045BFAD2134649
:102680008C0744BF15809B1CC90748BF1D7050F8BC
:10269000041B0029E8D130BC704710B5846B20467C
:1026A00000F010F80BE0806B00F00DB810B5846BF3
:1026B000206940F004002061204600F005F8012068
:1026C000207110BD7047704770470000FEE7FEE7BD
:1026D000FEE7FEE7FEE770477047704700F00AB874
:1026E0000248FEF737BE0248FEF712BAAC0F0020D0
:1026F0000C10002003480168034A12788918016011
:10270000704700BF6C1000200800002010B507497A
:1027100079441831064C7C44163404E00A68081DDC
:10272000114488470146A142F8D110BD2C00000099
:102730004C0000004EF68851CEF20001086840F4CB
:1027400070000860BFF34F8FBFF36F8F4FF00170C1
:10275000E1EE100A704700000BFFFFFF641000005D
:102760000C00002000000000E3E0FFFF0C00000070
:10277000A0000000000000200000000000F00DF8A4
:10278000002801D0FFF7C2FFAFF300800020AFF3B5
:102790000080FEF73CFF00F002F80120704700F0D7
:1027A00001B800000746384600F002F8FBE70000D9
:1027B00080B5AFF30080024A11001820ABBEFBE7E2
:1027C000260002000548014603B4684680F30988E4
:1027D000AFF30080FFF7AEFFFFF7D0FFA5EDF5FEEA
:1027E00000000000000000000102030406070809C1
:1027F000014880470148004701280008C527000814
:102800000248016841F470010160704788ED00E002
:10281000100000000024F400010000000006101663
:1028200000061016FFF7FEBFFFF7FEBFFFF7FEBF63
:10283000FFF7FEBFFFF7FEBFFFF7FEBFFFF7FEBFCC
:10284000FFF7FEBFFFF7FEBFFFF7FEBFFFF7FEBFBC
:10285000FFF7FEBFFFF7FEBFFFF7FEBFFFF7FEBFAC
:10286000FFF7FEBFFFF7FEBFFFF7FEBFFFF7FEBF9C
:10287000FFF7FEBFFFF7FEBFFFF7FEBFFFF7FEBF8C
:10288000FFF7FEBFFFF7FEBFFFF7FEBFFFF7FEBF7C
:10289000FFF7FEBFFFF7FEBFFFF7FEBFFFF7FEBF6C
:1028A000FFF7FEBFFFF7FEBFFFF7FEBFFFF7FEBF5C
:1028B000FFF7FEBFFFF7FEBFFFF7FEBFFFF7FEBF4C
:1028C000FFF7FEBFFFF7FEBFFFF7FEBFFFF7FEBF3C
:1028D000FFF7FEBFFFF7FEBFFFF7FEBFFFF7FEBF2C
:1028E000FFF7FEBFFFF7FEBFFFF7FEBFFFF7FEBF1C
:1028F000FFF7FEBFFFF7FEBFFFF7FEBFFFF7FEBF0C
:10290000FFF7FEBFFFF7FEBFFFF7FEBFFFF7FEBFFB
:10291000FFF7FEBFFFF7FEBFFFF7FEBFFFF7FEBFEB
:10292000FFF7FEBFFFF7FEBFFFF7FEBFFFF7FEBFDB
:10293000FFF7FEBFFFF7FEBFFFF7FEBFFFF7FEBFCB
:10294000FFF7FEBFFFF7FEBFFFF7FEBFFFF7FEBFBB
:10295000FFF7FEBFFFF7FEBFFFF7FEBFFFF7FEBFAB
:10296000FFF7FEBFFFF7FEBFFFF7FEBFFFF7FEBF9B
:10297000FFF7FEBFFFF7FEBFFFF7FEBFFFF7FEBF8B
:10298000FFF7FEBFFFF7FEBFFFF7FEBFFFF7FEBF7B
:10299000FFF7FEBFFFF7FEBFFFF7FEBFFFF7FEBF6B
:04000005080027C503
:00000001FF
