:020000040800F2
:10000000F0F9012065320108D92C0108DD2C010826
:10001000E52C0108ED2C0108F52C0108000000007A
:100020000000000000000000000000006DC2000899
:10003000FD2C01080000000015C20008D9BB000813
:100040003133010835330108393301083D330108E4
:100050004133010845330108493301084D33010894
:100060005133010855330108593301085D33010844
:10007000012D010861330108653301086933010866
:100080006D330108713301087533010879330108B4
:100090007D33010881330108853301088933010864
:1000A0008D3301089133010895330108032D0108B0
:1000B000092D01080F2D0108152D0108993301089C
:1000C0009D330108A1330108A5330108A9330108B4
:1000D000AD330108B1330108B53301081B2D010808
:1000E000B9330108BD330108C1330108C533010824
:1000F000C9330108CD330108D1330108D5330108D4
:10010000D9330108DD330108772D0108E1330108F7
:10011000E5330108E9330108ED330108F133010843
:10012000F5330108F9330108FD33010801340108F2
:1001300005340108852D0108093401080D34010832
:100140001134010815340108193401081D3401085F
:100150002134010825340108293401082D3401080F
:100160003134010835340108393401083D340108BF
:1001700041340108453401084934010800000000F9
:100180004D3401085134010820B1007A002818BF0D
:1001900001F0AFBB104601F001BC00002DE9F84FA3
:1001A00004000E4692469846DFF830BA06D10BF1AD
:1001B0002803A3222BA1584601F06AFD3EB90BF19A
:1001C0002803A4220BF1B001584601F061FDDDF8CF
:1001D0002890032009F0010701F0B0FDBF000500E1
:1001E00003D1304602F00EF819E085F80A9000209D
:1001F00028606E603189B94206DA0BF12803B0221B
:1002000020A1584601F044FD3089C01B28811421EB
:10021000304601F0ADFF20B1284603F025F800205C
:100220001DE068684168E960BF08E08A03F03CFBB4
:10023000E96808807F1D208B03F036FBE968488061
:10024000404603F037FBE96848604AEA073003F0AC
:100250002BFBE96888810020E96848822846BDE8D0
:10026000F28F00007463705F6372656174655F7321
:1002700065676D656E743A20696E76616C6964209D
:1002800070636200702D3E746F745F6C656E203E0B
:100290003D206F70746C656E000000002DE9F04722
:1002A0000E461C00804692463746DFF8309906D14C
:1002B00009F12803E82209F1D40100F023FB089D8D
:1002C0002DB909F12803E9221DA100F01BFB5645B9
:1002D0001AD2099880070AD4A97E480614D40A982D
:1002E00028B1E86E002804BF286F00280CD03146E2
:1002F00001F21B218908BAEB810F31BF574606F284
:100300001B274FF6FC7007404FF4207239464046D9
:1003100001F0AEFD050008BF00200ED0286830B106
:1003200009F1280340F20B120DA100F0EBFA6889E5
:10033000801B20806E812E812846BDE8F08700005A
:100340007463705F706275665F707265616C6C6F0C
:10035000633A20696E76616C6964207063620000A4
:100360006E65656420756E636861696E6564207092
:10037000627566002DE9FE4F8AB0054600200590A3
:1003800000240690099080460026ADF80C000790E6
:1003900008906FF00F07DFF8449835B909F128038A
:1003A0004FF4CF720FF2C44116E0B5F86200698EC7
:1003B0004008814234BFADF80E10ADF80E00BDF814
:1003C0000E0008B9ADF80E100A9848B909F12803D3
:1003D0004FF4D77209F5B47100F094FA384685E10C
:1003E000287D042818BF072805D002281CBF032831
:1003F0006FF00A00F3D1BDF82C0005F1620AD0B10C
:10040000BAF80200BDF82C1088422AD3BAF80400CA
:10041000092826D2B0B105F16C014868002804BF54
:10042000E86E002807D109F128034FF4AB7209F1F7
:10043000F80100F067FAE96EBAF804B0002900F09C
:10044000CF8014E005F16C004168002904BF00680A
:100450000028F0D009F1280340F2591209F59A71E9
:10046000E7E7688B40F0800068833DE1014608685B
:100470000028FBD10C46A77A2189BDF80E0007F0B1
:10048000010701EB8701884207DA09F128034FF4DD
:10049000F3720FF2F03100F035FABDF80E1020893A
:1004A000091AA1EB8707BAF80610ADF80C1089B34A
:1004B000B8B2884207D209F128034FF4FC720FF258
:1004C000DC3100F01FFABDF80C00BDF82C100694CA
:1004D000884288BF0846BAB28242B8BF384680B266
:1004E000079007A8BDF80C2006880799921BADF865
:1004F0000C207F1ABDF80C0000281CBFBDF82C0092
:10050000864207D009F128034FF400720FF2AC3194
:1005100000F0F8F9BDF82C108E426CDAB8B2002861
:100520001CBF208900286BD0B8B2891B8842B1BF9C
:10053000ADF81070BDF82C10891BADF810109DF8A7
:1005400030000694C10718D59DF8301001910120A4
:100550000290009503ABBDF81010BAB20020FFF76F
:100560009DFE002805902DD00A98059BBDF810200F
:100570008119586803F0EAF929E0616800E0014652
:1005800008680028FBD1087B10F0C00F12D1486822
:10059000498901440A9881420CD13EB109F12803EE
:1005A00040F2312209F5CE7100F0ACF9BDF810002F
:1005B000089010E0BDF810100122002001F058FC56
:1005C0000028059071D00A98059930444860059834
:1005D00001F077FE8344BDF810108E19B6B20AE020
:1005E000BAF8060038B109F1280340F24B2209F5A8
:1005F000E47100F087F9BDF82C00864280F2A880F3
:10060000BDF82C00BDF80E10801B80B2884288BF58
:10061000084604909DF83000C10727D5B8F1000FB7
:100620000CBF01200020029003AB9DF83000019028
:1006300000950498BDF80E2081B23620FFF72EFEFB
:10064000019090B341890498814207DA09F12803A7
:1006500040F2672209F5FC7100F054F90A98019BF9
:10066000049A8119586803F071F945E0BDF80C004F
:1006700038B109F1280340F2712200BF97A100F0C0
:1006800041F9049881B2012200F0F0F907000CD082
:100690000A98304478604FF42072002100F0E6F9A7
:1006A000019030BB384601F0ADFD688B40F0800012
:1006B0006883059808B101F0A5FDB8F1000F1CBFD3
:1006C000404602F0C8FDBAF8040068B105F16C00BC
:1006D0004168002904BF0068002805D109F12803FA
:1006E0004FF44A7200F00CF94FF0FF300DB0BDE846
:1006F000F08F394601F007FE019801F0E2FD8344D6
:100700001FFA8BF00A2828BF0198CCD20020009055
:100710000022EB6D0199F3182846FFF73FFD0028F2
:100720000690C2D0B8F1000F08BF80460CD0DDF8AB
:10073000240030B909F1280340F2AB226BA100F08C
:10074000E1F809990698086006980499099044E729
:100750000798B8B1676806460FE039897118398182
:10076000386848B978687B890A993246184403F09A
:10077000EDF87889301878813F68002FEDD1208915
:1007800036182681BDF80C10AAF80610059888B115
:100790003CB909F1280340F2E12209F50E7100F09D
:1007A000B1F80599606801F0AEFD059A21891089BC
:1007B000411821E0089880B2F8B1002C1CBF606895
:1007C000002807D109F1280340F2E72209F51C713E
:1007D00000F098F86268089903E01389CB18138138
:1007E000024610680028F8D1108953890818108132
:1007F000CB18538120890918218105F16C02002C46
:100800000CBFC2F80080C4F80080E86DBDF82C1061
:100810004118E965BAF80230BDF82C00AAF804B016
:100820001B1ABAF80400AAF8023058B1516800291E
:1008300004BF1068002805D109F1280340F21332E3
:1008400000F05EF8069800281CBFC06800280AD097
:100850009DF83000810706D4082003F025F806999A
:10086000C96800F0BEF9002040E700007463705FC3
:1008700077726974653A20696E76616C696420707C
:10088000636200006D73735F6C6F63616C206973EA
:1008900020746F6F20736D616C6C0000696E636F04
:1008A0006E73697374656E74206F76657273697A9E
:1008B000652076732E20737061636500696E636FC7
:1008C0006E73697374656E74206F76657273697A7E
:1008D000652076732E206C656E0000006F76657261
:1008E00073697A65203D3D203000000070726576A6
:1008F0005F73656720213D204E554C4C0000000081
:100900000FF61831484601F0C3B92DE9FE4F050036
:100910008846B24E07D106F1280340F24B3206F565
:100920002A7100F048FCEC6E002C3AD0B8F1000FB0
:100930000AD106F1280340F2533206F5337100F074
:100940003AFC6FF005008FE02189884580F08580B2
:1009500005F132073888404507D206F1280340F2F6
:100960005B320FF6D82100F026FC208938B906F159
:1009700028034FF457720FF6D42100F01CFCA07A24
:10098000019080002689A6EB080600F0040AB6B2A2
:100990000AEB06014FF4207289B200F067F85FEAB3
:1009A00000095FD0606821890389D9F804C05B1A07
:1009B00043449BB232460CEB0A0101F063FDB042A6
:1009C0004DD1E06800F012F900F03F0A4FF0000B43
:1009D0005FEA0A7144BF0AF0F70A4FF0080B5FEABA
:1009E000CA7044BF2AF0010A4BF0010BE16800F025
:1009F00021FB0199C9B2009100EB08035A46494610
:100A00002846FFF7CBFB050029D0606801F059FCB0
:100A1000B98E081AB88660680189891B89B201F00D
:100A200027FB2089861B2681504602F03DFFE168A6
:100A300000F0D7F8606801F044FCB98E4018B88621
:100A4000686801F03EFCB98E4018B88622682A60BA
:100A50002560286808B90021F986002004E048468E
:100A600001F0D0FB4FF0FF30BDE8FE8F362001F0E3
:100A7000FFB938B5040008D158480FF6E01100F16D
:100A8000280340F2EB3201F003F9E56EA5B100E076
:100A9000054628680028FBD100F0A7F810F0070FE2
:100AA0000AD1012002F000FF00F09AF8608B40F0BC
:100AB00020006083002032BD2046BDE83440012183
:100AC0002DE9F8438946002619F0030F0446DFF8A4
:100AD0000C8107D108F1280340F2124208F53C715D
:100AE00000F0F5F93CB908F1280340F213420FF683
:100AF000881100F0ECF95FEA897048BF01264FF4D5
:100B00002072B100FFF7B2FF050014D06889B0EB86
:100B1000860F07DA08F1280340F23A4208F55271CD
:100B200000F0D5F900964A46E36D29462046FFF7C6
:100B300035FB050006D1608B40F0800060834FF0EC
:100B4000FF3048E0287B10F0030F07D008F128039E
:100B500040F242420FF6401100F0B9F9288938B14D
:100B600008F1280340F2434208F5617100F0AFF943
:100B700004F16C06316811B9356004E0014608687B
:100B80000028FBD10D6004F16607002019F0030F67
:100B9000788002D0E06D401CE0655FEAC97003D543
:100BA000618B41F020016183686801F08AFB39881C
:100BB0004018388080B268B17168002904BF30687D
:100BC000002807D108F1280340F2664208F56C714D
:100BD00000F07DF90020BDE8F2830000B4070108B1
:100BE000E9688A89104388817047E868808902F043
:100BF0005BBE2DE9F84F040084B0DFF8588707D1B9
:100C000008F1280340F2E1420FF6A40100F05FF979
:100C1000207D012807D108F1280340F2E44208F5BD
:100C2000767100F054F9DFF830070168A14200F056
:100C30004A8104F14806318B3088814234BF0391E8
:100C40000390756A6DB3221D21462046FFF79CFA7A
:100C50005FEA000907D0002C1CBF2068002807D1DC
:100C600019F1040002D16FF003002DE1006820604B
:100C700000F079F9616C2F89039B401AC0198342F7
:100C800004F1980216D21946338B994204BFB06A18
:100C9000002806D1507820B9002101201170507031
:100CA0009170A07E810740F10981204605B0BDE822
:100CB000F04FF3E200205070B76A27B100E007461A
:100CC00038680028FBD100F04EF9616C2B89039A3B
:100CD000401AC0188242C0F0ED80E968888902F0AD
:100CE000E3FD400707D508F1280340F237520FF221
:100CF000D87100F0ECF8B06AA0B1628B12F0440F2A
:100D000010D1716A29B1086860B90889618E88427A
:100D100008D2B08B30B1F08B082803DC12F0A00FA2
:100D200000F0C880207D022804D0102002F0BCFD15
:100D3000FFF756FF3CB908F1280340F2B9520FF211
:100D4000A07100F0C4F8284600F0C4F8002859D17A
:100D5000606A02F0AFFDE9688860608D02F0A4FD72
:100D6000E968C881606A628D8218E26201F1140A42
:100D7000A87AC1070BD5221D49464FF4067002F030
:100D80007BFC40F0017002F095FD4AF8040BB4F9C9
:100D90003000002844BF00212186606B30B9DFF8A5
:100DA000BC150868606300F0DEF8A0636868E96855
:100DB000426843898A1A92B29B1A4381038941602F
:100DC0009A1A0281002008821431A87A00F00100EA
:100DD00001EB80018A4507D008F1280340F21C622C
:100DE0000FF21C7100F073F80620CDF80890019006
:100DF000221DA17A0091E37A6868214600F0B9FECD
:100E0000010028D128687062217D022904D0618BFD
:100E10004FF6FC700140618300F0A5F88246FFF7B1
:100E2000E4FE10F0030118BF01212889504408187E
:100E3000B168091A48BFB060FFF7D7FE10F0030091
:100E400018BF0120298940182DD000222A60B06ADD
:100E500030B9B56225E0618B41F08001618333E0F8
:100E600000F081F8F968824600F0E4F8BAEB00007F
:100E700016D504F1700A01E0DAF800A0DAF80000F3
:100E800040B100F0D6F8E968834600F0D3F8BBEB38
:100E90000000F1D4DAF800002860CAF8005005E03C
:100EA0003D602F4602E0284602F0DEF9756A002D0B
:100EB0007FF409AF706A08B9002131844FF67F7062
:100EC000618B01406183002005B0BDE8F08F404692
:100ED00000F0DEBE10B5040007D100F021F940F2A9
:100EE0009A5200F5806100F0D3FE6068817B012991
:100EF00001D0012010BD002010BD70B5040007D145
:100F000000F00EF940F2636200F24C4100F0C0FEC6
:100F1000256F2DB303E0FFF7DDFF08BB2D682868C0
:100F200000282846F7D1FFF7D5FFC8B9E06E286042
:100F30000020216FE1662067618B41F400616183CD
:100F400000F011F80646FFF750FE10F0030018BF3E
:100F50000120298971184018E0640020606370BD89
:100F60006FF0050070BDE968486802F0A3BC10B5D9
:100F7000040007D100F0D4F84FF4D36200F58E617D
:100F800000F086FE94F84200FF281CBF401C84F845
:100F900042002046BDE810402BE610B5040009D100
:100FA000DFF8B0030FF26C5100F1280340F2AD629C
:100FB00000F06EFE2046FFF7A0FF18B92046BDE8FE
:100FC0001040D4E710BDF8B5050009D1DFF884035F
:100FD0000FF25C5100F1280340F2C16200F058FEAC
:100FE00005F13406F46B1CB12046FFF773FF10B116
:100FF0006FF00500F2BD2068F0636C3500E02D68ED
:10100000286838B100F015F8E168074600F012F8DA
:101010003F1AF4D4296821602C60206808B90021A7
:10102000B186B07BFF281CBF401CB073002030602D
:10103000F2BDC168486802F03DBC38B5040008D173
:10104000C4480FF2045100F1280340F2F96200F0A5
:101050001FFE04F14805A86AE8B1A07E41071AD432
:101060002046FFF7B0FFB0B9288B2988814238BFEE
:101070000846618E4008B0EB410F38BF480001EBD5
:10108000410111FA80F12980628B42F004026283EF
:1010900068800020208631BD2DE9F84F0D4682463C
:1010A00011464919143199464FF4207289B2222011
:1010B00000F0DEFE040030D0608905F114018842A2
:1010C00007DA00F02DF840F2247200F2944100F0AB
:1010D000DFFDDDF834800C9EDDF82CB00A986768DF
:1010E00002F0E2FB38802D06584602F0DDFB7880E6
:1010F000C7F80490504602F0DDFBAD0EB8606D1DE0
:1011000046EA0536B0B202F0CFFBB881404602F0A5
:10111000CBFBF8810020388278822046BDE8F28F30
:101120008C4800F128037047F8B5040084B00D46E0
:1011300016461F4607D1FFF7F3FF40F2427200F256
:10114000C44100F0A5FD608D0390102102913B4643
:10115000228B01923246E08A00902946606AFFF7AE
:101160009BFF18B1616A628D8A18E26205B0F0BD1A
:1011700070B50C001546774E07D106F1280340F2F2
:10118000567206F2EC4100F016F8606800F11401A6
:10119000143005F0010500EB850291420AD006F1FA
:1011A00028033046BDE8704040F275720FF25031AE
:1011B00000F06EBD70BD304600F06ABDFEB50C009B
:1011C000054616461F4607D1FFF7AAFF40F2877271
:1011D00000F2145100F05CFD3A4631462846FEF715
:1011E000D3FF10B96FF003050FE0002D19BFEB7AA4
:1011F000A97AFF23002102900091062001903A462F
:101200003146204600F0B5FC0546204600F0FAFFC6
:101210002846FEBD2DE9F8431C0084B007468846E9
:101220001646DFF8309107D109F1280340F2C47265
:101230000FF23431FFF766FB0C9D3DB909F128032D
:1012400040F2C5720FF23C31FFF75CFB404602F002
:1012500031FB46F2080103911422BDF83830BDF885
:10126000341001930292009103460022002130467F
:10127000FFF712FF06000DD000230022314638464A
:10128000FFF776FF2B4622463146384605B0BDE8CB
:10129000F04393E705B0BDE8F083000038B50400E3
:1012A00007D12C48BEA100F1280340F2EA7200F0F9
:1012B000EFFC206D02F0FEFA0346002200212046DA
:1012C000FFF732FF050006D1608B40F0030060831A
:1012D0006FF0010032BD0023002229462046FFF7AF
:1012E00047FF231D224629462046FFF767FF628BF2
:1012F000010012BF42F003024FF6FC710A40628304
:1013000032BD000038B5050007D11248ACA100F18C
:10131000280340F6240200F0BBFC286D401E02F0BA
:10132000C9FA0346002200212846FFF7FDFE04000B
:1013300002D14FF0FF3032BD002300222146284663
:10134000FFF716FF2B1D2A462146284601B0BDE8AF
:10135000304033E7B4070108F4B80120A40A0020A4
:101360002DE9F041040007D1FFF7DAFE40F64F0205
:1013700000F5A86100F08CFCE66E0EB900204BE091
:1013800094F89A00FF281CBF401C84F89A00F0686B
:10139000FFF72CFCC00704D531894D1EAD41ED0F80
:1013A00000E00025F068436885F001020021204636
:1013B000FFF7BAFE5FEA000808BF4FF0FF302BD0FE
:1013C000D8F804704DB1112002F06EFABA894CF2CF
:1013D000FF010A401043B88109E070683189038930
:1013E0005B1A9BB2012207F1140101F04BF8F1687E
:1013F000FFF720FE216D401C091A48BF206500231D
:10140000002241462046FFF7B3FE231D22464146F7
:101410002046BDE8F041D1E6BDE8F0817463705F1D
:1014200077726974653A2076616C696420717565BC
:101430007565206C656E67746800000073706C6978
:1014400074203C3D206D7373000000007573656768
:101450002D3E6C656E203E20300000007463705F8E
:1014600073656E645F66696E3A20696E76616C6959
:1014700064207063620000007463705F656E717554
:101480006575655F666C6167733A20696E76616C3D
:1014900069642070636200007365672D3E74637039
:1014A000686472206E6F7420616C69676E65640099
:1014B0007463705F6F75747075743A20696E7661CD
:1014C0006C69642070636200525354206E6F742004
:1014D00065787065637465642068657265210000D5
:1014E0007463705F6F75747075745F7365676D6535
:1014F0006E743A20696E76616C6964207063620074
:101500006F7074696F6E73206E6F742066696C6C97
:10151000656400007463705F7265786D69745F72F2
:10152000746F3A20696E76616C6964207063620042
:101530007463705F7265786D69743A20696E766164
:101540006C696420706362007463705F7265786DAB
:1015500069745F666173743A20696E76616C696460
:1015600020706362000000007463705F7273743AED
:1015700020696E76616C6964206C6F63616C5F6971
:10158000700000007463705F7273743A20696E7645
:10159000616C69642072656D6F74655F69700000CD
:1015A0007463705F73656E645F656D7074795F619D
:1015B000636B3A20696E76616C69642070636200C7
:1015C0007463705F6B656570616C6976653A2069FC
:1015D0006E76616C696420706362000070472DE96B
:1015E000F0470500DFF82C8306D108F1280340F20C
:1015F00027120FF22C3108E0099C200008D108F1D5
:1016000028034FF4947208F1B00100F0A2F82DE025
:10161000DFF8040301B9014602B9024603B90346E3
:101620000A98089F0FF2C5260FF210394FF0000CF0
:10163000C5F804C0C5F808C0C5F80CC06E61A5F8AF
:1016400024C005F12D0686F800C02F62C5F81CC025
:10165000DFF8C87297F800C086F803C028612846F2
:1016600000F090F82846A047002803D0002032E080
:10167000401CF070F078FF2804BF0021F1707C68F6
:101680004FF0000A1BE0AC4206D108F1280340F2FB
:101690008B12494600F05DF80AF1010ABAF5807F25
:1016A00007DB08F1280340F28D1208F1D40100F0A5
:1016B00050F8F07894F830108142D9D02468002C8A
:1016C000E1D1F078FE280CBF0020401C387078680B
:1016D00028607D602846BDE8F08738B504460D4691
:1016E00001F0FEFF29462046BDE8344002F0E0BB91
:1016F0002DE9FC410C00064615460FF25427DFF891
:10170000148205D108F1280340F2CB1200F020F832
:101710002DB908F128034FF4E67200F019F820689B
:101720007168884211D00090284671682960694626
:10173000FFF7D3FF002C0CBF002020687060012150
:10174000304600F061F8012000E00020BDE8F6819D
:101750003946404600F09CBA0A6883689A4204D031
:1017600001B90022826001207047002070470A689A
:10177000C3689A4204D001B90022C26001207047B8
:10178000002070472DE9FC4180460C0017461E469C
:10179000614808BF044607B9074606B90646002C4B
:1017A0001CBF2068002803D100F012F8012500E0DA
:1017B0000025002239464046FFF7CEFF0022314681
:1017C0004046FFF7D4FF0DB900F002F8BDE8F38101
:1017D0006A46214640468BE75049886070470000C2
:1017E00038B94C485EA100F128034FF4547200F060
:1017F0004FBA90F82D10CA0705D441F0010180F8C6
:101800002D10032100E0704738B504000D4608D1C3
:10181000404800F1280340F26D3200F5947100F069
:1018200037FA94F82D1001F0050005280BD1EA07CE
:1018300009D5606838B1080705D5211D2046BDE8E7
:10184000344002F0C7BF31BD38B932484BA100F176
:10185000280340F29B3200F01BBA90F82D10CA0703
:1018600007D501F0FE0180F82D10090748BF02F0EE
:1018700017BD704738B504000BD101B0BDE830404A
:10188000244800F128034FF4787200F5A67100F0A7
:10189000FFB904F11C05687C41070CD440F004003A
:1018A000687403212046FFF7AFFF296819B120466D
:1018B000BDE83440084731BD40B9164800F128035F
:1018C00040F2064200F5B87100F0E2B900F11C01E7
:1018D0004A7C530706D502F0FB024A7409680029C6
:1018E00018BF0847704700B1C16170476FF00B0027
:1018F000704701000BD00948406800E0006830B133
:101900004A1E90F83030D2B29A42F7D17047002088
:1019100070470000342201082C33010878B90120F7
:101920006E657469665F6164643A20696E76616CA5
:101930006964206E65746966000000006E657469F4
:101940006620616C7265616479206164646564001D
:10195000696E76616C696420706F696E746572007F
:101960006E657469665F7365745F75703A20696E41
:1019700076616C6964206E65746966006E65746971
:10198000665F7365745F646F776E3A20696E766127
:101990006C6964206E6574696600000070B5DFF8DC
:1019A000CC1204680A6800E01268AAB192F82D30DF
:1019B00003F005010529F7D151680029F4D0956895
:1019C00005EA040629408E4204D09907ECD4D36876
:1019D0009C42E9D1104670BDA549096859B191F8FA
:1019E0002D2002F00502052A05D14A68002A1CBFF5
:1019F00000787F2801D1002070BD084670BD80B5F9
:101A0000014691F82D00C2070AD54A6842B19948AB
:101A10004069904202D002F02BFF08B1012002BDC4
:101A2000002002BD2DE9F843054689466F683978E4
:101A3000080904284BD1880000F03C08788801F0A0
:101A400033FF29898842044603D22146284600F004
:101A50000FFB688940453ADB2989A14237D3B8F1A9
:101A6000140F34DB3869834E7061F8683061307D63
:101A700000F0F000E02808D199F82D00C10702D548
:101A8000D9F8040028B9002415E04846FFF7B7FF4D
:101A900008B14C460FE0307D00247F280BD07348FE
:101AA000046800E0246834B14C45FBD02046FFF7C1
:101AB000A6FF0028F6D03069494602F0D9FE30B9B9
:101AC000307C00F0F000E02818BF002C03D128463D
:101AD00000F098FB09E0F8884FF63F71084207D004
:101AE000284603F05FF8050001D100203FE06F6851
:101AF0003460C6F80490B76041463878800000F042
:101B00003C00B081284600F035FB787A01280DD0E2
:101B1000062806D011280ED14946284601F02DFF8F
:101B20001EE04946284603F09DFB19E04946284639
:101B300004F094FD14E07069214602F099FE60B94A
:101B4000307D00F0F000E02807D04146284600F044
:101B500040FB0221284604F010FE284600F052FB0C
:101B6000002030607060B060B08130617061BDE8AD
:101B7000F2833EB5089D0C4622B100291ABF0968C0
:101B800000292C1D02959DF818109DF81C500091FD
:101B90000195214600F002F83EBD00002DE9F84312
:101BA00006468846B07BDFF8D090012814461D46D3
:101BB00000F0088009F128034FF4557231A148461E
:101BC00000F066F8ACB31421304600F0D1FA98BBAF
:101BD00070897768142808D209F1280340F2893205
:101BE00009F1B401484600F053F8099808993D728C
:101BF000787245222068214D38613A7079703089B9
:101C000001F052FE78800020F880288801F04CFE18
:101C1000B8802888401CB8F1000F288003D11848EC
:101C20000168F96002E0D8F80000F86000217981CD
:101C300009E07089142802DA6FF0010014E071687D
:101C4000086900906C460A9B988C40B131898842A3
:101C500005D222461946304603F080F904E01846C2
:101C60005B69224631469847BDE8F2837CB9012082
:101C700080B9012050B90120F42B0108E8B90120F6
:101C80002C330108702D3E726566203D3D203100E9
:101C90000EB4C0B5024603A800210190009101AB2B
:101CA0000121044878440C3004F0B3FD06BC5DF813
:101CB00010FB00BF8915010030B5816800220A6061
:101CC00000234268D21C9208920005E00C68146060
:101CD0000A605B1C05882A444488A342F6DB30BDB9
:101CE00038B50024374DA0B255F82000FFF7E4FFC7
:101CF000641CA1B20D29F6D331BD38B5044605F0F8
:101D0000A0FD0546A06804689CB12168016014F03C
:101D1000030009D02B4800F1800300F15C0140F280
:101D200019123430FFF7B4FF284605F093FD204622
:101D300032BD284605F08EFD002032BD10B50D28BD
:101D4000204C0ADB04F1800340F257121EA104F17B
:101D50003400FFF79DFF002010BD54F82000BDE8BF
:101D60001040CAE738B504460D4615F0030009D007
:101D7000DFF850001CA100F1800340F26D123430F6
:101D8000FFF786FF05F05DFDA1680A682A600D6017
:101D9000BDE8324005F05EBD10B50D28094C0ADBE8
:101DA00004F1800304F13400BDE810404FF4D57213
:101DB00015A1FFF76DBF21B154F82000BDE8104018
:101DC000D0E710BD0C2901086D656D705F6D616C09
:101DD0006C6F633A2074797065203C204D454D50FE
:101DE0005F4D4158000000006D656D705F66726563
:101DF000653A206D656D2070726F7065726C792028
:101E0000616C69676E6564006D656D705F667265B3
:101E1000653A2074797065203C204D454D505F4DEA
:101E20004158000080B505F00CFDDFF810270021B7
:101E3000117005F00FFDDFF80807006800E0C068CA
:101E400030B1416F0029FAD0BDE8024001F076BC04
:101E500001BD70B5BDF91050059C002606604160BB
:101E6000057344730121C67302814381817370BD80
:101E70002DE9FE4F174606468B46DFF8C896012F20
:101E800018BF412F06D0B7F5C17F0AD0B7F5207F24
:101E900071D0A4E0002000F0ABF804462046BDE875
:101EA000FE8F0024A0460C20FFF748FF05003BD022
:101EB000F01C4FF6FC710840C0F580601FFA8BFAE9
:101EC00080B2824588BF8246A81900F11001002225
:101ED000C91C01928908009753461FFA8BF28900AA
:101EE0002846FFF7B6FF287910F0030F07D009F155
:101EF000580340F2011209F1280100F0C0FAF61C63
:101F0000B608B600764216F5806F07D109F158037E
:101F100040F2031209F1E00100F0B1FA002C0CBF0D
:101F20002C46C8F800501DE005F08BFCDFF80C567D
:101F300095F800800121297005F08CFCB8F1000FA4
:101F40000BD10021DFF8000605F01DFD28B105F0DA
:101F500078FC0021297005F07DFC1CB3204600F0C0
:101F600051F91FE0ABEB0A0B00261FFA8BF000289B
:101F7000A84698D192E7F21C0BF103019208890858
:101F8000920002EB810202F1100092B2B2EB810FDB
:101F900024BF82B2B2EB810F04D380B205F012FFEE
:101FA000040001D100207AE7002001900097A019D9
:101FB00000F11001C91C89085B465A468900204679
:101FC000FFF747FF207910F0030F07D009F15803FE
:101FD00040F2231209F58A7100F051FA5EE709F127
:101FE000580340F227120FF2645100F048FAD9E783
:101FF000FEB5174605460E46412F18BF012F09D0E2
:10200000DFF840050FF2605100F158034FF4A5725C
:10201000FFF73EFE0B20FFF791FE040001D10020E8
:10202000FEBD0020019000973346324629462046E7
:10203000FFF70FFF2046FEBD3EB51C46C01C079BA8
:10204000800801EB8005AB4201D200203EBD069B1B
:10205000002B14BF03EB80000020022301930092A9
:102060000B460A4601462046FFF7F3FE20463EBDDA
:102070002DE9F04104000E46DFF8C85408D105F1FF
:1020800058034FF4CC720FF2F4412846FFF700FEDC
:102090002789BE423AD2BF1BBFB20FF2F8480EE00A
:1020A000361A2089C01B2081B6B224683CB905F1DC
:1020B000580340F2AF1241462846FFF7E9FD608918
:1020C000B042EDDB207B10F00F0F17D16089864204
:1020D00014D0617B880711D46168091B711889B21B
:1020E000204605F0D1FD040008D105F1580340F267
:1020F000BD120FF2B8412846FFF7CAFD668126815E
:10210000206808B100F07EF800202060BDE8F08172
:10211000F8B558B9DFF82C040FF2AC4100F15803C0
:1021200040F2DF12FFF7B4FD0120F2BDB1F5803FB0
:10213000FAD2D9B104890B46E418A5B29EB2B542D1
:10214000F2D3077B3D0607D542684942114400F1AE
:102150001005A94205D2E7E7002AE5D042684942C6
:1021600011444160048141895B1843810020F2BD24
:102170000022CDE710B5DFF8CC4330B904F15803A5
:1021800040F24B220FF240410DE0B1F5803F0DD2FD
:10219000B1B143898AB293420ADA04F1580340F29A
:1021A00055220FF230412046FFF772FD012010BD8D
:1021B0004468214441609B1A018943818A1A028143
:1021C000002010BD0B0058BFFFF7A2BF5B421946AD
:1021D000D0E70122F6E738B505460C4607E0284669
:1021E0002D68641A00210160A4B200F00BF83CB124
:1021F00035B169898C42F2DA21462846FFF7BAFFE9
:10220000284632BD2DE9F0470400DFF8388309D1B4
:1022100008F158034FF437720FF2AC3100F04EF86A
:10222000002049E000250FF2E4390FF2C83A05F02A
:1022300008FB0646A07B30B908F1580340F2F122B2
:10224000514600F03BF8A07B471EA773304605F0CF
:1022500001FBFFB27FBB617B207B26688A0700F011
:102260000F000DD5206938B908F1580340F2FF225C
:1022700008F5A07100F022F821692046884717E090
:10228000022802D121460C2003E0012804D1214676
:102290000B20FFF781FD0BE018B9204605F035FC57
:1022A00006E008F1580340F20F32494600F006F804
:1022B0006D1C3400BBD1E8B2BDE8F0874046FFF7A3
:1022C000E7BC0146002001E00968401C0029FBD161
:1022D00080B2704710B5040014D005F0B2FAA17BAB
:1022E000491CA17305F0B6FAA07B58B9BDE81040AF
:1022F000DFF850020FF2283100F1580340F2423269
:10230000FFF7C6BC10BD70B504000D46DFF834629F
:1023100018BF002D0FD106F1580306F5B2713046F3
:10232000BDE8704040F25A32FFF7B2BC21892A89D9
:1023300051182181044620680028F7D1208961893D
:10234000884208D006F1580340F2623206F5CE7199
:102350003046FFF79DFC206840B106F1580340F27B
:1023600063320FF2D0213046FFF792FC2189288991
:1023700041182181256070BD10B50C46FFF7C3FFE1
:102380002046BDE81040A5E72DE9F04705460026A8
:1023900000270C466FF00F08DFF8A891002D18BF3A
:1023A000002C03D028892189884206D209F15803DC
:1023B00040F2CA3209F5F8714AE06089A0EB070AD9
:1023C0006889801B504538BF824660686B68C119B8
:1023D0005246981901F0BAFA68895644B0425744F7
:1023E00007D209F1580340F2D9320FF2582100F018
:1023F00046F86089B84207D209F1580340F2DA3250
:102400000FF2582100F03BF86089874224BF002773
:1024100024686889864202BF00262D68002D10D0EE
:102420002CB160892189884201D12068A0B92DB1E1
:1024300068892989884201D1286890B9002CBCD1CB
:102440001AE0CCB109F158034FF479720FF2282148
:1024500000F015F8404610E009F1580340F2EA3266
:1024600003E009F1580340F2EF3209F5087100F07A
:1024700006F86FF0050000E00020BDE8F087484650
:10248000FFF706BC2DE9F8430446002688461546AA
:10249000B1462C4834B900F1580340F20A420FF219
:1024A000E81108E0B8F1000F1CD100F1580340F228
:1024B0000B4200F51371FFF7EBFB002021E0C01A7F
:1024C00080B2AFB28742C8BF074660689BB2C118EE
:1024D000B0B23A46404401F039FA2468B944BE1912
:1024E000ED1B0023A8B250B107E099B26089002922
:1024F000E5D08142E3D324681B1A002CF5D11FFAE2
:1025000089F0BDE8F283000038B515460A462989EE
:10251000FFF7AEFC040001D1002032BD2946FFF7D1
:1025200033FF40B1DFF81C005FA100F1580340F217
:102530002452FFF7ADFB204632BD0000EBB901206D
:10254000B00A0020C8170108251E000870627566D1
:102550005F616C6C6F633A206572726F6E656F7548
:102560007320747970650000696E76616C6964200F
:10257000706275665F7479706500000070627566E0
:102580005F7265616C6C6F633A207020213D204E54
:10259000554C4C00706275665F7265616C6C6F6360
:1025A0003A207120213D204E554C4C006D656D5FE9
:1025B0007472696D2072657475726E656420712025
:1025C0003D3D204E554C4C007020213D204E554C39
:1025D0004C000000696E6372656D656E745F6D61BD
:1025E000676E6974756465203C3D20702D3E6C6596
:1025F0006E000000706275665F667265653A2070F5
:102600002D3E726566203E2030000000696E7661C6
:102610006C696420706275662074797065000000D2
:102620007062756620726566206F766572666C6F83
:1026300077000000702D3E6E657874203D3D204E81
:10264000554C4C006F66667365745F746F203C3D3B
:1026500020705F746F2D3E6C656E00006F66667350
:1026600065745F66726F6D203C3D20705F66726FAF
:102670006D2D3E6C656E0000705F746F20213D20F3
:102680004E554C4C00000000706275665F636F70C1
:10269000795F7061727469616C3A20696E76616C01
:1026A0006964206275660000706275665F636F70B2
:1026B00079206661696C65640000000080B505F0F2
:1026C000A3FCC0F30D00DFF8BC16A0F58040088025
:1026D00001BD000010B50446207D012840F00880AF
:1026E000DFF8A40605A100F12803D422FFF7D0FAF1
:1026F0002146BDE810400120FFF74EBB7463705FB8
:10270000667265653A204C495354454E00000000FE
:1027100080B500F026FDDFF83C0A0178491C017005
:10272000C80703D5BDE8014000F03EBB01BD000075
:102730002DE9FE4304000D46DFF84C8640F007808B
:1027400008F128034FF4AF7274A100F025F9217D40
:10275000DFF8046A002D42D0042918BF07293ED1B2
:10276000A06F002804BF208DB0F5066F37D0A07E83
:10277000C10606D408F128034FF4B2726FA100F02D
:102780000BF9208B0290221DE18A009201912346D1
:10279000626A216D2046FEF73DFD204600F0D0FE26
:1027A0003069A04203D1C068306106E0084620B11C
:1027B000C168A142FAD1E168C1600020E060012156
:1027C000DFF80C2A31701068A04204D103F0ABFE90
:1027D0000020BDE8FE832046FFF77CFFF8E719B133
:1027E000022955D013D35BE0E08A0028F3D0B0680B
:1027F000A04203D1C068B06006E0084620B1C168BD
:10280000A142FAD1E168C1600020E060E3E794B939
:1028100008F1280340F211125CA100F0BDF800207D
:10282000017D012900F0078008F128034FF4897227
:1028300049A100F0B1F801270FF2385959F82700E3
:1028400005686CB908F12803FF2208F1AC0100F01B
:10285000A3F805E0E86FA04204BF0021E967ED6836
:10286000002DF7D17F1C042FE8D3214606F10C0080
:1028700000F096FE207D012805D108F12803DF2213
:102880003BA100F089F821460220FFF785FA9FE777
:10289000214606F1100000F083FE012030709AE717
:1028A0002046BDE8FE4300BF38B5050040F0098072
:1028B000DFF8D40435A100F128034FF4CE72FFF7FE
:1028C000E7F9287D032804D004280AD0072813D06C
:1028D00019E02846FEF7CDF8040007D10520287539
:1028E00005E02846FEF7C5F80400F7D06CB9284685
:1028F000FEF77FF9204632BD2846FEF7BAF80400FD
:10290000F4D10920EBE7002032BD14F1010FF1D121
:10291000688B40F008006883F5E700007463705F1F
:10292000636C6F73655F73687574646F776E3A205C
:10293000696E76616C696420706362007063622DF9
:102940003E666C61677320262054465F5258434CA4
:102950004F534544000000007063622D3E73746164
:102960007465203D3D204C495354454E0000000005
:102970007463705F667265655F6C697374656E3AE7
:1029800020214C495354454E0000000070636220E2
:10299000213D204E554C4C004046FFF779B90000D0
:1029A00080B558B9DFF8AC090AA100F128034FF44B
:1029B000F472FFF76DF96FF00F0002BD017D012980
:1029C00003D0418B41F0100141830121BDE8044057
:1029D000AEE600007463705F636C6F73653A2069E4
:1029E0006E76616C696420706362000010B504004B
:1029F00040F00980DFF85C0913A100F1280340F2E0
:102A0000072200F077BC207D012819D089B1608BA6
:102A100040F01000608322B101212046BDE8104043
:102A200086E6A06F18B1FFF7EDFB0020A06700203D
:102A300010BD002AFBD0C01E0128EED9001FECD02B
:102A40006FF00A0010BD00007463705F73687574E6
:102A5000646F776E3A20696E76616C69642070638A
:102A6000620000002DE9F84F040084B08B46DFF8C7
:102A700018030AD10DF1140DBDE8F04F00F1280341
:102A800040F23D222DA1FFF703B9217D012907D195
:102A900000F1280340F2412200F1D401FFF7F8F8D9
:102AA000217DDFF8B4760A2909D1214607F1140007
:102AB00000F076FD204605B0BDE8F04F0AE6206D37
:102AC00003900025666AD4F890A0D4F81080E08ABC
:102AD000A94621B960B100F059F9E56008E08146E6
:102AE000214607F1100000F05BFD01205D463870C3
:102AF000206F08B100F0AFFBE06E08B100F0ABFB57
:102B0000606F08B100F0A7FB5DB1208B0290211D22
:102B10000091CDF804902346039932462046FEF7F3
:102B200079FB2046FFF7D6FD5FEA0A0003D06FF07D
:102B30000C014046D04705B0BDE8F08F7463705F6C
:102B40006162616E646F6E3A20696E76616C696471
:102B50002070636200000000012183E7F8B505469C
:102B60000C00134608BFDFF8D449DFF81C024DB94A
:102B700000F1280340F2A92222A1FFF789F86FF0A3
:102B80000F00F2BD297D51B100F1280340F2AB22C4
:102B900000F58471FFF77CF86FF00500F2BD1800B6
:102BA00006D100F0C1F803001DD16FF00100F2BDA5
:102BB00000270FF2C01656F82700026800E0D2681E
:102BC00072B1D08A9842FAD13AB1116829B124B1D0
:102BD0002068002818BF8142F1D16FF00700F2BDD4
:102BE0007F1C042FE7DB002C1EBF20680028286014
:102BF000DFF86405EB828168E960856005F066FABC
:102C00000020F2BD7463705F62696E643A20696E81
:102C100076616C696420706362000000F8B504009E
:102C2000DFF8305708D105F1280340F2A63205F548
:102C3000CC712846FFF72CF8218D666A628E7018D9
:102C400040F23147BA42A8BF4FF48662E36AC01A25
:102C5000821A01D46185F2BDF01A0028C8BF00268F
:102C60000CDC9E1BB6F5803FC0F0088005F1280300
:102C700040F2B63203A12846FFF70AF86685002025
:102C8000F2BD00006E65775F7263765F616E6E5FA6
:102C9000776E64203C3D20307866666666000000F2
:102CA00038B504000D46DFF87C0A0AD10DF1040D99
:102CB000BDE8304000F1280340F2CF3214A1FEF706
:102CC000E7BF217D012907D100F1280340F2D3326B
:102CD00000F5DE71FEF7DCFF208D2D18ADB240F659
:102CE00061018D4201DA854201DA4FF406652585DE
:102CF0002046FFF793FFB0F5067F08D3608B40F0C6
:102D0000020060832046BDE83240FDF772BF31BD4E
:102D10007463705F7265637665643A20696E76618C
:102D20006C6964207063620070B5002211A3154CB9
:102D30002088401C4FF6FF7581B2A94208BF4FF4AE
:102D40004040208000252088E9B253F8211009680E
:102D500000E0C96849B1CE8A8642FAD1521C90B2CD
:102D6000B0F5804FE4DB002070BD6D1CE9B2042992
:102D7000EADB70BDAC0A0020A80A0020B00A0020DF
:102D8000B40A00209C0B0020180D0108B868A0426E
:102D900003D1C068B8607047084620B1C168A1423D
:102DA000FAD1E168C16070472DE9FE4FDFF8A863F2
:102DB000DFF8A0A57068401C70607078401C7070CF
:102DC00028E0A84207D00AF1280340F271520AF520
:102DD0004D7100F0C3F9E8683061B8F1000F0BD015
:102DE000288B02902A1DE98A009201912B466A6A7B
:102DF00021692846FEF70EFA2C692846ED68FFF790
:102E000069FC002030705FB16FF00C012046B847BC
:102E1000307828B135694FF0000901E0A946ED6826
:102E2000002D00F05881287D38B90AF1280340F2BE
:102E3000BE420AF5057100F091F9287D012807D1FD
:102E40000AF1280340F2BF420AF5107100F086F93A
:102E5000287D0A2807D10AF128034FF498620AF561
:102E60001B7100F07BF97078A97F8142D6D0A877DA
:102E70004FF0000B287D0228D84605F1400405F1EB
:102E8000980706D1A0780628A8BF4FF0010B80F262
:102E90009A80A0780C2819DA7878002840D0206B26
:102EA00038B10AF1280340F2D4420AF5277100F044
:102EB00055F9E06A38B90AF1280340F2D5420AF51B
:102EC000347100F04BF9B8780C2802DB4FF0010B9D
:102ED0006CE079780FF6C810014411F8010C3978CC
:102EE0008142BCBF491C3970397881425EDB218C3C
:102EF0000029284604D1FEF733FA002856D107E00E
:102F0000FDF703FD20B92846FDF773FE00284DD0DC
:102F100087F800807878062848D8401C787045E00B
:102F2000B5F93000010005D447F6FF7290421CBF8E
:102F3000401C2886B5F93000B4F90010884235DB12
:102F40002846FDF7DAFF18B1206B78BBE06A68B35A
:102F5000287D022814D0A0780C2828BF0C20B5F9B1
:102F60003C10B5F93E2002EBE1020FF624110856A1
:102F700002FA00F047F6FF718842A8BF0846208099
:102F8000A5F83080208C2189814238BF0846698E9F
:102F9000490040088BB2984238BF08466081688E6D
:102FA0002081A4F82A802846FDF7E1FF287D062825
:102FB00009D1A87EC10606D57068296A401A292859
:102FC00028BF0BF1010B687A010728D5287D04285A
:102FD00018BF072823D17168286ADFF84C27081A20
:102FE000616D52184FF4FA73B2FBF3F3834204D2CB
:102FF0000BF1010B4FF0010811E0FA78DFF82C37E4
:1030000003FB02114FF4FA72B1FBF2F1814206D2D6
:103010002846FEF777F910B9F878401CF870606B15
:1030200060B17068296AB4F900200623401A12FBC7
:1030300003F3984224BF284600F080FB287D032834
:103040000BF1010104D170682A6A801A292805E071
:10305000092805D170682A6A801AF12828BF8B4692
:103060005FFA8BF0B0B1276D284600F069FAB9F12C
:10307000000F30693FF4A5AE854207D10AF128035D
:1030800040F26D520AF5427100F068F8E868C9F83C
:103090000C00A2E6A94699F81C0099F81D10ED68ED
:1030A000401C89F81C00C0B2884213D3002089F864
:1030B0001C003070D9F88C204AB1D9F8100049466C
:1030C0009047317800297FF4A5AE002802D1484608
:1030D000FDF78FFDA4E675694FF000090FE0A842E7
:1030E00007D00AF1280340F2B3520AF56E7100F0DE
:1030F00035F8E86870612846ED68FFF7EBFA3DB3F4
:10310000287D0A2807D00AF1280340F2A1520AF5C7
:10311000587100F023F87068296A401AF12814D316
:10312000284600F00DFA7069B9F1000FD7D085423A
:1031300007D10AF1280340F2AF520AF5647100F09A
:103140000DF8E868C9F80C00D5E7A946ED68D6E7A0
:10315000BDE8F78FECB90120A00A00205046FEF729
:1031600097BD70B5DFF8C8556878401C68702C6949
:1031700020E0A077608BC10706D500F023F8608BB4
:103180004FF6FC7108406083608B010706D54FF64F
:10319000F772104060832046FFF786FBE668A06F59
:1031A00038B100212970204600F014F82878002852
:1031B000DDD134462CB16878A17F8142D9D1E46851
:1031C000F8E770BD40F0020060832046FDF711BDB6
:1031D000F4B801202DE9F04104000AD100F084F98F
:1031E00040F2096200F57871FEF752FD6FF00F00B2
:1031F0002FE0A76FD4F884507E7B0020002DA067BD
:1032000003463A46214602D02069A84701E000F073
:1032100056F801006FF00C0812D1B00618D5208DB9
:10322000B0F5066F1CBF401C2085D4F884507DB1DA
:103230002069002300222146A847404508D101E02B
:10324000404501D1404604E0A7676FF0040000E06C
:103250000020BDE8F08110B5002803E0046800F00C
:1032600003F82000FAD110BD10B5040009D0606841
:1032700008B1FEF7C7FF2146BDE810400320FEF766
:103280008BBD10BD38B5050009D1DFF898040FF2E9
:10329000C04100F1280340F28262FEF7F9FC0320EE
:1032A000FEF74CFD040001D1002032BD102229465A
:1032B00000F04CFB6068FFF70DF8204632BD10B5FA
:1032C0000800144607D123480FF2A04100F128035B
:1032D0004FF4D3620EE03CB12189FFF7E1FC2046B8
:1032E000FEF790FF002010BD002BFBD1BDE8104081
:1032F000FFF756BBFEF7CCFC6FF00F0010BDB0B56A
:103300000446082818BF092808D012480FF278414F
:1033100000F1280340F2DD62FEF7BAFCDFF810345A
:1033200018695F680021002209E0057DA54205D1EA
:10333000056A7D1B8D4224BF29460246C0680028CD
:10334000F3D12AB1BDE8B04000211046FFF78ABB97
:10335000B0BD0000180D0108F8B5064600F085F86C
:103360000400DFF8CC5358D1286900280AE0418BCB
:10337000C4680A0705D54FF6F77319404183FFF774
:1033800093FA2000F3D168696C680022002106E0FE
:10339000036AE31A934224BF1A460146C068002814
:1033A000F6D111B10846FFF7D7FB00F05EF8040034
:1033B00033D10920FFF7A3FF00F057F804002CD108
:1033C0000820FFF79CFF00F050F8040025D1802E64
:1033D000A8BF7F2001DA30001CD0421E2869D2B27B
:1033E0000023002110E0447D944207DB0BD16F687D
:1033F000D0F820C0A7EB0C079F4204D36968036A8A
:10340000CB1A01462246C0680028ECD111B108460B
:10341000FFF7A2FB00F029F8044624B39C212046C4
:1034200004F01AFF04F1480066754FF48661818349
:103430004FF40662628522854FF40673FF22E27222
:1034400063860622A4F84020E28701234FF0FF3272
:10345000228603806A6822626B78B64AA37741802D
:10346000C264B549C1632046F2BD0120FEF766BCC7
:1034700000BF402070E700B10161704738B50C46CD
:1034800068B100F114052878012807D100F02CF864
:1034900040F2DF7200F58161FEF7FAFB2C6731BD67
:1034A00038B504000D460CD0207D012807D100F06E
:1034B0001BF840F2F37200F58661FEF7E9FBC4F8F1
:1034C000805031BD38B50C4668B100F1140528783C
:1034D000012807D100F008F840F60D0200F58B61D5
:1034E000FEF7D6FBEC6731BD8E4800F1280370472C
:1034F00018B1027D012A08BF8161704770B50400D0
:103500000D461646874809D1BDE8704000F12803F2
:1035100040F63D020FF28021FEF7BABB217D012962
:1035200007D100F1280340F63E020FF28421FEF796
:10353000AFFBC4F88C50667770BD00002C330108D7
:1035400038B504000BD101B0BDE8304075480FF22A
:10355000802100F1280340F65102FEF799BB207D3F
:1035600000281CBF0A28012819D004F16805286921
:1035700018B1FEF747FE00202861E86810B1204628
:1035800000F0DCF84FF0FF3020866868FFF763FE3C
:10359000A868FFF760FE00206860A860288031BD41
:1035A00070B50C0005465F4E07D106F1280340F6C2
:1035B00083020FF2382100F04AF83DB906F12803E2
:1035C00040F684020FF2402100F041F82868A04242
:1035D00003D1C068286006E0084620B1C168A14256
:1035E000FAD1E168C1600020E0602046FFF7A8FF43
:1035F000207D0A2809D0012825D0608BC10704D579
:10360000FFF7E0FD207D01281DD0D4F86C0030B11B
:1036100006F1280340F6930283A100F018F8D4F8CD
:10362000700030B106F1280340F6940284A100F046
:103630000EF8D4F8740030B106F1280340F6960273
:1036400086A100F004F800202075E08270BD3046AD
:10365000FEF71EBB80B540B9DFF8C80085A100F1B8
:10366000280340F6AF02FEF713FB314A9069516818
:103670000818906102BD000038B505460C463AB9FD
:10368000FFF732FF40F6C50200F59061FEF700FB40
:10369000002C1CBFA08C002807D02828CCBF2838BD
:1036A000002080B2854288BF0546284632BD70B5ED
:1036B00005000C4609D1FFF717FF4FF4106200F523
:1036C0009561FEF7E5FA00E0344644B120682968C8
:1036D000E668884204BF2046FFF73EFAF4E770BD73
:1036E00070B504000D461CBF2068002818D0104E8D
:1036F00031692046FFF7DBFFB1682046FFF7D7FFAF
:10370000002D1CBF286800280AD0F06806E0016878
:103710002268914204BF2B680360C0680028F6D17C
:1037200070BD0000180D0108B84C0A00F824010013
:10373000A00A002000DD6D00BF32000810B504466D
:10374000606F18B1FFF787FD0020606710BD0000B3
:103750007463705F7365675F636F70793A20696E39
:1037600076616C6964207365670000007463705F44
:10377000726563765F6E756C6C3A20696E76616C0B
:103780006964207063620000696E76616C69642010
:1037900073746174650000007463705F706F6C6CAB
:1037A0003A20696E76616C69642070636200000083
:1037B000696E76616C696420736F636B65742073E6
:1037C0007461746520666F7220706F6C6C0000000D
:1037D0007463705F7063625F70757267653A2069C9
:1037E0006E76616C69642070636200007463705F60
:1037F0007063625F72656D6F76653A20696E76619F
:103800006C696420706362007463705F7063625FF0
:1038100072656D6F76653A20696E76616C696420B9
:103820007063626C69737400756E73656E74207377
:1038300065676D656E7473206C65616B696E67009A
:10384000756E61636B6564207365676D656E747317
:10385000206C65616B696E67000000006F6F7365B7
:1038600071207365676D656E7473206C65616B693B
:103870006E6700007463705F6E6578745F69737360
:103880003A20696E76616C696420706362000000A2
:1038900001020304050607070707070707000000E2
:1038A00003060C18306078000146000A40EA012047
:1038B00080B270470146080200F47F000A0A40EA1D
:1038C000016002F47F42104340EA11607047F0B497
:1038D0000246106895681318506803EB5004C0073F
:1038E00048BF4D44A3422DD013F8016B16F00300DE
:1038F00004BF13F8010BC01C31090F2907D113F8BD
:10390000011B0F3103E013F8017B05F8017B401E1A
:10391000F9D10029E6D013F8010BC6F38106032E76
:1039200008BF13F8016B00EB062040422844002634
:10393000B71E8F421EBF10F8017B05F8017B761C75
:10394000F6D1CFE7F0BC02F10C0070474AB100009D
:1039500011F8013B521E00F8013B1CBF11F8013B5E
:10396000F8E7704780B504F04FFBC0F30D00DFF8B7
:103970007015A0F58040088001BD2DE9F14F82B09F
:103980000E4640B9DFF85C350FF26851DFF8580594
:10399000CF22FEF77DF946B9DFF84C050FF26C51E6
:1039A00000F14C03D022FEF773F9029841890829EF
:1039B000C0F2A8804468DFF8347539687869DFF8A8
:1039C000289500F055FF82462088FFF76DFF83465B
:1039D0006088FFF769FFDFF808154C6800904FF02A
:1039E000000800250FE0002C1CBF206800282CD008
:1039F000796911F1010F1FBFB26810401140884270
:103A000023D0A046E468002C47D0608A0099884201
:103A1000F7D13EB909F14C03882209F1D00148469B
:103A2000FEF736F9207A30B1796891F83020401EDF
:103A3000C0B29042E5D1BAF1000FD4D1002C1FBF23
:103A40002068002879698842DBD1207C41070FD4A7
:103A50006DB1BAF1000F0BD0786910F1010F07D1E9
:103A600070682968814203D02268824200D12546CD
:103A7000A08A5845C5D1606800281CBF39698842B2
:103A8000BFD1B8F1000F0ED0E168DFF85404C8F8D8
:103A90000C104168E160446005E02C0003D17068BF
:103AA000796988422DD102980821FEF763FB58B945
:103AB000A4B1A5692DB3CDF800B0029AE06907F171
:103AC00010032146A84721E0484600F14C034FF47B
:103AD000B8720FF25441FEF7DBF812E0BAF1000FB2
:103AE0000FD1387D00F0F000E0280AD0B7F90C10B3
:103AF0000298083109B2FEF76CFB0298032102F02C
:103B00003CFE0298BDE8FE4FFEF77CBBBDE8F78F98
:103B100038B56FF00F05DFF8D04330B904F14C032E
:103B200040F2D5120FF21C4106E051B904F14C03EA
:103B30004FF4EB720FF224412046FEF7A9F8284615
:103B400032BD838A01B0BDE83040021D2DE9FC4141
:103B500006000D4614461F466FF00F08DFF8880375
:103B600006D100F14C034FF406720FF208410EE04B
:103B700035B900F14C0340F219220FF2104106E072
:103B80004CB900F14C0340F21A220FF21C41FEF72F
:103B90007FF8404612E0307A10B1FDF7AAFE02E04D
:103BA0002046FDF7FBFE10B96FF0030006E0009021
:103BB0003B4622462946304600F002F8BDE8F68131
:103BC0007CB56FF00F06DFF8204330B904F14C03E9
:103BD0004FF420720FF2EC3117E031B904F14C03CD
:103BE00040F281220FF2F8310FE032B904F14C03B8
:103BF00040F282220FF2044107E0069D55B904F11C
:103C00004C0340F283220FF214412046FEF740F8A5
:103C1000304676BD00281FBF0468002C04F0F00673
:103C2000E02E01D12C1D06E06E68B44202D06FF088
:103C3000030076BD04460194009500F001F876BDBE
:103C40002DE9F84F050084B099466FF00F04DFF8B6
:103C5000987206D107F14C0340F2D1220FF2DC3109
:103C600027E05FEA010806D107F14C0340F2D222B7
:103C70000FF2E8311DE01000039206D107F14C036A
:103C800040F2D32207F1F80113E0DDF83CA0BAF1CD
:103C9000000F06D107F14C034FF4357207F58E7112
:103CA00007E00E9E56B907F14C0340F2D52207F506
:103CB000A0713846FDF7ECFF204656E0688A38B917
:103CC00000222946284600F053F8002883464BD1AD
:103CD000B8F8080000F1080189B281420CD308212C
:103CE0004046FEF745FA90B14FF420720821222099
:103CF000FEF7BEF8040002D14FF0FF3035E0B8F80F
:103D0000080028B141462046FEF736FB00E0444655
:103D10006089082808D207F14C0340F20E3207F5FB
:103D2000B2713846FDF7B4FF6768688AFFF7BCFDDB
:103D300038804846FFF7B8FD78800020F880208959
:103D4000FFF7B2FDB8800296112001902046A97AB3
:103D5000039A00915146EB7AFDF720FF83464445D4
:103D60001CBF2046FEF74EFA584605B0BDE8F08F5E
:103D7000F8B50346144601B95D495BB95A480FF2DC
:103D8000FC2100F14C0340F2B732FDF781FF6FF0E8
:103D90000F00F2BD524E77680025384600E0C0683B
:103DA00010B18342FBD10125200026D134880022A6
:103DB0002046441C4FF6FF7C80B2604508BF4FF49C
:103DC0004044384600E0C06860B1B0F812C01FFA45
:103DD00084FEF445F7D1521C90B2B0F5804FE7DB7A
:103DE000348022E03480A0B2F8B101E0634611468D
:103DF00000290CBF002008681AE038469C460A4695
:103E000000E0C0680028F1D08445FAD0418AA14280
:103E1000F7D113680168994218BF002A18BF002B18
:103E200003D0002818BF0029EBD16FF00700F2BDC6
:103E300018605C820DB9DF6073600020F2BD000085
:103E400038B9294893A100F14C0340F28A42FDF7AA
:103E50001FBF8161C2617047010008D1DFF888008F
:103E600092A100F14C0340F2A142FDF711BF1C48A2
:103E700042688A4203D1D268426008E0024632B109
:103E8000D0680028FAD08842F8D1C868D0600020F5
:103E9000FDF782BF10B50020FDF750FF040004D0ED
:103EA000202104F0DDF9FF20E072204610BDF1E78B
:103EB000002800D1704730B50268002A18BF0029D9
:103EC0000DD00A685AB1064B5A6806E013680468B8
:103ED000A34204BF0D681560D268002AF6D130BD38
:103EE000BC0A002014240108C823010850B901208D
:103EF0002C3301087564705F696E7075743A2069BF
:103F00006E76616C69642070627566007564705FBE
:103F1000696E7075743A20696E76616C6964206EA2
:103F20006574696600000000706275665F72656D99
:103F30006F76655F686561646572206661696C654E
:103F4000640A00007564705F73656E643A20696E80
:103F500076616C6964207063620000007564705F54
:103F600073656E643A20696E76616C696420706274
:103F7000756600007564705F73656E64746F3A20D7
:103F8000696E76616C696420706362007564705F4D
:103F900073656E64746F3A20696E76616C69642033
:103FA00070627566000000007564705F73656E6412
:103FB000746F3A20696E76616C6964206473745F13
:103FC000697000007564705F73656E64746F5F691B
:103FD000663A20696E76616C6964207063620000E5
:103FE0007564705F73656E64746F5F69663A2069AB
:103FF0006E76616C69642070627566007564705FCE
:1040000073656E64746F5F69663A20696E76616C81
:104010006964206473745F69700000007564705F88
:1040200073656E64746F5F69663A20696E76616C61
:104030006964206E65746966000000007564705FD5
:1040400073656E64746F5F69665F7372633A20694B
:104050006E76616C69642070636200007564705FE5
:1040600073656E64746F5F69665F7372633A20692B
:104070006E76616C69642070627566007564705F4D
:1040800062696E643A20696E76616C69642070635F
:10409000620000007564705F726563763A20696E35
:1040A00076616C6964207063620000007564705F03
:1040B00072656D6F76653A20696E76616C69642011
:1040C0007063620038B5044618204443DFF808578F
:1040D000285918B1FEF796F8002028512A19002116
:1040E000117531BD10B5002400F0D6F862430A44C2
:1040F000107DF8B1508A401C508280B2B0F5967F96
:1041000005DA107D012806D1518A042903DD2046F5
:10411000FFF7D8FF0EE0032808BF042002D00428D0
:1041200002D10220107505E0012803D19068111D0D
:1041300000F050FB641C0A2CD6DB10BD2DE9F24FB9
:1041400084B000240A2603900292ADF80440B346DE
:10415000B246B0460025DFF8849600941821DFF8B7
:104160007806694347180FFA8AF23C7D0A2A04BF91
:10417000002CAA4637D0B4B3012C08D007DC09F1D3
:1041800068034FF4927209F1280100F00FFB0398C5
:1041900040B101687A68914204D1029880B1B9684F
:1041A00088420DD0012C15D138680028788A09D0B2
:1041B000BDF80410884216D3A846ADF8040012E0FA
:1041C00028B266E0BDF8021088420CD32E46ADF846
:1041D000020008E007DD788ABDF80010884224BF9D
:1041E000AB46ADF800006D1C0A2DB7DB9DF8100042
:1041F000039C029D810705D40FFA8AF10A2904D194
:10420000C00705D44FF0FF3043E00FFA8AFA2ADBEB
:104210000FFA8BF00A280FDA824600F03DF812FB05
:104220000AF2885888B109F1680340F26D120FF262
:10423000BC5100F0BBFA08E036B20A2EB2BFB2465B
:104240000FFA88FABAF10A0FDCDA5046FFF73AFFA4
:10425000BAF10A0F07DB09F1680340F283120FF28B
:10426000A45100F0A3FA00F017F802FB0AF28E182E
:10427000307D38B109F1680340F2851209F1F4018B
:1042800000F094FA0CB12068706000217182B56072
:10429000504605B0BDE8F08F1822DFF83C15704796
:1042A00038B5044600251822DFF82C156A4311445E
:1042B000087D28B18868A04204BF2846FFF702FFA6
:1042C0006D1C0A2DEFDB31BD2DE9F84380460C0053
:1042D00086B0DFF8080508D100F1680340F28A22B1
:1042E0000FF24451FDF7D4FC7CE0D8F80470398813
:1042F000B1F5807F04BF3979062970D17979042915
:1043000004BF798808296AD107F10E0104AA0B6855
:10431000136007F1180105AA0B681360616821B1E9
:104320008B4202D10125A94602E000254FF0020987
:1043300094F82C10062907D000F1680340F2A91266
:1043400000F59071FDF7A4FC049898B3214600F0A5
:104350008FFA78BB049800F0F000E0282AD02246BB
:10436000494604A8FFF7EAFE002823D41821DFF805
:1043700068244843161802203075B460062207F1FD
:10438000080106F10C00FFF7E1FA00207082D6F870
:104390000090B9F1000F0DD030604FF40061009132
:1043A00007F1080304F12602494600F058F8484690
:1043B000FDF728FFF888B0F5807F10D17DB102208D
:1043C00004A9231D0390029107F1080200930192B2
:1043D00004F1260304F12601204600F083F940464B
:1043E000FDF710FF07B0BDE8F0837CB504460D462D
:1043F0001820DFF8E41342438E18327D022A09DACE
:10440000DFF8D80300F1680340F2EF2200F5B47141
:10441000FDF73EFC307D022816D1708A40F21D1156
:10442000884205DB311D204600F0D4F960B909E06F
:10443000B0F5877F08DB06F10C02311D204600F045
:10444000B8F908B9032030754FF40061009106F106
:104450000C0304F1260200F001F876BD294620463F
:1044600003F050BF2DE9FF410400174688463E4641
:10447000DFF8685308D105F1680340F21E320FF2ED
:10448000A8312846FDF704FCB8F1000F08D105F16A
:10449000680340F21F320FF2A0312846FDF7F8FB07
:1044A00047B905F168034FF448720FF26C312846A2
:1044B000FDF7EEFB3868214600F0DAF958B1C84B39
:1044C0004FF40060009004F126024146FFF7C7FF59
:1044D00004B0BDE8F081386800F0F001E02915D1A2
:1044E00001208DF8040000215E228DF805108DF862
:1044F000062001AB787800F07F008DF80700B878CF
:104500008DF80800F8788DF80900D9E7A16863688C
:1045100001EA000219408A421EBF80B24FF6A9612B
:10452000884203D0E068E8B104F10C06AD4BDFF837
:10453000A8C21A781827104678430CEB0001097DB1
:10454000022912DB0CF108010958A14201BF3568AC
:104550000CF104010858854207D141462046FFF777
:1045600044FFB5E76FF00300B2E700222046314672
:1045700007FB02F40CEB0406367D022E0ADB0CF17D
:1045800008052E59864201BF0D680CF10406345906
:10459000A54203D0521C0A2AEADB03E01A70414606
:1045A000D2B2DCE7424600F001F891E72DE9F84F7E
:1045B00082460D461446286851464FF0FF3900F0F8
:1045C00057F9CB46002738B9286800F0F001E029F8
:1045D00018BF002D00D010B96FF00F007CE05246DC
:1045E00001212846FFF7AAFD060048BF40B273D458
:1045F0007F2EDFF8E88106D308F1680340F2C1326C
:1046000090A100F06BF8F6B200961821009A72485B
:104610004A438618307D18B901273775C6F808A0B7
:10462000307D012808D007DC08F1680340F2CF3262
:1046300008F5CC7100F052F807B974B92946504614
:1046400000F0C8F8002C834645D006D108F1680375
:1046500040F2E13278A100F041F8307D01280FDD11
:10466000009860494FF400620092087006F10C0354
:104670000AF126022146504603F044FE83462AE012
:1046800029D1254673A700E02D68FDB168892989E5
:10469000884208D1286830B108F1680340F2F1324D
:1046A000394600F01BF8287B4106EDD522464FF431
:1046B00020710E20FDF728FF04465CB1306808B178
:1046C000FDF7A0FD34604FF0000B04E02046FDF73D
:1046D00001FEF2E7CB465846BDE8F28F4046FDF7B3
:1046E000D7BA00002DE9FC4704000E4692469846D2
:1046F000DFF8E89040F0078009F1680340F2574284
:1047000049A100F053F84FF420721C210E20FDF750
:10471000AFFB050008BF4FF0FF3045D068891C286B
:1047200007DA09F1680340F2634209F5E07100F02D
:104730003DF80D986F68FFF7B7F8F88094F82C00F3
:10474000062807D009F1680340F26A4209F5FA71B8
:1047500000F02CF80622414607F10800FFF7F6F8B2
:104760000B99062207F11200FFF7F0F80A98026889
:1047700007F10E0153460A6007F118010C98026810
:104780000A6008204FF480723A80788006213971DF
:104790000420787140F6060100913246FFF75EFE74
:1047A0002846FDF72FFD0020BDE8F6874846FDF7B7
:1047B0006FBA38B584B0012303930291051D0A4CEA
:1047C0000194009500F1260300F12601FFF78AFF0E
:1047D00005B030BD024AECE760B00120841A010840
:1047E00070830008EAB901201C3301086172705F10
:1047F0007461626C655B695D2E71203D3D204E5594
:104800004C4C000069203C204152505F5441424CC6
:10481000455F53495A450000697061646472202104
:104820003D204E554C4C00006E6574696620213D5C
:10483000204E554C4C0000007120213D204E554C1F
:104840004C00000074797065206F766572666C6F3D
:10485000770000006E6F207061636B657420717566
:104860006575657320616C6C6F776564210000006D
:10487000C24318BF002810D091F82D2093070ED501
:104880004A6890420BD0896801EA00030A409342CB
:1048900002BFC9430840884201D10120704700206F
:1048A000704780B5694600F007F808B1009802BD6E
:1048B0004FF0FF3002BD00002DE9F843804684B080
:1048C00098F800400D46E94606E003A8814570D2FD
:1048D00049F8046B18F8014FA4F130000A2868D297
:1048E00000260A27302C0ED118F8014F782C14BF5F
:1048F000582C102705D0082705E0303C07FB06445C
:10490000264618F8014FA4F130000A28F5D3102FDD
:1049100013D1A4F16100062824BFA4F141010629A6
:104920000BD2204603F028FD002814BF612041204F
:104930000A34241A44EA0616E3E72E2CC5D024B123
:10494000204603F023FD002833D00098019B46EA5F
:1049500000616846A9EB0007BF107F1C042F41EAE5
:1049600003442BD8DFE807F02532030C1700B6F11B
:10497000807F3CBF0098B0F5807F1AD20E4625E0BC
:10498000B6F5803F3EBF0098B0F5807FB3F5807FDD
:104990000FD226461AE0B6F5807F3CBF0098B0F5EE
:1049A000807F06D2B3F5807F3CBF0298B0F5807F50
:1049B00001D3002011E044EA002607E0DFF82000E0
:1049C00008A100F12803F922FDF762F92C0003D0B9
:1049D0003046FEF76FFF2860012005B0BDE8F08388
:1049E000902E0108756E68616E646C65640000004D
:1049F00038B5DFF82C074468002503E0401EE07757
:104A000025460C464CB1E07F21680028F6D12046AF
:104A10000C46294600F002F8F4E731BD2DE9F84FC5
:104A200007460D460026BD42DFF8F88606D108F19C
:104A30002803AB220FF2F46100F05EF8002D1CBFDA
:104A40002868B84206D008F12803AD220FF2E861C9
:104A500000F052F87C680FF2F46961688888D0B978
:104A6000086878601422606807F10801FEF76EFF9D
:104A70000121204601F084FE2046FDF722FC064677
:104A8000B6F5803F04DB08F12803BC2200F033F8C0
:104A90002046FDF7B7FB7C6815E06068A246046815
:104AA0005046FDF70EFC83460BEB0600B0F5803F49
:104AB00004DB08F12803CC2200F01DF850465E44C8
:104AC000FDF7A0FBB6B2002CE7D12946384600F02E
:104AD0004AF8DFF84C462088B04206DA08F128038D
:104AE000D22208F1B80100F007F82088801B20804E
:104AF0003046BDE8F28F49464046FDF7C9B82DE97A
:104B0000F041044688460023DFF8146671680020EF
:104B1000002786468446002917E0E2684D699542E1
:104B200002BF22698D69954202BF8A89A588AA427F
:104B300007D07F1C18B1C27FCD7FAA4201D308469F
:104B4000F4460A6802B18E461100E6D120B11D4636
:104B50006146FFF763FF4319434501DA012FD5DCB6
:104B60001846BDE8F08138B50546DFF8B4050C46B7
:104B70004168A94202D12A6842600CE04CB9DFF8D2
:104B8000A4050FF2E85100F1280340F24512FDF7A9
:104B90007FF82A6822602946BDE834400420FDF7EA
:104BA000FBB800002DE9F04F804685B0D8F80450DE
:104BB0002878800000F03C00142852D1E888FEF7E5
:104BC00073FEC4006888FEF76FFE2978890001F043
:104BD0003C01884245DBA0EB010A4046FDF771FB32
:104BE000DFF83C758146388848440A2809DD494683
:104BF0002846FFF784FF002833D0388848440A2825
:104C00002FDC7E680CE0E8687169814202BF286988
:104C1000B169814202BFB089A988884222D0366832
:104C2000002EF0D10420FDF789F806000CD149468A
:104C30002846FFF764FF484504DB0420FDF77EF8B3
:104C4000060001D100260BE02021304603F004FBD2
:104C50000F20F0771422796831607E6000F053F9FC
:104C60006EB946E1E888FEF71FFEC00407D1F0895F
:104C7000FEF71AFEC00402D0142200F044F9ED88B9
:104C80002D066D0FA24405F00105ADF804A095F0C6
:104C90000105DFF890A409D0BDF80400A4B2A04239
:104CA00015DB4FF6EC71884280F20A8100220492F3
:104CB00001210391D8F8042000925088FEF7F4FDFA
:104CC000044600980178890001F03C0B5C45C0F275
:104CD000F780C088FEF7E8FDD8F8041000910B4675
:104CE00000211960C200009B9A80A4180099A4EBCF
:104CF0000B04CC8090B2A4B284423DD37068049C73
:104D0000DDF80CB0029003460EE093B200F0D880BC
:104D1000B0F806C063452FD3002C1EBFE3888B423A
:104D20004FF0000B036804465BB3586881881FFA94
:104D300082FC8C45E9D200990B60CCB100998A883D
:104D4000E1888A4221BF80880099CA88904213D3A3
:104D5000C4F800800099E0888A88904218BF4FF01C
:104D6000000B45BBB07FC10725D44FF0000B53E0CB
:104D700000998088CA889042C0F0A280C6F804805A
:104D8000EFE764B1E08892B28242E1D20AF12803EF
:104D90004FF4DB720FF2F03100F0B2F8D8E702986E
:104DA0000028EBD00AF1280340F2BF120AF1DC011F
:104DB00000F0A6F8E2E7BBF1000F2AD0716831B32A
:104DC0004A68908818BB009A13461446186806E093
:104DD0004468D088A288904219D1206822460028D1
:104DE000F6D14868A04207D10AF1280340F2E11247
:104DF0000FF2B43100F084F8206850B10AF12803B2
:104E000040F2E3120AF58A7100F07AF801E04FF0FF
:104E1000000B1BF1010F53D038884844388035B15E
:104E2000B17FBDF80400B08341F00101B177BBF15F
:104E3000010F61D1B08B00F11408706841680C68F3
:104E40000D46142206F108012846FEF77FFD1FFAE1
:104E500088F0FEF729FD68800020E8806881756889
:104E60000BE0D4F8048014212046FDF783F9214695
:104E70002846FDF748FAD8F80040002CF1D17968AF
:104E80008E4202D1002105E0014600291CBF0868BE
:104E9000B042F9D13046FFF766FE2846FDF711FA19
:104EA00004463888A04206DA0AF1280340F29B2221
:104EB000C1A100F025F83888041B3C8028461CE07E
:104EC0003EB90AF128034FF42A7200BFC1A100F0D5
:104ED00017F8706868B97868864206D00AF1280326
:104EE00040F2AB22BEA100F00BF800213046FFF7E4
:104EF0003AFE4046FDF786F9002005B0BDE8F08F88
:104F00005046FCF7C5BE294606F10800FEF71EBD57
:104F100010B5040007D18348B9A100F128034FF46C
:104F20003172FCF7B5FE2146BDE810400520FCF7C4
:104F300033BF000010B5040007D17A48B3A100F1D7
:104F4000280340F2CE22FCF7A3FE606908B1FDF70A
:104F500059F92046BDE81040DAE700002DE9F24F8C
:104F60008AB00646888C1438811000EB5170C0104E
:104F7000079000277068069014250178890001F0D9
:104F80003C01142914466FF005090DD17089DFF832
:104F900094B1142880F20A800BF128034FF43F7279
:104FA0009DA15846FCF774FE4846B1E00698C088BB
:104FB000FEF77AFCC0F30C02089005923089079A3C
:104FC0000994A0F1140189B20391D100ADF80A103F
:104FD00033E00A98818C03987D191439ADB281426F
:104FE000B4BF002101210598C0F30C0011B108994C
:104FF0008A0401D540F40050FEF756FC0499C8809D
:10500000BDF80800143080B2FEF74EFC04994880C9
:1050100000200499488141460A98099A4469A047AA
:105020004046FDF7EFF80399BDF80800091A89B268
:10503000039107980599411805910398002867D0B6
:10504000BDF80A108842B4BFADF80800ADF80810EA
:105050004FF4207214210E20FCF70AFF040055D0F3
:105060006089142880F208800BF1280340F2253271
:1050700070A15846FCF70CFE069960681422FEF7F2
:1050800065FC60680490A046BDF8080004461FE077
:10509000B8B201904B467068401900904122B9B2F5
:1050A0000020FCF7C9FF5FEA000A34D03046FDF764
:1050B00011F91D48C9F81000C9F81460514640465E
:1050C000FDF721F9E41BA4B2002C02D036680025BC
:1050D000002C3FF47EAF7089471B07DA0BF12803E1
:1050E00040F22D325BA15846FCF7D2FDB8B28442A3
:1050F000B8BF2746B8B20028E8D00520FCF71EFE4E
:105100005FEA0009C4D14046FDF77CF84FF0FF305C
:105110000BB0BDE8F08F4846FFF7FAFEF3E700005A
:1051200084B90120A8260108354F00087072657601
:1051300020213D2069707200707265762D3E6E658B
:105140007874203D3D2069707200000070627566C1
:10515000735F6672656564202B20636C656E203C0E
:105160003D203078666666660000000073616E69F7
:10517000747920636865636B206C696E6B6564206D
:105180006C69737400000000636865636B2066726D
:1051900061676D656E747320646F6E2774206F761F
:1051A00065726C617000000073616E6974792063D0
:1051B0006865636B0000000069705F7265617373FE
:1051C0005F70627566636F756E74203E3D20636C20
:1051D000656E000069707220213D204E554C4C00D8
:1051E0006E6F74206669727374616C74686F756732
:1051F00068206A75737420656E71756575656400E5
:105200007020213D204E554C4C00000070637220F0
:10521000213D204E554C4C006970345F66726167C9
:1052200028293A207062756620746F6F2073686F4A
:105230007274000074686973206E65656473206120
:10524000207062756620696E206F6E6520706965DA
:1052500063652100702D3E6C656E203E3D20706FB1
:10526000666600002DE9F84F050084B0DFF8B89AB3
:1052700006D109F1280383220FF6980100F06CFD96
:10528000DFF8A86A686830626989142940DBDFF8B2
:10529000A0AADAF80010DAF81400FFF7E9FA0028FB
:1052A00040F02E849AF8140000F0F000E02800F09E
:1052B0002784306A00F04CFD000B81001429A4BF44
:1052C0002889884224DBA1F114000022B082726296
:1052D0006B898B4204DBF0822846FCF74BFF36E0FB
:1052E000286830B909F12803C2220FF6400100F006
:1052F00033FD14212846FCF73DFF28466989B48A0E
:10530000F182641AFCF736FF28684189A4B2A142F1
:10531000C0F2F683426872622146FCF72BFF2989AE
:1053200068890C1B2C8130B109F12803DF220FF6AC
:105330000C0100F011FD296828890A89904206D0E5
:1053400009F12803E0220FF6000100F005FD306AA4
:105350000088FEF7A9FA316A08804888FEF7A4FAA7
:10536000316A488000F0F0FC316A4860B062316A0E
:105370008868FEF79FFA316A8860F062306AC089F7
:10538000FEF792FA316AC88101F07CF800F03F0024
:10539000307010F0030F2989B18305D0481CB08309
:1053A00080B28842C0F0AC83DFF88889D8F800402A
:1053B000002701E02746E468002C00F07E80207D75
:1053C00030B909F12803FB2209F1B00100F0C4FC57
:1053D000207D0A2806D109F12803FC2209F1D80111
:1053E00000F0BAFC207D012806D109F12803FD2236
:1053F00009F5827100F0B0FC207A10B100F0DBFBFF
:10540000D8D1306A218B0288914202BFE18A40885C
:105410008142CFD16168DAF81000814202BF216871
:10542000DAF814008142C5D1E168A14207D109F13F
:10543000280340F20D1209F5967100F08DFC37B18A
:10544000E068F860D8F80010E160C8F80040E06853
:10545000A04207D109F1280340F2151209F5AC71F9
:1054600000F07AFC002070602989306AB1813061D7
:105470000021316371707183B5603078010703D505
:10548000687B40F00100687304F14407786B0028E2
:105490000AD02046FDF79EFE10F10D0F06D0786B66
:1054A00000281CBFB08B002800F0F980608D002818
:1054B00002D12046FBF7F2FE02E3DFF87C08046825
:1054C00000E0E468002C4AD0207D0A2807D009F1CA
:1054D000280340F21F1209F5C27100F03DFC207A4A
:1054E00010B100F068FBECD1306A218B038899423F
:1054F00002BF4788E08AB842E3D16168DAF8100059
:10550000814202BF2168DAF814008142D9D1327891
:105510005107204670D4B18B940713D5B46A426A00
:10552000B4EB020E14D4028DAEEB0202002A0FDCA3
:10553000029301970AF1100300936218F16A0AF1CD
:105540001403DBE2D20703D5DFF8F0371C680462EE
:10555000002951D0418B41F0020141839CE0DFF8EA
:10556000E077336A3868002201E00246C06800280C
:1055700000F0B082017A39B1DAF8044094F8304092
:10558000491EC9B2A142F0D1B3F802E0C18A714507
:10559000EBD10168DAF81440A14218BF002818BF07
:1055A0000029E2D1044622B1E068D0603968E160A8
:1055B0003C60307841071FD4C2060ED5188802908F
:1055C0000AF110010091CDF804E0B06AB18B4218E5
:1055D000F16A0AF11403204690E280070CD5607D41
:1055E000FDF7BAFE070008D1A369002B04D020699B
:1055F0004FF0FF320021984782E2DAF81400386059
:105600000322DAF81010796007F1600AE08AF88264
:10561000316A088838833A75B06A401C7862F8624B
:105620003846FEF717F8B86538657864F865B06AEB
:10563000401E786520693861CAF81C40607A00F025
:105640000C007872207A3872D8F80010F960C8F827
:10565000007002F03BFDDFF8EC16012008703846C0
:1056600000F026FF306AC089AAF80000AAF80200FC
:10567000381DFCF793F90146788E3A1DFDF7FCFFC3
:10568000788612213846FBF71BFA20B100213846F4
:10569000FDF7E8F934E23846FBF7ABFA30E2307850
:1056A0007463410725D5207D022804D1F06AF9688A
:1056B000884216D10CE0616AB26A8A4212D138B9C6
:1056C00009F128034FF44E720FF29C4100F044FBA5
:1056D000707840F0080070704FF6FE70618B0140EA
:1056E00061837FE1511AFCD4208D091A0029F8DC6E
:1056F0005DE1800704D5207D022818BF0328F7D17B
:10570000A07EC10603D4DFF834060268226204F1E9
:105710009A00002141700170204600F0C9FEB16A74
:10572000B08B3378326ADFF810B60818039003F0B4
:10573000100094F814E0AEF1020EBEF1070F41F232
:105740001C1519D8DFE81EF0D20074006E002C0082
:1057500026006E001900080000F02BFA3078C10610
:105760000AD5F06AF968884204BFB86A002803D1F4
:10577000707840F01000707034E100F01AFA307860
:10578000C106F9D5F06AF968884204BFB86A0028F2
:10579000F2D117E000F00DFA70788106ECD50FE039
:1057A00000F007FA72783078F16A930600F0100082
:1057B0002ED548B3FA68914204BFB86A002823D1B5
:1057C00000F0F2F92046FDF7BBFED8F80000A04239
:1057D00004D1C068C8F8000006E0084620B1C168DE
:1057E000A142FAD1E168C1600020DFF85825E060ED
:1057F000012111700A202075DBF80010E160CBF860
:10580000004002F063FCEDE000F0CEF9082153E027
:105810000028F8D0FA68914204BFB86A002806D17F
:10582000062149E000F0C5F97078810641D4D9E03D
:10583000002851D0F16A3B68CB1A5B1E3ED4F86851
:10584000081A00283ADC04212175B86B002816D00C
:10585000806938B909F128034FF46A720FF22831D0
:1058600000F07AFAB86B8369002B08D02069002217
:105870002146984720B110F10D0F00F02181E8E09A
:1058800000F097F9708B08B1401E7083608E420063
:10589000AA428CBF13462B468100994238BF800034
:1058A00003D3AA428CBF40002846B8807078810696
:1058B00003D500F079F90721217593E01088029053
:1058C0000AF110035288019200930AF11403039A1B
:1058D0002046FBF79FFC85E09807FCD5606A491CD1
:1058E000814202D12046FBF76EFB7BE003F01203FE
:1058F000122B01BFF36A5B1ED7F800C0634559D174
:10590000481C6062E062491EF06A3860D089B88342
:10591000F883396104202075201DFCF73FF801460B
:10592000608E221DFDF7A8FE42006086AA428CBF51
:1059300013462B468100994238BF800003D3AA4208
:105940008CBF40002846B880788C38B909F128030C
:105950004FF45B720FF6044100F0FEF9788C411EA3
:105960007984FD6A65B9BD6A3DB909F128034FF430
:105970005D720FF6004100F0EFF92868B86201E0AF
:105980002968F9622846FDF76FFCF86A00280EBF07
:105990004FF0FF30002084F8420020867B6C33B14A
:1059A000206900222146984710F10D0F2AD000F0FF
:1059B000FBF817E0B0B1108802900AF11403518887
:1059C00001910AF1100200922046039AF16AFBF756
:1059D00021FC94F84200062804DA002121862046A2
:1059E000FBF7DBFA707801070DD5FA6C1AB1206964
:1059F0006FF00D01904721464046FDF7D1FD20464E
:105A0000FCF768FE5CE0728B4AB1FB6B2BB120693E
:105A10002146984710F10D0F52D000207083204688
:105A200000F0D1F800284BD1306B6FF00C0A28B38E
:105A3000786B38B109F128034FF4F3720FF6003197
:105A400000F08AF9A07E326BC10606D51046FCF73D
:105A5000D9FB2046FDF780F832E03D6C25B1206986
:105A600000232146A84704E0002321460020FDF73B
:105A700026FC504524D008B1306B786370788106DD
:105A800015D5786B20B1417B41F0200141730EE0C8
:105A9000208DB0F5066F1CBF401C20853D6C35B1D4
:105AA0002069002300222146A847504508D0002045
:105AB0007063204600F087F810B92046FBF799F88C
:105AC000002070633063B06800B3FCF79BFB0020DC
:105AD000B0601BE09889FDF7E7FE400710D4306AFC
