:020000040800F2
:10000000386F0120CD3F0008693D00086D3D0008B4
:10001000753D00087D3D0008853D0008000000009A
:100020000000000000000000000000008937000808
:100030008D3D00080000000031370008053300083E
:10004000F13F0008F53F0008F93F0008FD3F0008B8
:100050000140000805400008094000080D40000864
:100060001140000815400008194000081D40000814
:10007000913D000821400008254000082940000863
:100080002D40000831400008354000083940000884
:100090003D40000841400008454000084940000834
:1000A0004D4000085140000855400008933D0008AD
:1000B000993D00089F3D0008A53D000859400008F3
:1000C0005D40000861400008654000086940000884
:1000D0006D4000087140000875400008AB3D000805
:1000E000794000087D4000088140000885400008F4
:1000F000894000088D4000089140000895400008A4
:10010000994000089D400008073E0008A1400008F3
:10011000A5400008A9400008AD400008B140000813
:10012000B5400008B9400008BD400008C1400008C3
:10013000C5400008C9400008CD400008D140000873
:10014000D5400008D9400008DD400008E140000823
:10015000E5400008E9400008ED400008F1400008D3
:10016000F5400008F9400008FD4000080141000882
:1001700005410008094100080D4100080000000089
:1001800011410008154100080901020003D4DFF8FD
:100190004C0A81547047DFF8743C02F00F021A4495
:1001A00002F8041C704730B500F007000123C0F1CD
:1001B0000704052C2EBF0F2403FA04F4641E051D4A
:1001C000072D34BF0020C01E2140814003FA00F0FB
:1001D000401E1040084330BDDFF8501C81B00A6853
:1001E00002430A60096808400090009801B0704717
:1001F000DFF83C2C05E010F8013B536013681B0648
:10020000FCD50B46591E9BB2002BF4D170472DE94B
:10021000F84F8EB000F04CFE00F074FA00F0BBFA1C
:100220000020DFF8084CDFF80C5CDFF80C6CDFF81E
:100230000C7CDFF80C9C00904FF48058216841F052
:10024000100121600021206800F0100000904FF69E
:10025000FF7A00980091226842F0800222602068B4
:1002600000F0800000F049FA42F0040222602068A9
:1002700000F0040000F041FA42F001022260206820
:1002800000F0010000F039FA42F00202226020681A
:1002900000F002000090009800910121226842F0D5
:1002A000080222600122206800F0080000900098F7
:1002B000284600F0F7FE782000210190029103917A
:1002C00001A9DFF8800B00F00DFE012101910291E0
:1002D000284600210391049101A900F003FE4FF488
:1002E0000010FFF779FF306800220021C0F30220E0
:1002F000FFF759FF01460C20FFF746FF06A8002133
:10030000C7F8008000F0D5F9C9F82C2000F0CDF92D
:10031000C9F8342080E80E104F20DFF82C1BC9F8F4
:100320002800C9F82410C9F83820C9F83C20C9F8B9
:1003300030A009F1240000F0CFFE00F0A3F909F18C
:10034000240001F074F809F1240000F01EFF00F011
:10035000C0F909F1240000F09CF900F0BEF900F0AA
:10036000B4F9042200F0B0F9082200F0ADF90C2233
:1003700000F0AAF906A8002100F09BF9DFF8CCBA3A
:1003800000F093F9CBF8082080E80E104F20CBF84E
:1003900004004FF080414FF0FF30CBF80C00CBF859
:1003A0000010CBF81020CBF81820584600F094FE2F
:1003B00000F068F9584601F03AF8584600F0E5FEBA
:1003C00000F087F9584600F064F900F086F95846C5
:1003D00000F099FF042200F063F9082200F060F9B0
:1003E0000C2200F05DF91C2107A801F09BF91821EF
:1003F00000F0D2F9206940F4802020612069DFF804
:10040000504A00F48020009000980820FFF7E4FE96
:100410004FF44071019102220292032103910022C4
:100420000492012105910722069201A9DFF8240A0E
:1004300001F07CF92168042060F35B61216022688F
:1004400022F0C0022260206820F440302060216841
:1004500021F4907141F480712160206820F40070D3
:100460002060216841F4806121600022206820F42E
:10047000C0502060216821F4C04121606069DFF82C
:10048000D81920F004006061A160DFF8D009E060B5
:100490004FF41660616860F30F01616005213068F8
:1004A000DFF88C69C0F30220FFF77DFE01462720AC
:1004B000FFF76AFE802078604FF4E1310791002257
:1004C0000C210B91089209920A920C920D9207A9A5
:1004D000304601F0A3F9306920F4904030610022E9
:1004E000706920F02A0070610023706940F04000BC
:1004F0007061F06840F01000F060216841F0010187
:1005000021600021F06840F40050F060002406A84B
:10051000002680E81E0000F0C7F880E81E00DFF823
:100520004049DFF8401921604F206060A2602261DD
:10053000A261C4F80CA0204600F0CEFD00F0A2F8A5
:10054000204600F074FF204600F01FFE00F0C1F8C6
:10055000204600F09EF801220192002100910291B4
:100560000022039200F0C5F8042200F0C2F808222D
:1005700000F0BFF80C2200F0BCF806A80021002211
:10058000002380E84E0000F08FF880E84E00DFF88E
:10059000D868DFF8D81831604F2070608021B260D1
:1005A0003261B161C6F80CA0304600F095FD00F054
:1005B00069F8304600F03BFF304600F0E6FD00F001
:1005C00088F8304600F065F800F087F8304600F013
:1005D0009AFE042200F060F8082200F05DF80C2278
:1005E00000F05AF8002100F06BF8042100F068F8E0
:1005F000082100F065F80C2100F062F8002100F0FD
:1006000045F8042100F042F8082100F03FF80C21E1
:1006100000F03CF8002100F069F8042100F066F8D1
:10062000082100F063F80C2100F060F8002100F0D0
:1006300026F8042100F023F8082100F020F80C210E
:1006400000F01DF801220121284600F02BFD01F0E9
:100650006BF9DFF81C480FF2B9502246002101F077
:100660009EF9C9F8640004F1240200210FF2AD5094
:1006700001F095F9C9F8680001F070F9FEE730461D
:1006800000F098BDCDF8188006A97047584600F0D4
:1006900091BD04A901F018BA6946304600F033BE96
:1006A0006946584600F02FBE04A8C0E9001268460B
:1006B0007047002200238C4680E80E1004A8704783
:1006C00009F1240000F076BD694609F1240000F02C
:1006D0001ABE002104910591704701220192002168
:1006E000009102910022039269467047204600F073
:1006F00061BD6946204600F006BE0090009800915A
:100700002268704780B592B0302106A801F00AF83F
:1007100000F041F800200090DFF85807016841F030
:10072000805101600021006800F080500090009826
:10073000DFF8440700910221026842F4804202601F
:100740000122006800F48040009000980691099210
:1007500010210A91022200210C920D910822A02161
:100760000E920F91022207211092119106A801F01A
:10077000F1F902210291002203920F204FF4A051BF
:10078000019004914FF480520592052101A801F0D7
:100790006BFB13B000BD142101A800F0C3BFF8B576
:1007A000DFF89C76DFF8D44607F12401884204F193
:1007B000420504F16C067BD1017F01291ED132680C
:1007C0002AB900F007FA208001223260F1BD00F062
:1007D00001FAA0842188A08C814238BF401A05D339
:1007E000884204D24FF6FF72511A4018E880E98817
:1007F00000F0DEF9F98100203060F1BD02291BD143
:10080000716821B900F0E0F96080012012E000F089
:10081000DBF9E084E18C6088884238BF081A03D392
:10082000814202D200F0C8F92881298900F0C0F97C
:10083000B98100207060F1BD04291BD1B16821B9D4
:1008400000F0BFF9A080012012E000F0BAF9208585
:10085000218DA088884238BF081A03D3814202D272
:1008600000F0AAF96881698900F0A2F97981002075
:10087000B060F1BD0829FCD1F16821B900F0A7F9F9
:10088000E080012012E000F0A2F96085618DE0882F
:10089000884238BF081A03D3814202D200F08CF993
:1008A000A881A98900F084F939810020F060F1BDA8
:1008B000DFF89815884279D1017F01291BD1316970
:1008C00021B900F012FE2081012012E000F082F92F
:1008D000A085A18D2089884238BF081A03D38142A0
:1008E00002D200F069F9E881E98900F05DF9F98048
:1008F00000203061F1BD02291BD1716921B900F0DE
:1009000063F96081012012E000F05EF9E085E18D7D
:100910006089884238BF081A03D3814202D200F0AE
:100920004BF92882298A00F03FF9B98000207061D4
:10093000F1BD04291BD1B16921B900F042F9A081B0
:10094000012012E000F03DF92086218EA089884226
:1009500038BF081A03D3814202D200F02DF9688211
:10096000698A00F021F979800020B061F1BD082981
:10097000FCD1F16929B900F02AF9E0810120F06188
:10098000F1BD00F024F96086618EE089884238BFAD
:10099000081A03D3814202D200F00EF9A882A98A74
:1009A00000F002F939800022F261F1BDDFF8B014E5
:1009B000884278D1017F01291BD1316A21B900F029
:1009C00094FD2082012012E000F004F9A086A18E9F
:1009D000208A884238BF081A03D3814202D200F02D
:1009E000EBF8E882E98A00F0DFF839820020306213
:1009F000F1BD02291BD1716A21B900F0E5F86082CE
:100A0000012012E000F0E0F8E086E18E608A884282
:100A100038BF081A03D3814202D200F0CDF82883F0
:100A2000298B00F0C1F8798200207062F1BD0429A1
:100A30001BD1B16A21B900F0C4F8A082012012E0F4
:100A400000F0BFF82087218FA08A884238BF081A9B
:100A500003D3814202D200F0AFF86883698B00F0C3
:100A6000A3F8B9820020B062F1BD0829FCD1F16A77
:100A700021B900F0ACF8E082012012E000F0A7F804
:100A80006087618FE08A884238BF081A03D38142A9
:100A900002D200F091F8A883A98B00F085F8F982C2
:100AA0000020F062F1BDDFF8C01388427BD1017FE6
:100AB00001291BD1316B21B900F017FD20830120E2
:100AC00012E000F087F8A087A18F208B884238BF02
:100AD000081A03D3814202D200F06EF8E883E98B52
:100AE00000F062F8398300203063F1BD02291BD188
:100AF000716B21B900F068F86083012012E000F00A
:100B000063F8E087E18F608B884238BF081A03D30F
:100B1000814202D200F050F82884298C00F044F879
:100B2000798300207063F1BD04291DD1B16B21B917
:100B300000F047F8A083012014E000F042F8A4F888
:100B40004000B4F84010A08B884238BF081A03D385
:100B5000814202D200F030F86884698C00F024F8F9
:100B6000B9830020B063F1BD08291CD1F16B21B914
:100B700000F02DF8E083012014E000F028F8288030
:100B80002988E08B884238BF081A05D3628FE38A30
:100B90009A4202D200F010F8A884A98C00F004F860
:100BA000F9830020F063F1BDB54890FBF1F1704787
:100BB000B44890FBF1F170474FF6FF72101A081815
:100BC0007047082100F091BC042100F08EBC0C217C
:100BD00000F08BBC002100F088BC000000E400E0C5
:100BE0002DE9FC4104460D46164600270FF2A028C9
:100BF0000AE034F817204146684601F0BFFA69461A
:100C0000304601F0CBFA7F1CAF42F2DBBDE8F38146
:100C100080B5012000F020FFFBE700002DE9FE4F2A
:100C2000DFF864A2864F0FF2802941F648400AF6A9
:100C30005F150AEB000B0AF66416B1E0022802D138
:100C400000F0E6F80DE003280BD1D9E90012CBE95A
:100C5000001250460021E970A9704FF4166100F0AF
:100C600061FD4946584601F0A9FA30B941F628100D
:100C70004FF44871504400F055FD41F6281151449D
:100C80000191584684A101F099FA002839D1E978F8
:100C90000AF6A840642900900BD10020E8702022B9
:100CA000AC780098314600EB441001F091FA641CD6
:100CB000AC70A878642824D10024009800EBC411FB
:100CC0000AF68813202203EB441001F081FA641C19
:100CD000182CF2DD0020002100220AEB411303EB67
:100CE00042031FFA80FCB3F88849019B401C521C48
:100CF00023F81C40102AF0DB491C1829ECDD00F019
:100D000087F800BF66A1584601F058FA002842D182
:100D1000A87800211928D1BF0122192290FBF2F2F4
:100D2000D2B200234FF0000C02FB03FE0AEB4E147C
:100D300004EB4C0441F62810B4F8A8EC50448CB2F3
:100D4000491C0CF1010C20F814E0BCF1100FEBDB96
:100D50005B1C182BE6DD85F8018052464FF4C87104
:100D6000FFF73EFF002028704FF416615046FFF752
:100D70003FFA142000F070FE01F078FA4FF416618B
:100D8000504600F0CFFC4FF0000885F80280D9E90A
:100D90000001CBE9000185F80180012000F05CFE34
:100DA0003888308079887180B888B080F988F1807F
:100DB0003889308179897181B889B081F989F18167
:100DC000388A3082798A7182B88AB082F98AF1824F
:100DD000388B30837083B88BB083F98B1F48F183D5
:100DE0004FF416610278A2F1300800F09BFC5FFA24
:100DF00088F001287FF422AF27A0D0E90012CBE9C8
:100E000000120021E970A9702BE7000018ED00E046
:100E100023A0D0E90012CBE90012704700681B49FB
:100E2000884208BF01F03CBA7047000030380240E9
:100E300000480040000802400CED00E000E100E046
:100E4000802D01200010024000000140EC2D012007
:100E500028600240000C0240044800408416012033
:100E60002C2E0120000400406C2E012000080040C0
:100E7000403E00084038024000700040302C012005
:100E800040420F0080841E0000000020000C004043
:100E900025303575240000006D6F64653100000059
:100EA0006D6F6465320000006D6F64653000000096
:100EB00080B50B48016841F400710160026842F49A
:100EC00080620260016841F480710160032001F0DA
:100ED00098F9002001F0ECF901F028FA002002BD99
:100EE000003C02402DE9F84F0D4600266F49704A3C
:100EF0000F23044601202F68B04000EA0708804510
:100F000040F0CA804FEA460C032707FA0CF76FEA55
:100F1000070E6F68012F18BF022F03D0112F18BFC3
:100F2000122F12D1A768D5F80C900EEA070709FA1C
:100F30000CF949EA0707A760676827EA00006F68AD
:100F4000C7F30017B74038436060E068AF680EEA47
:100F5000000007FA0CF73843E060B0006F68022F1A
:100F600018BF122F12D1F70804EB870700F01C09F5
:100F7000D7F820A003FA09FB2AEA0B0AD5F810B02B
:100F80000BFA09F949EA0A09C7F8209027680EEA1E
:100F9000070E2F7907F0030707FA0CF747EA0E0C44
:100FA000C4F800C06F68FF0076D5002700974FEAAD
:100FB000960CD2F800E04EF4804EC2F800E000F04B
:100FC0000C00176807F480470097DDF800E0394F00
:100FD00057F82C7003FA00FE27EA0E0E364FBC427B
:100FE00008BF002722D0354FBC4208BF01271DD0C3
:100FF000334FBC4208BF022718D0324FBC4208BF53
:10100000032713D0304FBC4208BF04270ED02F4F08
:10101000BC4208BF052709D02D4FBC4208BF062798
:1010200004D02C4FBC420CBF0727082707FA00F05A
:1010300040EA0E00DFF87CE04EF82C006FEA080072
:10104000D1F800C06F6800EA0C0CFF0348BF48EA03
:101050000C0CC1F800C0D1F804C06F6800EA0C0C99
:10106000BF0348BF48EA0C0CC1F804C0D1F808C05F
:101070006F6800EA0C0CFF0248BF48EA0C0CC1F88C
:1010800008C0D1F80CC000EA0C0C6868800248BFA8
:1010900048EA0C0CC1F80CC0761C0F2E7FF62AAF64
:1010A000BDE8F18F02B9090481617047003C01403D
:1010B0004438024008380140000002400004024069
:1010C00000080240000C02400010024000140240E0
:1010D00000180240001C024038B5040001D1012074
:1010E00032BD00F063F818B900F05CF801F03CF98B
:1010F0000FE00068C16841F00101C160816801F042
:101100000701062903D0016841F0010101600020B8
:10111000704702206870211D206800F0FCF9012052
:101120006870002032BD03D1416C41F4004141643C
:10113000816801F00701062903D0016841F001012F
:101140000160002010BD0446080006D0042909D023
:1011500008290CD00C290FD013E02068C26842F097
:1011600002020DE02068C26842F0040208E0206834
:10117000C26842F0080203E02068C26842F0100230
:10118000C2602068012200F0A2BA38B5040001D183
:10119000012032BD00F00AF818B900F003F801F0A0
:1011A000F1F9B6E7002129702046704704F13C05AB
:1011B0006878704710B5FFF7C6FF2068B8E710B52C
:1011C0000446206801698A0715D5C1688A0712D5C7
:1011D0006FF00201016101222277806910F0030F94
:1011E000204602D0FFF7DBFA03E001F0CCF900F073
:1011F00087F800202077206801694A0715D5C16863
:101200004A0712D56FF0040101610222227780693A
:1012100010F4407F204602D0FFF7C1FA03E001F04E
:10122000B2F900F06DF800202077206801690A0704
:1012300015D5C1680A0712D56FF0080101610422B3
:101240002277C06910F0030F204602D0FFF7A7FAFB
:1012500003E001F098F900F053F8002020772068AF
:101260000169CA0615D5C168CA0612D56FF010010A
:10127000016108222277C06910F4407F204602D025
:10128000FFF78DFA03E001F07EF900F039F8002055
:10129000207720680169CA0708D5C168CA0705D543
:1012A0006FF0010101612046FFF7B8FD2068016978
:1012B0000A0608D5C1680A0605D56FF080010161EC
:1012C000204601F061F9206801694A0608D5C16825
:1012D0004A0605D56FF040010161204601F055F93D
:1012E000206801698A060AD5C1688A0607D56FF0A9
:1012F000200101612046BDE8104001F047B910BD52
:10130000204601F044B9F8B500F07FF801D1022081
:10131000F2BD00F087F882B9EB686A682968306826
:1013200000F044F93068816921F00C018161316875
:101330008A69A86802438A615CE0042A10D1EB68DC
:101340006A682968306800F088F93068816921F49A
:10135000406100F056F8AA6841EA0221816149E043
:10136000082AE9686A682B6823D13768386A20F44C
:10137000807038621B0207F11C0003F42063D0F870
:1013800000C0D7F820E04FEA9C0C42EA8C0261F3DF
:10139000071202602EF4206003433B623068C1698B
:1013A00021F00C01C1613168CA69A8680243CA61B1
:1013B00020E030681C301B03476827F480574760E3
:1013C00003F420430768D0F804C027F4407747EAC5
:1013D000022761F30F372CF4204107600B43436071
:1013E0003068C16921F4406100F007F8AA6841EA59
:1013F0000221C16100F010F8F2BDC1613068C1691D
:1014000070478161306881697047064606F13C0487
:101410000D4620780128704701206070002121705E
:10142000002070470120207002216170704738B59C
:1014300000F04FF801D1022032BD012020700222BD
:101440006270DFF8C8012A689368034093600868F7
:10145000020018BF10282DD0202818BF302829D00E
:10146000402823D0502816D0602818D0702803D0E8
:10147000B0F5005F07D021E000F026F82868816809
:1014800041F0770105E000F01FF82868816841F419
:101490008041816012E000F013F850210BE0CA682F
:1014A0004968286800F0EFF8602104E000F008F8CF
:1014B000402100E00146286800F0F7F80FE0000046
:1014C000CA6849682868B9E0CB684A6889682868AA
:1014D000F3E0054605F13C0420780128704701201F
:1014E000607000212170002032BD0246002031B121
:1014F000042907D0082908D00C2909D070471068A2
:10150000406B70471068806B70471068C06B704705
:101510001068006C7047F0B505683D4C3D4B3E4E81
:101520003E4FDFF8FCC0A04218BFB0F1804F07D09B
:10153000604518BFB84203D0B04218BF98420DD1E1
:101540004A6825F070051543A04218BFB0F1804FDE
:1015500017D060451CBFB842B04212D098421CBFA1
:10156000304A90420DD0304EB0421CBF2F4A9042BC
:1015700007D02F4EB0421FBF2E4A90422E4EB0428F
:1015800003D1CA6825F4407515434A6925F08005E2
:1015900015430560A0428D68C5620A68826212BF69
:1015A00098420969016301224261F0BDF0B5046A05
:1015B000174E640864000462B0428469056A18BF6B
:1015C000B0F1804F11D0164EB0421CBF134FB8423D
:1015D0000BD0114EB0421CBF0E4FB84205D0114E79
:1015E000B0421CBF124FB84203D1A40842EA8402A1
:1015F00001E044F0010263F3071225F00A0501F04F
:101600000A01826129430162F0BD00008800FFFFEA
:101610000000014000040140000C004000080040B0
:1016200000040040004001400044014000480140E7
:1016300000180040001C00400020004010B5036A64
:10164000046A64086400046223F00A03846924F0D5
:10165000F00444EA0214846144E030B5046A24F0E2
:101660001004046209018469056A24F4407444EAA0
:10167000022463F30F3425F0A00501F0A00184617A
:101680002943016230BD10B5036A23F010030362E1
:101690008369046A23F4704343EA023324F0A0040C
:1016A000836144EA0114046210BD826822F0700272
:1016B000114341F007018160704710B5846824F43C
:1016C0007F442143114341EA0321816010BD10B5DD
:1016D00001F01F01036A01248C40A343036202FA54
:1016E00001F1036A1943016210BD30B501688468D5
:1016F0004218416802EB5103C90703D54C4401E08D
:10170000491C08D19A4218BF12F9011B01D10C30B3
:1017100030BD12F8015B002904F8015BF0D4491ECA
:10172000F7D5EFE7002200F037BF0000F0B50B4619
:101730000246186890FAA0F0B0FA80F50F2466E02F
:10174000000A90FAA0F0B0FA80F0576A800004FA1C
:1017500000FE27EA0E070CFA00F040EA070CC2F878
:1017600024C04CE00121A94008404FD090FAA0F1DC
:10177000B1FA81F7790003268E40D3F804C0F6430E
:10178000BCF1010F18BFBCF1020F17D1D3F808C08C
:10179000D2F808E006EA0E0E0CFA01FC4CEA0E0C38
:1017A000C2F808C0D2F804C0D3F80CE02CEA000C50
:1017B0000EFB00FE4EEA0C0CC2F804C0D3F810C0B9
:1017C000D2F80CE006EA0E0E0CFA01FC4CEA0E0C04
:1017D000C2F80CC0D3F804C0BCF1020F0FD1D3F88B
:1017E00014C0082FACD2106ABF0004FA07FE20EA2A
:1017F0000E000CFA07F747EA000CC2F820C0586840
:1018000017683E4000FA01F1314311606D1C186801
:1018100030FA05F1A6D10020F0BD0000F8B504466D
:1018200084B0E0680E460125810465D4E2683A4838
:1018300071680240F0680A4331690243B0690A43A3
:101840000243E2602169B06821F440510143216103
:1018500068466269716922F440720A43626100F06D
:10186000B5FE27498C4208D0264884421CBF264931
:101870008C420AD02548844201D1039806E02448CE
:1018800084421CBF23498C4236D1029800281CBFD9
:101890003268002A30D0B66900251921B6F5004F0C
:1018A000A1FB00016FF0630712D1D30F520000F0CB
:1018B000E9FE00F033F8FF0032376420B7FBF0F0A8
:1018C000420002F4F87202EB011200F0070010E08F
:1018D000930F920000F0D6FE00F020F83F0132375F
:1018E0006420B7FBF0F000F0F00202EB011200F010
:1018F0000F00801880B2A060284605B0F0BD00003F
:101900000010014000440040004800400014014025
:10191000004C004000500040F369FFFF6421B0FB21
:10192000F1F107FB01077047EFF3058060B9DFF8BD
:101930006811EFF31080002804BFEFF31180002836
:1019400003D00868022800D17FE0086810B901229E
:101950000A6070474FF0FF307047000080B5EFF32A
:10196000058058B9DFF8301100F072F804BFEFF3CA
:101970001180002803D00868022800D109E0086817
:10198000012805D102220A6001F019F8002002BDE9
:1019900002E06FF0050002BD4FF0FF3002BDF8B568
:1019A00084B000230393EFF30583002B4AD1EFF3B8
:1019B0001083002B04BFEFF31183002B04D0DFF85A
:1019C000D8301C68022C3DD003003BD0802518265F
:1019D00000245AB3136803B11C4693691BB11E005F
:1019E00004D0392E02D21379DF0701D500202AE076
:1019F000536903B19D08D2F80CC0976887B1BCF158
:101A0000600F1FD31269002A18BF002B1AD0019251
:101A10000B46029700962A46214600F0B7FE10E0DA
:101A2000BCF1000F04BF1269002A0BD103AB019374
:101A300000960B46AAB2214600F0D9FE012801D03B
:101A400000200390039805B0F0BD6FF005007047CB
:101A5000EFF310800028704710B5EFF3058149B906
:101A600000F011F804BFEFF31181002905D000F058
:101A70000EF802D16FF0050403E0002408B100F075
:101A800084FF204610BDEFF3108100297047024902
:101A90000A68022A70470000342F0120084B0360B7
:101AA00003F160000860802111607047054B0360FE
:101AB00003F1600008604FF480711160704700000E
:101AC000A4280120E41F012070B500F13C031A781E
:101AD000012A01D1022070BD01221A7002245C701B
:101AE00005686E68AC680A6826F0700616436E607A
:101AF00002681148824218BFB2F1804F11D00F48DE
:101B000082421CBF0E4DAA420BD00E4882421CBF1F
:101B10000D4DAA4205D00D4882421CBF0C4DAA4271
:101B200004D1486824F08004044394600121597072
:101B30000020187070BD000000000140000400404B
:101B400000080040000C004000040140004001403B
:101B5000001800402DE9F843040016D02078DFF883
:101B6000F862C10713D5B06800F00C00042807D054
:101B7000B06800F00C0008283DD1706841023AD5E9
:101B80003068810303D56068002800F05F81207809
:101B9000B24F810719D5B06810F00C0F07D0B068AC
:101BA00000F00C0008285BD17068410258D43068FE
:101BB000810703D5E068012840F048813168206939
:101BC00021F0F80141EAC00131602178080779D598
:101BD0006069A349002868D001220A6001F096F9E3
:101BE0000546706F81076DD401F090F9401B022803
:101BF000F7D903202DE16068B0F5803F04D130684B
:101C000040F48030306011E0B0F5A02F306806D18C
:101C100040F480203060316841F4803105E020F4E8
:101C200080303060316821F480213160606858B1C3
:101C300001F06CF9054630688103A8D401F066F91B
:101C4000401B6528F7D3D4E701F060F905463068FA
:101C500081039CD501F05AF9401B6528F7D3C8E7EA
:101C6000E068A8B10121396001F050F905463068FB
:101C7000810705D401F04AF9401B0228F7D9B8E7DB
:101C80003068216920F0F80040EAC10030609CE72C
:101C9000386001F03BF905463168880795D501F0B9
:101CA00035F9401B0228F7D9A3E7086001F02EF9A7
:101CB0000546706F810705D501F028F9401B022801
:101CC000F7D996E72078410760D5306C0025C10030
:101CD0000BD4002000900125316C41F0805131641B
:101CE000306C00F0805000900098DFF87881D8F8D0
:101CF0000000C10513D4D8F8000040F48070C8F883
:101D0000000001F003F98146D8F80000C10506D4AF
:101D100001F0FCF8A0EB09000228F5D969E7A068FA
:101D2000012805D00528306F06D140F00400306747
:101D3000306F40F0010005E0400840003067306F30
:101D400020F00400306741F28938A06860B101F0EA
:101D5000DDF88146306F810713D401F0D7F8A0EB8E
:101D600009004045F6D344E701F0D0F88146306FD2
:101D7000810706D501F0CAF8A0EB09004045F6D36B
:101D800037E71DB1306C20F080503064A069002826
:101D90005ED0B16801F00C0108293AD002282AD19E
:101DA0000020386601F0B2F805463068810105D59B
:101DB00001F0ACF8401B0228F7D91AE7E069216A64
:101DC000626A0843A16A490840EA8210491E40EA53
:101DD0000140E16A40EA016070600120386601F06C
:101DE00095F804463068810132D401F08FF8001B69
:101DF0000228F7D9FDE60020386601F087F804468E
:101E00003068810124D501F081F8001B0228F7D940
:101E1000EFE601281AD07068E26900F4800191426F
:101E200002BF00F03F01226A91420FD147F6C07114
:101E3000626A0140914202BF00F44031A26A9142BD
:101E400002BF00F07060E16A884201D0012000E02A
:101E50000020BDE8F28300BF003802400000474286
:101E6000800E4742007000402DE9F04104000F460B
:101E700054D0534E306800F00F00B84202D200F048
:101E800073F84BD120684F4D810712D5400703D519
:101E9000A96841F4E051A9602078010703D5A8683A
:101EA00040F46040A860A968A06821F0F0010143F7
:101EB000A9602178C80729D56068012802D129685E
:101EC0008A0305E0022818BF032803D129688A0184
:101ED00003D423E029688A0720D5A968890840EA45
:101EE0008100A86001F012F88046A868616800F0DF
:101EF0000C00B0EB810F09D001F008F8A0EB08004E
:101F000041F289318842F0D303202BE0306800F0A1
:101F10000F00874204D200F027F801D0012021E011
:101F20002078410705D5AA68E06822F4E052024310
:101F3000AA602178080706D5A968206921F46041C4
:101F400041EAC001A96000F0E7FFAA681E491F4BE3
:101F5000C2F30312895CC84018601D48006800F095
:101F6000A7F90020BDE8F0813770316801F00F015A
:101F7000B94270471548174A006813681649C3F3F9
:101F80008222FFE7895CC840704710B50F220260CB
:101F9000104A136803F003034360146804F0F0046C
:101FA0008460136803F4E053C3601268D20802F43B
:101FB000E05202610248026802F00F020A6010BD9E
:101FC000003C024000380240DC3E0008681C002053
:101FD000641C002008380240E83F0008F0B50025E6
:101FE000012400E04C43B0FBF4F68E42FAD2DCB19F
:101FF000B0FBF4F604FB1600B4FBF1F41DB9002E9F
:1020000001DC002CF3D11F467B1C0A2EB8BF4FF019
:10201000300C05DB002A14BF4FF0370C4FF0570C83
:1020200066443E706D1CE2E700201870F0BD2DE99B
:10203000F041044688461746002B14BF3025202562
:10204000069E304600E07F1E10F8011B09B1012FEB
:10205000F9DA7F1E05DB29462046C047F9E720460E
:10206000C04716F8011B0800F9D1BDE8F0812DE941
:10207000F84384B004460D4690461E4601E02046D3
:10208000A84718F8011B080070D02529F7D118F8C7
:10209000010B0027B946302804BF18F8010B0127AF
:1020A000A0F130010A291BD204E00A2000FB091923
:1020B00018F8010BA0F130030A2B38BFA0F1300152
:1020C0000CD3A0F16103062B38BFA0F1570105D353
:1020D000A0F14102062A03D2A0F137010A29E4D96E
:1020E000010043D02528CAD058282AD063282FD0F1
:1020F000642816D073282FD0752802D0782820D0D5
:10210000BFE701AB00220A2156F8040BFFF766FF78
:1021100001A800903B464A4629462046FFF787FF24
:10212000AFE756F8040B002801AB05D52D2140423E
:102130008DF804100DF1050300220A21FFF74EFF70
:10214000E6E758280CBF0122002201AB1021DBE793
:1021500056F8041BC9B292E756F8040B009000230E
:102160004A4629462046FFF762FF8AE705B0BDE8E8
:10217000F0830268531C0360117070470DB400B502
:102180000A4602AB044901A8FFF771FF019800213C
:1021900001705DF810FB000073210008034600E0A9
:1021A0005B1C1A78002AFBD111F801CB83F800C020
:1021B00013F8012B002AF7D17047000010F8012B0B
:1021C00011F8013B0AB19A42F8D0D01A70470000CA
:1021D0004AB1000011F8013B521E00F8013B1CBF40
:1021E00011F8013BF8E770470901020002D42648C4
:1021F00081547047254B02F00F021A4402F8041C68
:102200007047234B19684FF6FF020002114000F49B
:10221000E06008431F4908431860704770B51C4BC5
:102220001C68C4F302230124C3F10705052D2EBF4A
:102230000F2504FA05F56D1E1E1D072E34BF002361
:10224000DB1E2940994004FA03F3BDE870405B1E91
:102250001A401143C8E7010007D4012200F01F0112
:102260000D4B8A40400943F820207047BFF34F8F41
:1022700007490A480A6802F4E06202430A60BFF3B1
:102280004F8F00BFFDE7000000E400E018ED00E024
:102290000CED00E00000FA0500E100E00400FA05A2
:1022A0000248416802788A18426070475C1C00202E
:1022B00018B5014687B000223220FFF7AFFF322069
:1022C000FFF7C9FF00200090144C1548016841F049
:1022D0000801016001A9006800F008000090009862
:1022E00002A8FFF752FEFFF745FE0E49216040F2BB
:1022F000E73240000C49E260B0FBF1F0401E606044
:1023000000222261A2602046FEF7E6FE18B92046B0
:10231000FEF7EFFE00E0012008B010BDEC2E01201A
:1023200040380240000C004040420F0082B00020C4
:10233000009000228948416841F480414160416831
:1023400001F480410091009900920F21036843F04D
:1023500080530360006800F08050009000986FF098
:10236000010002B0FFF75ABF38B586B00446142208
:102370000021684600F000FE2268794879498242CF
:1023800023D100220592486940F001004861486964
:1023900000F0010000F0C5F843F010030B6008687E
:1023A00000F0100005904FF4D44105986E4800F0FD
:1023B000B2F8012104916946FEF794FD0022002144
:1023C0001B20FFF72BFF1B209CE0B2F1804F674CD6
:1023D00067482CD1002205920B6943F001030B6181
:1023E00000230A6902F0010200F0A9F809220D6831
:1023F00045F002050D600223096801F0020100F0BA
:1024000096F8694601220492FEF76CFD00F093F8FD
:102410004FF48160022100900191012200F076F8D2
:10242000002200211C20FFF7F9FE1C206AE0514B1E
:102430009A4241D1002205920B6943F002030B61DD
:1024400000230A6902F0020200F079F80D6845F0F5
:1024500002050D600A6802F002020592059A0593D2
:1024600040220D6845F004050D600223096801F063
:10247000040100F05CF8694602220492FEF732FD86
:1024800000F059F80320022100900191022200F08F
:102490003DF800F050F880200221009001910222C6
:1024A000049269463448FEF71DFD002200211D20DC
:1024B000FFF7B4FE1D2025E03048824224D10022DF
:1024C0000592086940F004000861086900F0040002
:1024D00000F027F843F008030B60086800F00800DC
:1024E00005904FF470410598254800F014F802213A
:1024F00004916946FEF7F6FC002200211E20FFF73A
:102500008DFE1E20FFF7A7FE07B030BD049269467E
:102510002046FEF7E7BC0091019200210291039151
:10252000704705900598059202220B687047059147
:10253000059900920193002202920392704705923E
:10254000059A05930D6845F001050D600A6802F0D3
:1025500001020592059A0593704700004038024039
:1025600000000140303802400010024000040240E8
:102570000000024000040040000802400008004043
:10258000000C0240704770477047704770477047B3
:1025900062F30F2262F31F4200B500BF130096469C
:1025A0009446103928BFA0E80C50FAD85FEA417C65
:1025B00028BF0CC048BF40F8042BC90728BF20F82B
:1025C000022B48BF00F8012B00BD000010B50446E7
:1025D00000F00CF8206000F017F8606000F01AF8C6
:1025E000A060606800F01EF8E06010BD1F48006841
:1025F00000F00C00042802D0082802D002E01C4899
:10260000704715E01B48704718491B4A0968C1F319
:10261000031104E01549194A0968C1F38221515C8C
:10262000C84070471149154A0968C1F34231F6E7BD
:10263000134A13680146002003F48003B3F5800FAA
:102640000CBF0B4B0B4B08290FD110681168126897
:1026500000F03F00B3FBF0F3C1F388104343C2F333
:102660000140401C4000B3FBF0F0704708380240C6
:1026700000127A000024F400DC3E0008E83F000865
:1026800004380240D3BBD9B1B2F5803F5BD2022AF5
:102690001ED98C46B1FBF2F102FB11C31B0443EAC5
:1026A0001043B3FBF2FC02FB1C3380B240EA03434D
:1026B000B3FBF2F002FB103240EA0C4000237047FB
:1026C000022A05D98446B0FBF2F002FB10C2704723
:1026D0004AB105D100F0010249085FEA30007047B5
:1026E00000220023704700F051BC0B0002000021C3
:1026F00000207047F7D3002200237047904271EB0F
:10270000030CF2D370B5B1FA81F4B3FA83F52C1B44
:10271000A340C4F1200532FA05F63343A2405FF02E
:102720000046E64002E05B085FEA3202841A71EB81
:10273000030524BF204629467641F4D302000B004E
:102740003000002170BD70B5B1FA81F4B2FA82F5A3
:10275000C4F120046419B4F12006DAD3B2405FF06A
:102760000044F440002502E052085FEA3303C61A31
:1027700071EB020E24BF3046714664416D41F3D3C4
:1027800002000B002000290070BD0000F0B585B0EC
:1027900050260B9D25B986F3118800F052FAFEE70A
:1027A0000C9C24B986F3118800F04BFAFEE76027F1
:1027B0000097DDF800E0BEF1600F04D086F31188C9
:1027C00000F03FFAFEE7009E25630026022584F80C
:1027D0005D5004AF0A9D039602940197009500F0A6
:1027E00034F8204600F079F8049805B0F0BD2DE9E2
:1027F000F8430646174684B088469946B80000F06C
:10280000C7FB05001CD0602000F0C2FB040014D000
:102810000020256384F85D00039002940D980C99C4
:10282000019000914B463A464146304600F00DF883
:10283000204600F052F8012004E0284600F02EFC6B
:102840004FF0FF3005B0BDE8F0832DE9F0470A9F57
:1028500081460C461546386B9A46A522A900FFF71B
:1028600097FE396B01EB8502101FC0084FEAC008C4
:1028700008F0070007F1340554B10021625C6A5486
:10288000605C10B1491C1029F8D30020E87300E007
:102890002870089E372E88BF3726099CFE62AE61DD
:1028A000E861C6F13806381D00F053FC07F1180046
:1028B00000F04FFC3F61BE617F6200202862002172
:1028C000696287F85C0052464946404600F07EFC4B
:1028D000386004B12760BDE8F0872DE9F04100F0D1
:1028E0006BF8DFF82055DFF89085E86C401CE86451
:1028F0001426A86A28BBAC62E86C012829D10027FD
:1029000006FB07F0404400F017FC7F1C382FF7D37C
:1029100005F1780000F010FC05F18C07384600F056
:102920000BFC284600F008FC05F1140000F004FC44
:1029300005F1380000F000FC05F17800E8622F6333
:1029400007E0A86D28B9E06AA96ACA6A904228BF60
:10295000AC62A86EE26A401C6064696D914238BF47
:102960006A65A8665643211D08EB060000F0F4FBDB
:1029700000F0B7FCA86D30B100F0AFF903D200F061
:1029800084FA00F05EF9BDE8F08180B588B1DFF827
:102990007424116F21B100F03BF900F052F9FEE709
:1029A000116F491C1167002100F07AFA00F046F817
:1029B00008B900F041F901BD044600F079BC80B5CA
:1029C00086B000210591049103AA04A905A8FFF788
:1029D00065F8059804990290002200920191002365
:1029E000039A0FF220510FF27D30FFF7CFFEA8B10E
:1029F00000F0D0FC5021012812D181F3118800F0A1
:102A000020F9DFF8EC044FF0FF31C1660122826546
:102A10000021016500F06AFE00F0FAFB07B000BD7E
:102A200010F1010FFAD181F3118800F00AF9FEE7E5
:102A3000DFF8BC04016F491C0167704770B5DFF80F
:102A4000C463306F0024002520B900F043F800F083
:102A5000F8F8FEE700F02CFC306F401E3067306F56
:102A6000002836D1F06CD0B933E0F068C46800F0CB
:102A700035F800F0C9F9E06A716D814238BF7065C0
:102A80001423DFF870245843211D104400F064FB28
:102A9000E06AB16ACA6A904224BF01213166306897
:102AA0000028E2D10CB100F094F9F46D44B100F0CB
:102AB0001DF808B101203066641EF8D10020F065D1
:102AC000306E30B1DFF830144FF08050012500F047
:102AD000B7F8D3E1502181F31188704704F1180051
:102AE00000F060BBDFF80804006D70472DE9F84383
:102AF000DFF81073386F002600284FD13C6D641C3E
:102B00003C6510D1F86A006820B1FFF7E3FF00F0E0
:102B100098F8FEE7F86A396BF9623863786E401C02
:102B2000786600F056F9F86EDFF8C89384424FF0EB
:102B3000140827D31FE0F96AC868C568686884422A
:102B40002AD3281D00F02EFBA86A18B105F1180041
:102B500000F028FBE86A796D814238BF786508FB90
:102B600000F0291D484400F0F7FAE86AB96ACA6A19
:102B7000904228BF0126F86A00680028DBD14FF098
:102B8000FF31F966B86AC06A08FB00F859F8081006
:102B9000022906D3012604E0F866F3E7F86D401C2D
:102BA000F865386E00B101266CE110B5DFF85442CB
:102BB000206F10B10121216610BD206600F097FD45
:102BC000616F814204D2A26A536DC318591A5165CC
:102BD0006067616DDFF81C2300E0491E14234B433E
:102BE000D05830B90029F8D100F012F800F029F8D7
:102BF000FEE7D01800F108034268526842609A422A
:102C000004BF526842604068C268A262616510BD3C
:102C1000502080F31188704710B50C4620B9FFF79B
:102C2000F7FF00F00EF8FEE700F027F800F0A1FA39
:102C30002046BDE8104009E0DFF8BC124FF080509C
:102C40000860BFF34F8FBFF36F8F7047012127E1FB
:102C500038B50D46144620B9FFF7DAFFFFF7F1FF4C
:102C6000FEE700F00AF800F077FA0CB14FF0FF35FC
:102C700021462846BDE8344012E1DFF87422936A09
:102C800003F11801704738B5C068C46824B9FFF76C
:102C9000BFFFFFF7D6FFFEE7FFF720FFDFF8505238
:102CA000286F40B900F0B0F800F013F838BF6A653B
:102CB00000F0F0F802E004F11801284600F04CFAA8
:102CC00000F00BF803D201212966012032BD00205B
:102CD00032BDE26A686D90427047A86AC16AE06AD4
:102CE00081427047DFF808124A6E0260096D416048
:102CF0007047F8B504460D46502024B980F311887A
:102D0000FFF79FFFFEE725B980F31188FFF799FFD2
:102D1000FEE700F0CDFADFF8D801016D62682E6899
:102D20008B1A16F1010F0ED0476ED4F800C067451C
:102D300001D091420BD2B34207D2F31A2B60416EFD
:102D40002160006D6060002402E000202860012402
:102D500000F0C7FA2046F2BDDFF8941101200866A2
:102D60007047000070B5444CDFF8845111E000F06A
:102D70009FFA286AC668301D00F014FAE86C401EFD
:102D8000E864686B401E686300F0ABFA304600F000
:102D900009F8686B0028EAD121680229F9D3FFF706
:102DA0004BFFF6E710B5044694F85D0040B9206B80
:102DB00000F074F92046BDE8104000F06FB910BD76
:102DC0000128F7D00228FAD0FFF722FFFFF739FFDA
:102DD000FEE70C49C86A006810B94FF0FF3203E003
:102DE000C86AC268D0684268CA667047DFF80011D6
:102DF000886D08B901207047086F08B90220704734
:102E000000207047E02C0120201D00F0CBB938B520
:102E10000446002134B3DFF8D850A86A5022844217
:102E200004D082F31188FFF70CFFFEE7206D20B974
:102E300082F31188FFF705FFFEE7E26AE36C401EAC
:102E40009A4220650ED068B9FFF7DEFFE26CE262BD
:102E5000C2F13800A061696D914238BF6A6500F027
:102E600003F80121084632BD1420DFF888304243C0
:102E7000211D981800F070B94424012000F031FAA7
:102E8000284670BD3046BDE8F2831B4A4FF08051A2
:102E9000116070471420174B4243211D981870474A
:102EA000F8B5134D2F6D0C46A96A0646081D00F0B3
:102EB00079F916F1010F05D124B1A86A011D05F1B8
:102EC00038001BE0A86AF6194660BE42A86A05D21F
:102ED000011D286BBDE8F44000F04BB9011DE86A04
:102EE00000F047F9E86E864238BFEE66F1BD00009B
:102EF000E02C01204424012004ED00E0BDE8F44072
:102F000000F02AB949444C450000000001484068DF
:102F1000704700BF5C1C002030B5144C606800F0A6
:102F20000C00042802D0082802D01DE0104830BD53
:102F3000226820680023410202F03F0204D5256880
:102F40000B49C5F3881003E020680A49C0F38810D4
:102F5000A1FB0001FFF796FB2168C1F30141491C69
:102F60004900B0FBF1F030BD024830BD04380240EA
:102F700000127A000024F40010B5044610460A46F8
:102F80000146204600F0B6FB204610BD7047000009
:102F90002DE9F8430446FFF74BFD664FB8684FF044
:102FA0000009002508BB07F1180307F1180113F009
:102FB000070F4FF47A400A4605D0CA1DD208D20046
:102FC000C2F57A40081880180838C008C0003A6076
:102FD0007D60B86045600560831A5360106050687A
:102FE0003861F8604FF0004078614FF05008786920
:102FF000044243D1002C41D0083414F0070F04D010
:1030000004F1080004F00704041B002C36D0F86813
:10301000A04233D33E68394601E031460646706827
:10302000A04202D230680028F7D1B868864225D085
:103030000A683068086002F108097268121B112AD8
:103040000CD3311911F0070002D000F020F8FEE790
:10305000301D02517460084600F047F87168F86846
:103060003C69401AF860FA68A24288BF2246786933
:103070003A6101437160356009F00705FFF7DEFC36
:1030800015B100F004F8FEE74846BDE8F28388F386
:103090001188BFF34F8FBFF36F8F7047002800D1A7
:1030A000704738B5A0F10804224D61686A69502361
:1030B000114204D183F31188FFF7EBFFFEE720688C
:1030C00020B183F31188FFF7E4FFFEE791436160CD
:1030D000FFF7AEFCE96860684118E960204600F03F
:1030E00004F8BDE83140FFF7A9BC30B511490A46E4
:1030F00000E01A4613688342FBD35368D418844215
:1031000003D14068C3185360104643681468C5185B
:10311000A54208D189688C4204D06168CB1843600D
:10312000246800E00C460460824218BF106030BD85
:10313000000000006C1C00204FF0FF3200F108017D
:1031400082604160C16000F10802026100210160FB
:10315000704700210161704710B542684A6093686A
:103160008B6094686160916008610168491C01602E
:1031700010BD30B50A6812F1010F08BF036907D00E
:1031800000F1080300E023465C682568AA42FAD2F1
:103190005A684A6091608B60596008610168491CF7
:1031A000016030BD4368016982689A608368426843
:1031B0005A604A68824204BF83684B600022026101
:1031C0000868401E0860086870470000490810B58C
:1031D0004900A0F120034FF0807499611A60DC610E
:1031E0006FF002020FF20D01596140F8242D2038D2
:1031F00010BD00005A494A68502012F1010F80F3B7
:103200001188BFF34F8FBFF36F8F00D0FEE7FEE74B
:103210007CB5544A544B10685021984202D100F0BA
:10322000B1F8FEE71068514B984202D100F0AAF8BD
:10323000FEE74F4B1C780194FF251D701E78484C0B
:103240008DF800609DF8000000F05000207007200D
:1032500005E09DF800506D00401E8DF800509DF86F
:1032600000502E06F5D4454215F1030F03D0A0609F
:1032700000F088F8FEE7000200F4E060A06001982A
:103280001870116A41F470011162106A40F07040C8
:10329000106200F039FA0020606000F093FA3548BF
:1032A000016841F04041016000F07CFA002076BDE9
:1032B000502080F31188BFF34F8FBFF36F8F2849E1
:1032C0004A68521C012A4A600AD12B490A6813062F
:1032D00006D080F31188BFF34F8FBFF36F8FFEE7E7
:1032E00070471F49486838B9502080F31188BFF3F0
:1032F0004F8FBFF36F8FFEE7401E486008BF80F31B
:103300001188704780B5502080F31188BFF34F8F2C
:10331000BFF36F8FFFF7EAFB18B117494FF08050EA
:103320000860002282F3118801BD000010B5EFF3A0
:103330000580502110280A4A07D3104B185C1478D6
:10334000A04202D200F01EF8FEE790680C4A136813
:1033500003F4E063984202D200F014F8FEE710BDD7
:10336000501C002000ED00E071C20F4170C20F41FF
:1033700000E400E034EF00E004ED00E0F0E300E002
:103380000CED00E081F31188BFF34F8FBFF36F8F17
:103390007047000010B586B000F074F9DFF83443D0
:1033A000A068C0B100210591049103AA04A905A851
:1033B000FEF77CFB0598049902900222009201918D
:1033C0000023039A0FF214310FF28100FFF7DEF9A8
:1033D0000028E06005D1502181F3118800F031F818
:1033E000FEE7012006B010BD2046BDE8F681F8B525
:1033F000044684B01E46002014B900F01FF8FEE712
:10340000DFF8D072BD68BDB1062900910192029427
:103410000CDAFFF7EBFC022807BF0A9A002300230F
:103420000022B868694600F05DFA05E000233246E4
:103430006946284600F0EDFA05B0F0BD502080F353
:103440001188BFF34F8FBFF36F8F7047F8B586B009
:10345000DFF880522968086810B90124002602E0CC
:10346000C86806680024FFF7E3FA01A800F0B4F882
:103470000746019800283FD154BBB7422DD3FFF730
:10348000DDFA2868C168CC68201DFFF78BFE94F830
:103490002800410717D5A16933463A4689192046C5
:1034A00000F0D5F840B10020009000233246002102
:1034B0002046FFF79CFF18B1216A2046884725E087
:1034C000FFF7BCFFFEE700F0FE0084F82800F3E7FA
:1034D000686801684C1EA441E40FA8682246F11BED
:1034E00000F01EFCFFF7AAFA80B97B494FF080502C
:1034F0000860FFF7A6FF09E0FFF7A0FA06E094F8DE
:10350000280081073BD42046FFF7C8FDA8680022A9
:1035100002A900F0CDFA00289CD00298002803D51B
:1035200005990498039A904702980028EED4049CC9
:10353000606910B1201DFFF735FE01A800F04CF8BE
:1035400002990929E2D8DFE801F02121211A0706B2
:1035500021211A07DAE7D2E794F8282042F0010285
:1035600084F828200399A16131B103460246091865
:10357000204600F06CF8C9E7FFF760FFFEE794F81B
:10358000280000F0FE0084F82800BFE794F8281017
:1035900041F0010184F8281002460399A0690B4606
:1035A0004118204600F053F80028AFD0216A204689
:1035B000884794F828004107A8D5002000900023F0
:1035C000039AA069821800212046FFF710FF002807
:1035D0009CD1FFF733FFFEE72DE9FC410646FFF7DC
:1035E00081FA3C4D04462869844209D300213160A8
:1035F0002C61F9E678603F61391D2868FFF7B9FD55
:1036000029680868F0B1C868D0F80080C768381D1C
:10361000FFF7C8FD396A3846884797F82800410700
:10362000EED5B86940448045E4D3002000900023E3
:10363000424600213846FFF7DAFE0028E0D1FFF7C6
:10364000FDFEFEE76868696028600121CFE738B5B4
:1036500000248A42416000611E4D06D38169D21A5E
:103660008A4206D2011D686807E09A4203D2994255
:1036700001D3012403E0011D2868FFF77AFD2046ED
:1036800032BD00001CB5FFF713FE124CA068E0B974
:1036900004F11400FFF750FD04F12800FFF74CFD82
:1036A00004F1140004F128010022206061600092FE
:1036B00004F13C0304F18C0210210A2000F0C9F847
:1036C000A06010B107A100F017FBBDE81340FFF7A1
:1036D00008BE0000042B012004ED00E0546D7220B0
:1036E00053766300546D7251000000007047002053
:1036F000704700004018491C1CBFB1F1010100F8DF
:10370000012DF9D1704700000748084B00210160E6
:10371000002282604FF47A721968B1FBF2F2521EF5
:10372000426007210160704710E000E0681C002043
:10373000EFF30980BFF36F8F264B1A681EF0100F4E
:1037400008BF20ED108A20E9F04F106009B44FF057
:10375000500080F31188BFF34F8FBFF36F8FFFF7D7
:1037600024FA4FF0000080F3118809BC196808683A
:10377000B0E8F04F1EF0100F08BFB0EC108A80F3D5
:103780000988BFF36F8F7047124B19680868B0E85B
:10379000F04F80F30988BFF36F8F4FF0000080F384
:1037A000118870470C480068006880F308884FF063
:1037B000000080F3148862B661B6BFF34F8FBFF389
:1037C0006F8F00DFDFF81400016841F470010160C1
:1037D00070470000082D012008ED00E088ED00E0B2
:1037E00070B504000D4602D100F074F8FEE7FFF753
:1037F0005FFD206CE16B226800FB01F3491E48432A
:1038000010441344A3600026A663E060626004F1E4
:1038100044004FF0FF310170417075B92069A0B1CB
:1038200004F11000FFF72FFA78B1DFF8EC144FF035
:103830008050086000F0D4F907E004F11000FFF7B1
:103840007BFC04F12400FFF777FCFFF74AFD012021
:1038500070BD7CB51C46502320B983F3118800F05D
:10386000BFF9FEE724B983F3118800F0B9F9FEE748
:103870002AB129B983F3118800F0B2F9FEE779B9CA
:1038800050250095009E502E0FD1009B34B1069B11
:10389000012584F84650009400F00CF8204676BDCF
:1038A00083F3118800F09CF9FEE783F3118800F0A0
:1038B00097F9FEE738B5049D1C4600290CBF2D6022
:1038C0002A60E863296428460121FFF789FF85F80B
:1038D0004C4031BD502080F31188BFF34F8FBFF3B0
:1038E0006F8F70472DE9F64782B004461E46502779
:1038F00014B900F073F9FEE75FEA010A01D1206C08
:1039000060B9022E02D1E06B01280AD1FFF76EFAEE
:1039100050B9039840B100F061F9FEE700F05EF99C
:10392000FEE700F05BF9FEE727460024DFF8E883B6
:103930004FF080592EE0039800284BD014B900F0C6
:103940003EF90124FFF7CDFCFFF772F8FFF7B0FC5A
:1039500007F1440000F036F904BF0022027000F0C5
:1039600036F904BF00224270FFF7BBFC00F04DF8AF
:10397000002844D1FFF79CFCB86BF96B884214BF58
:1039800000250125FFF7ADFC45BB384600F075F971
:10399000FFF754F8FFF78CFCB86BF96B884201D342
:1039A000022EC8D132465146384600F01EF9796AD7
:1039B00029B107F12400FFF766F908B904E018B14E
:1039C000C8F8009000F00CF9FFF78BFC012004B060
:1039D000BDE8F087FFF785FC0020F8E7039907F1C1
:1039E0001000FFF719F9384600F047F9FFF726F8FD
:1039F0000028CFD1C8F8009000F0F2F8CAE73846A6
:103A000000F03BF9FFF71AF8E6E703A96846FFF76D
:103A100070B92DE9F8430446884615461E465027DE
:103A200014B900F0DBF8FEE7B8F1000F01D1206C0B
:103A300020BB022E02D1E06B012822D1FFF776FCD9
:103A4000EFF3118900F02AF801D3022E21D194F965
:103A5000457032464146204600F0C7F817F1010F85
:103A600012D1606A98B104F12400FFF70CF9002824
:103A700018BF002D0BD00120286008E000F0AEF840
:103A8000FEE700F0ABF8FEE77F1C84F845700120EC
:103A900000E0002089F31188BDE8F28387F31188E4
:103AA000BFF34F8FBFF36F8FA06BE16B88427047FE
:103AB0002DE9F74306460F460024502526B985F325
:103AC000118800F08DF8FEE70FB9306C48B9FFF7A8
:103AD0008DF978B9029868B185F3118800F080F803
:103AE000FEE785F3118800F07BF8FEE700F074F83C
:103AF000FEF7A4FFFFF7DCFBB56BDFF81C82002D9F
:103B00004FF0805932D10298002845D014B900F006
:103B100056F80124FFF7E5FBFEF78AFFFFF7C8FB25
:103B200006F14400415711F1010F04BF0022027059
:103B300000F04DF804BF00224270FFF7D2FB02A94B
:103B4000FFF764FF002830462AD100F0CAF80028A9
:103B5000CCD000F02FF800F03FF8FEF76FFF002800
:103B6000C8D1C8F8009000F03BF8C3E739463046AA
:103B700000F06FF86D1EB563306940B106F11000BA
:103B8000FFF781F818B1C8F8009000F029F8FFF7A6
:103B9000A8FB0120BDE8FE83FFF7A3FB0020F9E7A7
:103BA00000F06BF8FEF74AFF304600F09AF8002864
:103BB000A0D0F3E7029906F12400FFF72DB868467C
:103BC000FFF790B890F9001011F1010F704790F9CC
:103BD000011011F1010F704730464EE087F3118854
:103BE000BFF34F8FBFF36F8F7047F8B5064615468A
:103BF000B46B326C002742B9306830BBB068FFF755
:103C000006F900210746B1601FE065B97068FEF74C
:103C1000DFFA7068316CB26808449042706014D367
:103C20003068706011E0F068FEF7D2FA306CF1682D
:103C300040420144F1603268914202D2B1680844C6
:103C4000F060022D01D104B1641E641CB4633846D7
:103C5000F2BD026C002A0B4600D1704710B5C16856
:103C600084681144C160A14224BF0168C160C16879
:103C7000BDE810401846FEF7ABBAF8B50546FFF7A9
:103C800017FB05F1440494F9016007E005F12400F5
:103C9000FEF7F9FF08B1FFF75FF8761E70B2012852
:103CA00002DB686A0028F1D14FF0FF366670FFF73B
:103CB00018FBFFF7FDFA94F9007007E005F110001A
:103CC000FEF7E1FF08B1FFF747F87F1E78B2012841
:103CD00002DB28690028F1D12670BDE8F140FFF72A
:103CE00000BB10B50446FFF7E3FAA06B441EA441E5
:103CF000FFF7F7FAE00F10BD10B50023074C54F89A
:103D000033201AB15B1C082BF9D310BD44F83310D3
:103D100004EBC301486010BD04ED00E0AC2E0120AF
:103D2000F8B504460D461646FFF7C2FA04F1380707
:103D300097F90C0010F1010F04BF0021397397F9B6
:103D40000D0010F1010F04BF00217973FFF7C9FACC
:103D5000386828B93246294604F12400FEF778FF76
:103D60002046BDE8F24088E7FEF780BA80B5FEF74E
:103D70007DFAFEE780B5FEF779FAFEE780B5FEF73B
:103D800075FAFEE780B5FEF771FAFEE7FEF76EBA48
:103D900070472048FDF713BA1F48FDF710BA1F48B7
:103DA000FDF70DBA1E48FDF70ABA1E48C168C906DC
:103DB00000D4704718B50168C90623D502681A4BAC
:103DC00000920099426800920022009917491A60F7
:103DD0000C68174B640864000C60C26822F400523F
:103DE000C2608B60134ACA604FF480624B6862F312
:103DF0000F034B600A6842F001020A60C16841F497
:103E00000051C16011BD0C480178491C01700B487C
:103E1000FDF7D5B9A42D0120EC2D01202C2E012079
:103E20006C2E0120004800402C2F01202860024009
:103E3000044800408416012062090020EC2E012075
:103E4000BC3F00080000000000000000000000006F
:103E5000000000000004000020000000000000003E
:103E600000000000DC3F000800000000000000002F
:103E70000000000000000000000200001800000028
:103E8000000000000000000030B4002512E050F8EF
:103E9000042BD30744BF4A44521E091F042942F889
:103EA000045BFAD213468C0744BF15809B1CC907DC
:103EB00048BF1D7050F8041B0029E8D130BC704782
:103EC0000448054A016841F4700101604FF0006048
:103ED0001060704788ED00E008ED00E00000000091
:103EE00000000000010203040607080910B5074995
:103EF00079441831064C7C44163404E00A68081DE5
:103F0000114488470146A142F8D110BD2C000000A1
:103F1000480000004EF68851CEF20001086840F4D7
:103F200070000860BFF34F8FBFF36F8F4FF00170C9
:103F3000E1EE100A7047000051FFFFFFCC120100B4
:103F40006C1C002000000000A3D7FFFFCC01000084
:103F5000160100000000002000F00DF8002801D03C
:103F6000FFF7C4FFAFF300800020AFF30080FCF741
:103F70004EF900F002F80120704700F001B800008F
:103F80000746384600F002F8FBE7000080B5AFF3C3
:103F90000080024A11001820ABBEFBE72600020099
:103FA0000548014603B4684680F30988AFF30080F2
:103FB000FFF7B0FFFFF7D0FFA5EDF5FE6D6F646270
:103FC00075735461736B546370000000014880473F
:103FD00001480047C13E0008A13F000846726571D4
:103FE0005F43616C00000000000000000102030458
:103FF000FFF7FEBFFFF7FEBFFFF7FEBFFFF7FEBFF5
:10400000FFF7FEBFFFF7FEBFFFF7FEBFFFF7FEBFE4
:10401000FFF7FEBFFFF7FEBFFFF7FEBFFFF7FEBFD4
:10402000FFF7FEBFFFF7FEBFFFF7FEBFFFF7FEBFC4
:10403000FFF7FEBFFFF7FEBFFFF7FEBFFFF7FEBFB4
:10404000FFF7FEBFFFF7FEBFFFF7FEBFFFF7FEBFA4
:10405000FFF7FEBFFFF7FEBFFFF7FEBFFFF7FEBF94
:10406000FFF7FEBFFFF7FEBFFFF7FEBFFFF7FEBF84
:10407000FFF7FEBFFFF7FEBFFFF7FEBFFFF7FEBF74
:10408000FFF7FEBFFFF7FEBFFFF7FEBFFFF7FEBF64
:10409000FFF7FEBFFFF7FEBFFFF7FEBFFFF7FEBF54
:1040A000FFF7FEBFFFF7FEBFFFF7FEBFFFF7FEBF44
:1040B000FFF7FEBFFFF7FEBFFFF7FEBFFFF7FEBF34
:1040C000FFF7FEBFFFF7FEBFFFF7FEBFFFF7FEBF24
:1040D000FFF7FEBFFFF7FEBFFFF7FEBFFFF7FEBF14
:1040E000FFF7FEBFFFF7FEBFFFF7FEBFFFF7FEBF04
:1040F000FFF7FEBFFFF7FEBFFFF7FEBFFFF7FEBFF4
:10410000FFF7FEBFFFF7FEBFFFF7FEBFFFF7FEBFE3
:10411000FFF7FEBFFFF7FEBF810081008100810035
:104120008100810081008100810081008100810087
:104130008100810081008100810081008100810077
:104140008100810081008100810081008100810067
:104150008100810081008100810081008100810057
:104160008100810081008100810081008100810047
:104170008100810081008100810081008100810037
:104180008100810081008100810005006D6F646500
:1041900030F900FCAAFC000001F9000010FC00024C
:0341A00024F40004
:0400000508003FA10F
:00000001FF
